{
  "_format": "hh-sol-artifact-1",
  "contractName": "NFTMarketplace",
  "sourceName": "contracts/NFTMarketplace.sol",
  "abi": [
    {
      "inputs": [],
      "stateMutability": "nonpayable",
      "type": "constructor"
    },
    {
      "anonymous": false,
      "inputs": [
        {
          "indexed": true,
          "internalType": "address",
          "name": "owner",
          "type": "address"
        },
        {
          "indexed": true,
          "internalType": "address",
          "name": "approved",
          "type": "address"
        },
        {
          "indexed": true,
          "internalType": "uint256",
          "name": "tokenId",
          "type": "uint256"
        }
      ],
      "name": "Approval",
      "type": "event"
    },
    {
      "anonymous": false,
      "inputs": [
        {
          "indexed": true,
          "internalType": "address",
          "name": "owner",
          "type": "address"
        },
        {
          "indexed": true,
          "internalType": "address",
          "name": "operator",
          "type": "address"
        },
        {
          "indexed": false,
          "internalType": "bool",
          "name": "approved",
          "type": "bool"
        }
      ],
      "name": "ApprovalForAll",
      "type": "event"
    },
    {
      "anonymous": false,
      "inputs": [
        {
          "indexed": true,
          "internalType": "address",
          "name": "owner",
          "type": "address"
        },
        {
          "indexed": false,
          "internalType": "uint256",
          "name": "tokenId",
          "type": "uint256"
        },
        {
          "indexed": false,
          "internalType": "string",
          "name": "tokenURI",
          "type": "string"
        },
        {
          "indexed": false,
          "internalType": "string",
          "name": "title",
          "type": "string"
        },
        {
          "indexed": false,
          "internalType": "string",
          "name": "description",
          "type": "string"
        },
        {
          "indexed": false,
          "internalType": "string",
          "name": "category",
          "type": "string"
        },
        {
          "indexed": false,
          "internalType": "uint256",
          "name": "price",
          "type": "uint256"
        }
      ],
      "name": "NFTMinted",
      "type": "event"
    },
    {
      "anonymous": false,
      "inputs": [
        {
          "indexed": true,
          "internalType": "address",
          "name": "previousOwner",
          "type": "address"
        },
        {
          "indexed": true,
          "internalType": "address",
          "name": "newOwner",
          "type": "address"
        }
      ],
      "name": "OwnershipTransferred",
      "type": "event"
    },
    {
      "anonymous": false,
      "inputs": [
        {
          "indexed": true,
          "internalType": "address",
          "name": "from",
          "type": "address"
        },
        {
          "indexed": true,
          "internalType": "address",
          "name": "to",
          "type": "address"
        },
        {
          "indexed": true,
          "internalType": "uint256",
          "name": "tokenId",
          "type": "uint256"
        }
      ],
      "name": "Transfer",
      "type": "event"
    },
    {
      "inputs": [
        {
          "internalType": "address",
          "name": "to",
          "type": "address"
        },
        {
          "internalType": "uint256",
          "name": "tokenId",
          "type": "uint256"
        }
      ],
      "name": "approve",
      "outputs": [],
      "stateMutability": "nonpayable",
      "type": "function"
    },
    {
      "inputs": [
        {
          "internalType": "address",
          "name": "owner",
          "type": "address"
        }
      ],
      "name": "balanceOf",
      "outputs": [
        {
          "internalType": "uint256",
          "name": "",
          "type": "uint256"
        }
      ],
      "stateMutability": "view",
      "type": "function"
    },
    {
      "inputs": [
        {
          "internalType": "uint256",
          "name": "tokenId",
          "type": "uint256"
        }
      ],
      "name": "getApproved",
      "outputs": [
        {
          "internalType": "address",
          "name": "",
          "type": "address"
        }
      ],
      "stateMutability": "view",
      "type": "function"
    },
    {
      "inputs": [
        {
          "internalType": "uint256",
          "name": "tokenId",
          "type": "uint256"
        }
      ],
      "name": "getNFTDetails",
      "outputs": [
        {
          "components": [
            {
              "internalType": "uint256",
              "name": "tokenId",
              "type": "uint256"
            },
            {
              "internalType": "string",
              "name": "title",
              "type": "string"
            },
            {
              "internalType": "string",
              "name": "description",
              "type": "string"
            },
            {
              "internalType": "string",
              "name": "category",
              "type": "string"
            },
            {
              "internalType": "uint256",
              "name": "price",
              "type": "uint256"
            },
            {
              "internalType": "address",
              "name": "owner",
              "type": "address"
            }
          ],
          "internalType": "struct NFTMarketplace.NFT",
          "name": "",
          "type": "tuple"
        }
      ],
      "stateMutability": "view",
      "type": "function"
    },
    {
      "inputs": [
        {
          "internalType": "address",
          "name": "owner",
          "type": "address"
        },
        {
          "internalType": "address",
          "name": "operator",
          "type": "address"
        }
      ],
      "name": "isApprovedForAll",
      "outputs": [
        {
          "internalType": "bool",
          "name": "",
          "type": "bool"
        }
      ],
      "stateMutability": "view",
      "type": "function"
    },
    {
      "inputs": [
        {
          "internalType": "string",
          "name": "tokenURI",
          "type": "string"
        },
        {
          "internalType": "string",
          "name": "title",
          "type": "string"
        },
        {
          "internalType": "string",
          "name": "description",
          "type": "string"
        },
        {
          "internalType": "string",
          "name": "category",
          "type": "string"
        },
        {
          "internalType": "uint256",
          "name": "price",
          "type": "uint256"
        }
      ],
      "name": "mintNFT",
      "outputs": [],
      "stateMutability": "nonpayable",
      "type": "function"
    },
    {
      "inputs": [],
      "name": "name",
      "outputs": [
        {
          "internalType": "string",
          "name": "",
          "type": "string"
        }
      ],
      "stateMutability": "view",
      "type": "function"
    },
    {
      "inputs": [
        {
          "internalType": "uint256",
          "name": "",
          "type": "uint256"
        }
      ],
      "name": "nftDetails",
      "outputs": [
        {
          "internalType": "uint256",
          "name": "tokenId",
          "type": "uint256"
        },
        {
          "internalType": "string",
          "name": "title",
          "type": "string"
        },
        {
          "internalType": "string",
          "name": "description",
          "type": "string"
        },
        {
          "internalType": "string",
          "name": "category",
          "type": "string"
        },
        {
          "internalType": "uint256",
          "name": "price",
          "type": "uint256"
        },
        {
          "internalType": "address",
          "name": "owner",
          "type": "address"
        }
      ],
      "stateMutability": "view",
      "type": "function"
    },
    {
      "inputs": [],
      "name": "owner",
      "outputs": [
        {
          "internalType": "address",
          "name": "",
          "type": "address"
        }
      ],
      "stateMutability": "view",
      "type": "function"
    },
    {
      "inputs": [
        {
          "internalType": "uint256",
          "name": "tokenId",
          "type": "uint256"
        }
      ],
      "name": "ownerOf",
      "outputs": [
        {
          "internalType": "address",
          "name": "",
          "type": "address"
        }
      ],
      "stateMutability": "view",
      "type": "function"
    },
    {
      "inputs": [],
      "name": "renounceOwnership",
      "outputs": [],
      "stateMutability": "nonpayable",
      "type": "function"
    },
    {
      "inputs": [
        {
          "internalType": "address",
          "name": "from",
          "type": "address"
        },
        {
          "internalType": "address",
          "name": "to",
          "type": "address"
        },
        {
          "internalType": "uint256",
          "name": "tokenId",
          "type": "uint256"
        }
      ],
      "name": "safeTransferFrom",
      "outputs": [],
      "stateMutability": "nonpayable",
      "type": "function"
    },
    {
      "inputs": [
        {
          "internalType": "address",
          "name": "from",
          "type": "address"
        },
        {
          "internalType": "address",
          "name": "to",
          "type": "address"
        },
        {
          "internalType": "uint256",
          "name": "tokenId",
          "type": "uint256"
        },
        {
          "internalType": "bytes",
          "name": "data",
          "type": "bytes"
        }
      ],
      "name": "safeTransferFrom",
      "outputs": [],
      "stateMutability": "nonpayable",
      "type": "function"
    },
    {
      "inputs": [
        {
          "internalType": "address",
          "name": "operator",
          "type": "address"
        },
        {
          "internalType": "bool",
          "name": "approved",
          "type": "bool"
        }
      ],
      "name": "setApprovalForAll",
      "outputs": [],
      "stateMutability": "nonpayable",
      "type": "function"
    },
    {
      "inputs": [
        {
          "internalType": "bytes4",
          "name": "interfaceId",
          "type": "bytes4"
        }
      ],
      "name": "supportsInterface",
      "outputs": [
        {
          "internalType": "bool",
          "name": "",
          "type": "bool"
        }
      ],
      "stateMutability": "view",
      "type": "function"
    },
    {
      "inputs": [],
      "name": "symbol",
      "outputs": [
        {
          "internalType": "string",
          "name": "",
          "type": "string"
        }
      ],
      "stateMutability": "view",
      "type": "function"
    },
    {
      "inputs": [
        {
          "internalType": "uint256",
          "name": "tokenId",
          "type": "uint256"
        }
      ],
      "name": "tokenURI",
      "outputs": [
        {
          "internalType": "string",
          "name": "",
          "type": "string"
        }
      ],
      "stateMutability": "view",
      "type": "function"
    },
    {
      "inputs": [],
      "name": "totalSupply",
      "outputs": [
        {
          "internalType": "uint256",
          "name": "",
          "type": "uint256"
        }
      ],
      "stateMutability": "view",
      "type": "function"
    },
    {
      "inputs": [
        {
          "internalType": "address",
          "name": "from",
          "type": "address"
        },
        {
          "internalType": "address",
          "name": "to",
          "type": "address"
        },
        {
          "internalType": "uint256",
          "name": "tokenId",
          "type": "uint256"
        }
      ],
      "name": "transferFrom",
      "outputs": [],
      "stateMutability": "nonpayable",
      "type": "function"
    },
    {
      "inputs": [
        {
          "internalType": "address",
          "name": "newOwner",
          "type": "address"
        }
      ],
      "name": "transferOwnership",
      "outputs": [],
      "stateMutability": "nonpayable",
      "type": "function"
    }
  ],
  "bytecode": "0x60806040523480156200001157600080fd5b506040518060400160405280600e81526020017f4e46544d61726b6574706c6163650000000000000000000000000000000000008152506040518060400160405280600481526020017f4e46544d0000000000000000000000000000000000000000000000000000000081525081600090816200008f919062000412565b508060019081620000a1919062000412565b505050620000c4620000b8620000ca60201b60201c565b620000d260201b60201c565b620004f9565b600033905090565b6000600760009054906101000a900473ffffffffffffffffffffffffffffffffffffffff16905081600760006101000a81548173ffffffffffffffffffffffffffffffffffffffff021916908373ffffffffffffffffffffffffffffffffffffffff1602179055508173ffffffffffffffffffffffffffffffffffffffff168173ffffffffffffffffffffffffffffffffffffffff167f8be0079c531659141344cd1fd0a4f28419497f9722a3daafe3b4186f6b6457e060405160405180910390a35050565b600081519050919050565b7f4e487b7100000000000000000000000000000000000000000000000000000000600052604160045260246000fd5b7f4e487b7100000000000000000000000000000000000000000000000000000000600052602260045260246000fd5b600060028204905060018216806200021a57607f821691505b60208210810362000230576200022f620001d2565b5b50919050565b60008190508160005260206000209050919050565b60006020601f8301049050919050565b600082821b905092915050565b6000600883026200029a7fffffffffffffffffffffffffffffffffffffffffffffffffffffffffffffffff826200025b565b620002a686836200025b565b95508019841693508086168417925050509392505050565b6000819050919050565b6000819050919050565b6000620002f3620002ed620002e784620002be565b620002c8565b620002be565b9050919050565b6000819050919050565b6200030f83620002d2565b620003276200031e82620002fa565b84845462000268565b825550505050565b600090565b6200033e6200032f565b6200034b81848462000304565b505050565b5b8181101562000373576200036760008262000334565b60018101905062000351565b5050565b601f821115620003c2576200038c8162000236565b62000397846200024b565b81016020851015620003a7578190505b620003bf620003b6856200024b565b83018262000350565b50505b505050565b600082821c905092915050565b6000620003e760001984600802620003c7565b1980831691505092915050565b6000620004028383620003d4565b9150826002028217905092915050565b6200041d8262000198565b67ffffffffffffffff811115620004395762000438620001a3565b5b62000445825462000201565b6200045282828562000377565b600060209050601f8311600181146200048a576000841562000475578287015190505b620004818582620003f4565b865550620004f1565b601f1984166200049a8662000236565b60005b82811015620004c4578489015182556001820191506020850194506020810190506200049d565b86831015620004e45784890151620004e0601f891682620003d4565b8355505b6001600288020188555050505b505050505050565b61374480620005096000396000f3fe608060405234801561001057600080fd5b506004361061012c5760003560e01c80637d4cd847116100ad578063a22cb46511610071578063a22cb46514610348578063b88d4fde14610364578063c87b56dd14610380578063e985e9c5146103b0578063f2fde38b146103e05761012c565b80637d4cd8471461028b57806382260f35146102c05780638da5cb5b146102f057806395d89b411461030e578063a060e7e61461032c5761012c565b806323b872dd116100f457806323b872dd146101e957806342842e0e146102055780636352211e1461022157806370a0823114610251578063715018a6146102815761012c565b806301ffc9a71461013157806306fdde0314610161578063081812fc1461017f578063095ea7b3146101af57806318160ddd146101cb575b600080fd5b61014b60048036038101906101469190612292565b6103fc565b60405161015891906122da565b60405180910390f35b6101696104de565b6040516101769190612385565b60405180910390f35b610199600480360381019061019491906123dd565b610570565b6040516101a6919061244b565b60405180910390f35b6101c960048036038101906101c49190612492565b6105b6565b005b6101d36106cd565b6040516101e091906124e1565b60405180910390f35b61020360048036038101906101fe91906124fc565b6106de565b005b61021f600480360381019061021a91906124fc565b61073e565b005b61023b600480360381019061023691906123dd565b61075e565b604051610248919061244b565b60405180910390f35b61026b6004803603810190610266919061254f565b6107e4565b60405161027891906124e1565b60405180910390f35b61028961089b565b005b6102a560048036038101906102a091906123dd565b6108af565b6040516102b79695949392919061257c565b60405180910390f35b6102da60048036038101906102d591906123dd565b610aa3565b6040516102e791906126f1565b60405180910390f35b6102f8610cf0565b604051610305919061244b565b60405180910390f35b610316610d1a565b6040516103239190612385565b60405180910390f35b61034660048036038101906103419190612848565b610dac565b005b610362600480360381019061035d919061295f565b610f2e565b005b61037e60048036038101906103799190612a40565b610f44565b005b61039a600480360381019061039591906123dd565b610fa6565b6040516103a79190612385565b60405180910390f35b6103ca60048036038101906103c59190612ac3565b6110b8565b6040516103d791906122da565b60405180910390f35b6103fa60048036038101906103f5919061254f565b61114c565b005b60007f80ac58cd000000000000000000000000000000000000000000000000000000007bffffffffffffffffffffffffffffffffffffffffffffffffffffffff1916827bffffffffffffffffffffffffffffffffffffffffffffffffffffffff191614806104c757507f5b5e139f000000000000000000000000000000000000000000000000000000007bffffffffffffffffffffffffffffffffffffffffffffffffffffffff1916827bffffffffffffffffffffffffffffffffffffffffffffffffffffffff1916145b806104d757506104d6826111cf565b5b9050919050565b6060600080546104ed90612b32565b80601f016020809104026020016040519081016040528092919081815260200182805461051990612b32565b80156105665780601f1061053b57610100808354040283529160200191610566565b820191906000526020600020905b81548152906001019060200180831161054957829003601f168201915b5050505050905090565b600061057b82611239565b6004600083815260200190815260200160002060009054906101000a900473ffffffffffffffffffffffffffffffffffffffff169050919050565b60006105c18261075e565b90508073ffffffffffffffffffffffffffffffffffffffff168373ffffffffffffffffffffffffffffffffffffffff1603610631576040517f08c379a000000000000000000000000000000000000000000000000000000000815260040161062890612bd5565b60405180910390fd5b8073ffffffffffffffffffffffffffffffffffffffff16610650611284565b73ffffffffffffffffffffffffffffffffffffffff16148061067f575061067e81610679611284565b6110b8565b5b6106be576040517f08c379a00000000000000000000000000000000000000000000000000000000081526004016106b590612c67565b60405180910390fd5b6106c8838361128c565b505050565b60006106d96008611345565b905090565b6106ef6106e9611284565b82611353565b61072e576040517f08c379a000000000000000000000000000000000000000000000000000000000815260040161072590612cf9565b60405180910390fd5b6107398383836113e8565b505050565b61075983838360405180602001604052806000815250610f44565b505050565b60008061076a836116e1565b9050600073ffffffffffffffffffffffffffffffffffffffff168173ffffffffffffffffffffffffffffffffffffffff16036107db576040517f08c379a00000000000000000000000000000000000000000000000000000000081526004016107d290612d65565b60405180910390fd5b80915050919050565b60008073ffffffffffffffffffffffffffffffffffffffff168273ffffffffffffffffffffffffffffffffffffffff1603610854576040517f08c379a000000000000000000000000000000000000000000000000000000000815260040161084b90612df7565b60405180910390fd5b600360008373ffffffffffffffffffffffffffffffffffffffff1673ffffffffffffffffffffffffffffffffffffffff168152602001908152602001600020549050919050565b6108a361171e565b6108ad600061179c565b565b60096020528060005260406000206000915090508060000154908060010180546108d890612b32565b80601f016020809104026020016040519081016040528092919081815260200182805461090490612b32565b80156109515780601f1061092657610100808354040283529160200191610951565b820191906000526020600020905b81548152906001019060200180831161093457829003601f168201915b50505050509080600201805461096690612b32565b80601f016020809104026020016040519081016040528092919081815260200182805461099290612b32565b80156109df5780601f106109b4576101008083540402835291602001916109df565b820191906000526020600020905b8154815290600101906020018083116109c257829003601f168201915b5050505050908060030180546109f490612b32565b80601f0160208091040260200160405190810160405280929190818152602001828054610a2090612b32565b8015610a6d5780601f10610a4257610100808354040283529160200191610a6d565b820191906000526020600020905b815481529060010190602001808311610a5057829003601f168201915b5050505050908060040154908060050160009054906101000a900473ffffffffffffffffffffffffffffffffffffffff16905086565b610aab6121da565b600960008381526020019081526020016000206040518060c001604052908160008201548152602001600182018054610ae390612b32565b80601f0160208091040260200160405190810160405280929190818152602001828054610b0f90612b32565b8015610b5c5780601f10610b3157610100808354040283529160200191610b5c565b820191906000526020600020905b815481529060010190602001808311610b3f57829003601f168201915b50505050508152602001600282018054610b7590612b32565b80601f0160208091040260200160405190810160405280929190818152602001828054610ba190612b32565b8015610bee5780601f10610bc357610100808354040283529160200191610bee565b820191906000526020600020905b815481529060010190602001808311610bd157829003601f168201915b50505050508152602001600382018054610c0790612b32565b80601f0160208091040260200160405190810160405280929190818152602001828054610c3390612b32565b8015610c805780601f10610c5557610100808354040283529160200191610c80565b820191906000526020600020905b815481529060010190602001808311610c6357829003601f168201915b50505050508152602001600482015481526020016005820160009054906101000a900473ffffffffffffffffffffffffffffffffffffffff1673ffffffffffffffffffffffffffffffffffffffff1673ffffffffffffffffffffffffffffffffffffffff16815250509050919050565b6000600760009054906101000a900473ffffffffffffffffffffffffffffffffffffffff16905090565b606060018054610d2990612b32565b80601f0160208091040260200160405190810160405280929190818152602001828054610d5590612b32565b8015610da25780601f10610d7757610100808354040283529160200191610da2565b820191906000526020600020905b815481529060010190602001808311610d8557829003601f168201915b5050505050905090565b610db66008611862565b6000610dc26008611345565b9050610dce3382611878565b610dd88187611896565b6040518060c001604052808281526020018681526020018581526020018481526020018381526020013373ffffffffffffffffffffffffffffffffffffffff1681525060096000838152602001908152602001600020600082015181600001556020820151816001019081610e4d9190612fc3565b506040820151816002019081610e639190612fc3565b506060820151816003019081610e799190612fc3565b506080820151816004015560a08201518160050160006101000a81548173ffffffffffffffffffffffffffffffffffffffff021916908373ffffffffffffffffffffffffffffffffffffffff1602179055509050503373ffffffffffffffffffffffffffffffffffffffff167fc5c424bdfb680fa6482e374431f48f5f20bc8f088fcdc140415a5cb0c9e95c67828888888888604051610f1e96959493929190613095565b60405180910390a2505050505050565b610f40610f39611284565b8383611903565b5050565b610f55610f4f611284565b83611353565b610f94576040517f08c379a0000000000000000000000000000000000000000000000000000000008152600401610f8b90612cf9565b60405180910390fd5b610fa084848484611a6f565b50505050565b6060610fb182611239565b6000600660008481526020019081526020016000208054610fd190612b32565b80601f0160208091040260200160405190810160405280929190818152602001828054610ffd90612b32565b801561104a5780601f1061101f5761010080835404028352916020019161104a565b820191906000526020600020905b81548152906001019060200180831161102d57829003601f168201915b50505050509050600061105b611acb565b905060008151036110705781925050506110b3565b6000825111156110a557808260405160200161108d92919061314e565b604051602081830303815290604052925050506110b3565b6110ae84611ae2565b925050505b919050565b6000600560008473ffffffffffffffffffffffffffffffffffffffff1673ffffffffffffffffffffffffffffffffffffffff16815260200190815260200160002060008373ffffffffffffffffffffffffffffffffffffffff1673ffffffffffffffffffffffffffffffffffffffff16815260200190815260200160002060009054906101000a900460ff16905092915050565b61115461171e565b600073ffffffffffffffffffffffffffffffffffffffff168173ffffffffffffffffffffffffffffffffffffffff16036111c3576040517f08c379a00000000000000000000000000000000000000000000000000000000081526004016111ba906131e4565b60405180910390fd5b6111cc8161179c565b50565b60007f01ffc9a7000000000000000000000000000000000000000000000000000000007bffffffffffffffffffffffffffffffffffffffffffffffffffffffff1916827bffffffffffffffffffffffffffffffffffffffffffffffffffffffff1916149050919050565b61124281611b4a565b611281576040517f08c379a000000000000000000000000000000000000000000000000000000000815260040161127890612d65565b60405180910390fd5b50565b600033905090565b816004600083815260200190815260200160002060006101000a81548173ffffffffffffffffffffffffffffffffffffffff021916908373ffffffffffffffffffffffffffffffffffffffff160217905550808273ffffffffffffffffffffffffffffffffffffffff166112ff8361075e565b73ffffffffffffffffffffffffffffffffffffffff167f8c5be1e5ebec7d5bd14f71427d1e84f3dd0314c0f7b2291e5b200ac8c7c3b92560405160405180910390a45050565b600081600001549050919050565b60008061135f8361075e565b90508073ffffffffffffffffffffffffffffffffffffffff168473ffffffffffffffffffffffffffffffffffffffff1614806113a157506113a081856110b8565b5b806113df57508373ffffffffffffffffffffffffffffffffffffffff166113c784610570565b73ffffffffffffffffffffffffffffffffffffffff16145b91505092915050565b8273ffffffffffffffffffffffffffffffffffffffff166114088261075e565b73ffffffffffffffffffffffffffffffffffffffff161461145e576040517f08c379a000000000000000000000000000000000000000000000000000000000815260040161145590613276565b60405180910390fd5b600073ffffffffffffffffffffffffffffffffffffffff168273ffffffffffffffffffffffffffffffffffffffff16036114cd576040517f08c379a00000000000000000000000000000000000000000000000000000000081526004016114c490613308565b60405180910390fd5b6114da8383836001611b8b565b8273ffffffffffffffffffffffffffffffffffffffff166114fa8261075e565b73ffffffffffffffffffffffffffffffffffffffff1614611550576040517f08c379a000000000000000000000000000000000000000000000000000000000815260040161154790613276565b60405180910390fd5b6004600082815260200190815260200160002060006101000a81549073ffffffffffffffffffffffffffffffffffffffff02191690556001600360008573ffffffffffffffffffffffffffffffffffffffff1673ffffffffffffffffffffffffffffffffffffffff168152602001908152602001600020600082825403925050819055506001600360008473ffffffffffffffffffffffffffffffffffffffff1673ffffffffffffffffffffffffffffffffffffffff16815260200190815260200160002060008282540192505081905550816002600083815260200190815260200160002060006101000a81548173ffffffffffffffffffffffffffffffffffffffff021916908373ffffffffffffffffffffffffffffffffffffffff160217905550808273ffffffffffffffffffffffffffffffffffffffff168473ffffffffffffffffffffffffffffffffffffffff167fddf252ad1be2c89b69c2b068fc378daa952ba7f163c4a11628f55a4df523b3ef60405160405180910390a46116dc8383836001611b91565b505050565b60006002600083815260200190815260200160002060009054906101000a900473ffffffffffffffffffffffffffffffffffffffff169050919050565b611726611284565b73ffffffffffffffffffffffffffffffffffffffff16611744610cf0565b73ffffffffffffffffffffffffffffffffffffffff161461179a576040517f08c379a000000000000000000000000000000000000000000000000000000000815260040161179190613374565b60405180910390fd5b565b6000600760009054906101000a900473ffffffffffffffffffffffffffffffffffffffff16905081600760006101000a81548173ffffffffffffffffffffffffffffffffffffffff021916908373ffffffffffffffffffffffffffffffffffffffff1602179055508173ffffffffffffffffffffffffffffffffffffffff168173ffffffffffffffffffffffffffffffffffffffff167f8be0079c531659141344cd1fd0a4f28419497f9722a3daafe3b4186f6b6457e060405160405180910390a35050565b6001816000016000828254019250508190555050565b611892828260405180602001604052806000815250611b97565b5050565b61189f82611b4a565b6118de576040517f08c379a00000000000000000000000000000000000000000000000000000000081526004016118d590613406565b60405180910390fd5b806006600084815260200190815260200160002090816118fe9190612fc3565b505050565b8173ffffffffffffffffffffffffffffffffffffffff168373ffffffffffffffffffffffffffffffffffffffff1603611971576040517f08c379a000000000000000000000000000000000000000000000000000000000815260040161196890613472565b60405180910390fd5b80600560008573ffffffffffffffffffffffffffffffffffffffff1673ffffffffffffffffffffffffffffffffffffffff16815260200190815260200160002060008473ffffffffffffffffffffffffffffffffffffffff1673ffffffffffffffffffffffffffffffffffffffff16815260200190815260200160002060006101000a81548160ff0219169083151502179055508173ffffffffffffffffffffffffffffffffffffffff168373ffffffffffffffffffffffffffffffffffffffff167f17307eab39ab6107e8899845ad3d59bd9653f200f220920489ca2b5937696c3183604051611a6291906122da565b60405180910390a3505050565b611a7a8484846113e8565b611a8684848484611bf2565b611ac5576040517f08c379a0000000000000000000000000000000000000000000000000000000008152600401611abc90613504565b60405180910390fd5b50505050565b606060405180602001604052806000815250905090565b6060611aed82611239565b6000611af7611acb565b90506000815111611b175760405180602001604052806000815250611b42565b80611b2184611d79565b604051602001611b3292919061314e565b6040516020818303038152906040525b915050919050565b60008073ffffffffffffffffffffffffffffffffffffffff16611b6c836116e1565b73ffffffffffffffffffffffffffffffffffffffff1614159050919050565b50505050565b50505050565b611ba18383611e47565b611bae6000848484611bf2565b611bed576040517f08c379a0000000000000000000000000000000000000000000000000000000008152600401611be490613504565b60405180910390fd5b505050565b6000611c138473ffffffffffffffffffffffffffffffffffffffff16612064565b15611d6c578373ffffffffffffffffffffffffffffffffffffffff1663150b7a02611c3c611284565b8786866040518563ffffffff1660e01b8152600401611c5e9493929190613579565b6020604051808303816000875af1925050508015611c9a57506040513d601f19601f82011682018060405250810190611c9791906135da565b60015b611d1c573d8060008114611cca576040519150601f19603f3d011682016040523d82523d6000602084013e611ccf565b606091505b506000815103611d14576040517f08c379a0000000000000000000000000000000000000000000000000000000008152600401611d0b90613504565b60405180910390fd5b805181602001fd5b63150b7a0260e01b7bffffffffffffffffffffffffffffffffffffffffffffffffffffffff1916817bffffffffffffffffffffffffffffffffffffffffffffffffffffffff191614915050611d71565b600190505b949350505050565b606060006001611d8884612087565b01905060008167ffffffffffffffff811115611da757611da661271d565b5b6040519080825280601f01601f191660200182016040528015611dd95781602001600182028036833780820191505090505b509050600082602001820190505b600115611e3c578080600190039150507f3031323334353637383961626364656600000000000000000000000000000000600a86061a8153600a8581611e3057611e2f613607565b5b04945060008503611de7575b819350505050919050565b600073ffffffffffffffffffffffffffffffffffffffff168273ffffffffffffffffffffffffffffffffffffffff1603611eb6576040517f08c379a0000000000000000000000000000000000000000000000000000000008152600401611ead90613682565b60405180910390fd5b611ebf81611b4a565b15611eff576040517f08c379a0000000000000000000000000000000000000000000000000000000008152600401611ef6906136ee565b60405180910390fd5b611f0d600083836001611b8b565b611f1681611b4a565b15611f56576040517f08c379a0000000000000000000000000000000000000000000000000000000008152600401611f4d906136ee565b60405180910390fd5b6001600360008473ffffffffffffffffffffffffffffffffffffffff1673ffffffffffffffffffffffffffffffffffffffff16815260200190815260200160002060008282540192505081905550816002600083815260200190815260200160002060006101000a81548173ffffffffffffffffffffffffffffffffffffffff021916908373ffffffffffffffffffffffffffffffffffffffff160217905550808273ffffffffffffffffffffffffffffffffffffffff16600073ffffffffffffffffffffffffffffffffffffffff167fddf252ad1be2c89b69c2b068fc378daa952ba7f163c4a11628f55a4df523b3ef60405160405180910390a4612060600083836001611b91565b5050565b6000808273ffffffffffffffffffffffffffffffffffffffff163b119050919050565b600080600090507a184f03e93ff9f4daa797ed6e38ed64bf6a1f01000000000000000083106120e5577a184f03e93ff9f4daa797ed6e38ed64bf6a1f01000000000000000083816120db576120da613607565b5b0492506040810190505b6d04ee2d6d415b85acef81000000008310612122576d04ee2d6d415b85acef8100000000838161211857612117613607565b5b0492506020810190505b662386f26fc10000831061215157662386f26fc10000838161214757612146613607565b5b0492506010810190505b6305f5e100831061217a576305f5e10083816121705761216f613607565b5b0492506008810190505b612710831061219f57612710838161219557612194613607565b5b0492506004810190505b606483106121c257606483816121b8576121b7613607565b5b0492506002810190505b600a83106121d1576001810190505b80915050919050565b6040518060c001604052806000815260200160608152602001606081526020016060815260200160008152602001600073ffffffffffffffffffffffffffffffffffffffff1681525090565b6000604051905090565b600080fd5b600080fd5b60007fffffffff0000000000000000000000000000000000000000000000000000000082169050919050565b61226f8161223a565b811461227a57600080fd5b50565b60008135905061228c81612266565b92915050565b6000602082840312156122a8576122a7612230565b5b60006122b68482850161227d565b91505092915050565b60008115159050919050565b6122d4816122bf565b82525050565b60006020820190506122ef60008301846122cb565b92915050565b600081519050919050565b600082825260208201905092915050565b60005b8381101561232f578082015181840152602081019050612314565b60008484015250505050565b6000601f19601f8301169050919050565b6000612357826122f5565b6123618185612300565b9350612371818560208601612311565b61237a8161233b565b840191505092915050565b6000602082019050818103600083015261239f818461234c565b905092915050565b6000819050919050565b6123ba816123a7565b81146123c557600080fd5b50565b6000813590506123d7816123b1565b92915050565b6000602082840312156123f3576123f2612230565b5b6000612401848285016123c8565b91505092915050565b600073ffffffffffffffffffffffffffffffffffffffff82169050919050565b60006124358261240a565b9050919050565b6124458161242a565b82525050565b6000602082019050612460600083018461243c565b92915050565b61246f8161242a565b811461247a57600080fd5b50565b60008135905061248c81612466565b92915050565b600080604083850312156124a9576124a8612230565b5b60006124b78582860161247d565b92505060206124c8858286016123c8565b9150509250929050565b6124db816123a7565b82525050565b60006020820190506124f660008301846124d2565b92915050565b60008060006060848603121561251557612514612230565b5b60006125238682870161247d565b93505060206125348682870161247d565b9250506040612545868287016123c8565b9150509250925092565b60006020828403121561256557612564612230565b5b60006125738482850161247d565b91505092915050565b600060c08201905061259160008301896124d2565b81810360208301526125a3818861234c565b905081810360408301526125b7818761234c565b905081810360608301526125cb818661234c565b90506125da60808301856124d2565b6125e760a083018461243c565b979650505050505050565b6125fb816123a7565b82525050565b600082825260208201905092915050565b600061261d826122f5565b6126278185612601565b9350612637818560208601612311565b6126408161233b565b840191505092915050565b6126548161242a565b82525050565b600060c08301600083015161267260008601826125f2565b506020830151848203602086015261268a8282612612565b915050604083015184820360408601526126a48282612612565b915050606083015184820360608601526126be8282612612565b91505060808301516126d360808601826125f2565b5060a08301516126e660a086018261264b565b508091505092915050565b6000602082019050818103600083015261270b818461265a565b905092915050565b600080fd5b600080fd5b7f4e487b7100000000000000000000000000000000000000000000000000000000600052604160045260246000fd5b6127558261233b565b810181811067ffffffffffffffff821117156127745761277361271d565b5b80604052505050565b6000612787612226565b9050612793828261274c565b919050565b600067ffffffffffffffff8211156127b3576127b261271d565b5b6127bc8261233b565b9050602081019050919050565b82818337600083830152505050565b60006127eb6127e684612798565b61277d565b90508281526020810184848401111561280757612806612718565b5b6128128482856127c9565b509392505050565b600082601f83011261282f5761282e612713565b5b813561283f8482602086016127d8565b91505092915050565b600080600080600060a0868803121561286457612863612230565b5b600086013567ffffffffffffffff81111561288257612881612235565b5b61288e8882890161281a565b955050602086013567ffffffffffffffff8111156128af576128ae612235565b5b6128bb8882890161281a565b945050604086013567ffffffffffffffff8111156128dc576128db612235565b5b6128e88882890161281a565b935050606086013567ffffffffffffffff81111561290957612908612235565b5b6129158882890161281a565b9250506080612926888289016123c8565b9150509295509295909350565b61293c816122bf565b811461294757600080fd5b50565b60008135905061295981612933565b92915050565b6000806040838503121561297657612975612230565b5b60006129848582860161247d565b92505060206129958582860161294a565b9150509250929050565b600067ffffffffffffffff8211156129ba576129b961271d565b5b6129c38261233b565b9050602081019050919050565b60006129e36129de8461299f565b61277d565b9050828152602081018484840111156129ff576129fe612718565b5b612a0a8482856127c9565b509392505050565b600082601f830112612a2757612a26612713565b5b8135612a378482602086016129d0565b91505092915050565b60008060008060808587031215612a5a57612a59612230565b5b6000612a688782880161247d565b9450506020612a798782880161247d565b9350506040612a8a878288016123c8565b925050606085013567ffffffffffffffff811115612aab57612aaa612235565b5b612ab787828801612a12565b91505092959194509250565b60008060408385031215612ada57612ad9612230565b5b6000612ae88582860161247d565b9250506020612af98582860161247d565b9150509250929050565b7f4e487b7100000000000000000000000000000000000000000000000000000000600052602260045260246000fd5b60006002820490506001821680612b4a57607f821691505b602082108103612b5d57612b5c612b03565b5b50919050565b7f4552433732313a20617070726f76616c20746f2063757272656e74206f776e6560008201527f7200000000000000000000000000000000000000000000000000000000000000602082015250565b6000612bbf602183612300565b9150612bca82612b63565b604082019050919050565b60006020820190508181036000830152612bee81612bb2565b9050919050565b7f4552433732313a20617070726f76652063616c6c6572206973206e6f7420746f60008201527f6b656e206f776e6572206f7220617070726f76656420666f7220616c6c000000602082015250565b6000612c51603d83612300565b9150612c5c82612bf5565b604082019050919050565b60006020820190508181036000830152612c8081612c44565b9050919050565b7f4552433732313a2063616c6c6572206973206e6f7420746f6b656e206f776e6560008201527f72206f7220617070726f76656400000000000000000000000000000000000000602082015250565b6000612ce3602d83612300565b9150612cee82612c87565b604082019050919050565b60006020820190508181036000830152612d1281612cd6565b9050919050565b7f4552433732313a20696e76616c696420746f6b656e2049440000000000000000600082015250565b6000612d4f601883612300565b9150612d5a82612d19565b602082019050919050565b60006020820190508181036000830152612d7e81612d42565b9050919050565b7f4552433732313a2061646472657373207a65726f206973206e6f74206120766160008201527f6c6964206f776e65720000000000000000000000000000000000000000000000602082015250565b6000612de1602983612300565b9150612dec82612d85565b604082019050919050565b60006020820190508181036000830152612e1081612dd4565b9050919050565b60008190508160005260206000209050919050565b60006020601f8301049050919050565b600082821b905092915050565b600060088302612e797fffffffffffffffffffffffffffffffffffffffffffffffffffffffffffffffff82612e3c565b612e838683612e3c565b95508019841693508086168417925050509392505050565b6000819050919050565b6000612ec0612ebb612eb6846123a7565b612e9b565b6123a7565b9050919050565b6000819050919050565b612eda83612ea5565b612eee612ee682612ec7565b848454612e49565b825550505050565b600090565b612f03612ef6565b612f0e818484612ed1565b505050565b5b81811015612f3257612f27600082612efb565b600181019050612f14565b5050565b601f821115612f7757612f4881612e17565b612f5184612e2c565b81016020851015612f60578190505b612f74612f6c85612e2c565b830182612f13565b50505b505050565b600082821c905092915050565b6000612f9a60001984600802612f7c565b1980831691505092915050565b6000612fb38383612f89565b9150826002028217905092915050565b612fcc826122f5565b67ffffffffffffffff811115612fe557612fe461271d565b5b612fef8254612b32565b612ffa828285612f36565b600060209050601f83116001811461302d576000841561301b578287015190505b6130258582612fa7565b86555061308d565b601f19841661303b86612e17565b60005b828110156130635784890151825560018201915060208501945060208101905061303e565b86831015613080578489015161307c601f891682612f89565b8355505b6001600288020188555050505b505050505050565b600060c0820190506130aa60008301896124d2565b81810360208301526130bc818861234c565b905081810360408301526130d0818761234c565b905081810360608301526130e4818661234c565b905081810360808301526130f8818561234c565b905061310760a08301846124d2565b979650505050505050565b600081905092915050565b6000613128826122f5565b6131328185613112565b9350613142818560208601612311565b80840191505092915050565b600061315a828561311d565b9150613166828461311d565b91508190509392505050565b7f4f776e61626c653a206e6577206f776e657220697320746865207a65726f206160008201527f6464726573730000000000000000000000000000000000000000000000000000602082015250565b60006131ce602683612300565b91506131d982613172565b604082019050919050565b600060208201905081810360008301526131fd816131c1565b9050919050565b7f4552433732313a207472616e736665722066726f6d20696e636f72726563742060008201527f6f776e6572000000000000000000000000000000000000000000000000000000602082015250565b6000613260602583612300565b915061326b82613204565b604082019050919050565b6000602082019050818103600083015261328f81613253565b9050919050565b7f4552433732313a207472616e7366657220746f20746865207a65726f2061646460008201527f7265737300000000000000000000000000000000000000000000000000000000602082015250565b60006132f2602483612300565b91506132fd82613296565b604082019050919050565b60006020820190508181036000830152613321816132e5565b9050919050565b7f4f776e61626c653a2063616c6c6572206973206e6f7420746865206f776e6572600082015250565b600061335e602083612300565b915061336982613328565b602082019050919050565b6000602082019050818103600083015261338d81613351565b9050919050565b7f45524337323155524953746f726167653a2055524920736574206f66206e6f6e60008201527f6578697374656e7420746f6b656e000000000000000000000000000000000000602082015250565b60006133f0602e83612300565b91506133fb82613394565b604082019050919050565b6000602082019050818103600083015261341f816133e3565b9050919050565b7f4552433732313a20617070726f766520746f2063616c6c657200000000000000600082015250565b600061345c601983612300565b915061346782613426565b602082019050919050565b6000602082019050818103600083015261348b8161344f565b9050919050565b7f4552433732313a207472616e7366657220746f206e6f6e20455243373231526560008201527f63656976657220696d706c656d656e7465720000000000000000000000000000602082015250565b60006134ee603283612300565b91506134f982613492565b604082019050919050565b6000602082019050818103600083015261351d816134e1565b9050919050565b600081519050919050565b600082825260208201905092915050565b600061354b82613524565b613555818561352f565b9350613565818560208601612311565b61356e8161233b565b840191505092915050565b600060808201905061358e600083018761243c565b61359b602083018661243c565b6135a860408301856124d2565b81810360608301526135ba8184613540565b905095945050505050565b6000815190506135d481612266565b92915050565b6000602082840312156135f0576135ef612230565b5b60006135fe848285016135c5565b91505092915050565b7f4e487b7100000000000000000000000000000000000000000000000000000000600052601260045260246000fd5b7f4552433732313a206d696e7420746f20746865207a65726f2061646472657373600082015250565b600061366c602083612300565b915061367782613636565b602082019050919050565b6000602082019050818103600083015261369b8161365f565b9050919050565b7f4552433732313a20746f6b656e20616c7265616479206d696e74656400000000600082015250565b60006136d8601c83612300565b91506136e3826136a2565b602082019050919050565b60006020820190508181036000830152613707816136cb565b905091905056fea2646970667358221220456ec47eaf4d9910e50dd416697140f6dac9048989c2ebe247b3b9d6d7bad49264736f6c63430008130033",
  "linkReferences": {},
  "deployedLinkReferences": {}
}