{
  "_format": "hh-sol-artifact-1",
  "contractName": "NFTMarketplace",
  "sourceName": "contracts/NFTMarketplace.sol",
  "abi": [
    {
      "inputs": [],
      "stateMutability": "nonpayable",
      "type": "constructor"
    },
    {
      "anonymous": false,
      "inputs": [
        {
          "indexed": true,
          "internalType": "address",
          "name": "owner",
          "type": "address"
        },
        {
          "indexed": true,
          "internalType": "address",
          "name": "approved",
          "type": "address"
        },
        {
          "indexed": true,
          "internalType": "uint256",
          "name": "tokenId",
          "type": "uint256"
        }
      ],
      "name": "Approval",
      "type": "event"
    },
    {
      "anonymous": false,
      "inputs": [
        {
          "indexed": true,
          "internalType": "address",
          "name": "owner",
          "type": "address"
        },
        {
          "indexed": true,
          "internalType": "address",
          "name": "operator",
          "type": "address"
        },
        {
          "indexed": false,
          "internalType": "bool",
          "name": "approved",
          "type": "bool"
        }
      ],
      "name": "ApprovalForAll",
      "type": "event"
    },
    {
      "anonymous": false,
      "inputs": [
        {
          "indexed": true,
          "internalType": "uint256",
          "name": "tokenId",
          "type": "uint256"
        }
      ],
      "name": "AuctionCancelled",
      "type": "event"
    },
    {
      "anonymous": false,
      "inputs": [
        {
          "indexed": true,
          "internalType": "uint256",
          "name": "tokenId",
          "type": "uint256"
        },
        {
          "indexed": false,
          "internalType": "address",
          "name": "winner",
          "type": "address"
        },
        {
          "indexed": false,
          "internalType": "uint256",
          "name": "winningBid",
          "type": "uint256"
        }
      ],
      "name": "AuctionEnded",
      "type": "event"
    },
    {
      "anonymous": false,
      "inputs": [
        {
          "indexed": false,
          "internalType": "uint256",
          "name": "_fromTokenId",
          "type": "uint256"
        },
        {
          "indexed": false,
          "internalType": "uint256",
          "name": "_toTokenId",
          "type": "uint256"
        }
      ],
      "name": "BatchMetadataUpdate",
      "type": "event"
    },
    {
      "anonymous": false,
      "inputs": [
        {
          "indexed": true,
          "internalType": "uint256",
          "name": "tokenId",
          "type": "uint256"
        },
        {
          "indexed": false,
          "internalType": "address",
          "name": "bidder",
          "type": "address"
        },
        {
          "indexed": false,
          "internalType": "uint256",
          "name": "amount",
          "type": "uint256"
        }
      ],
      "name": "BidPlaced",
      "type": "event"
    },
    {
      "anonymous": false,
      "inputs": [
        {
          "indexed": false,
          "internalType": "uint256",
          "name": "_tokenId",
          "type": "uint256"
        }
      ],
      "name": "MetadataUpdate",
      "type": "event"
    },
    {
      "anonymous": false,
      "inputs": [
        {
          "indexed": true,
          "internalType": "uint256",
          "name": "tokenId",
          "type": "uint256"
        },
        {
          "indexed": false,
          "internalType": "uint256",
          "name": "price",
          "type": "uint256"
        }
      ],
      "name": "NFTListed",
      "type": "event"
    },
    {
      "anonymous": false,
      "inputs": [
        {
          "indexed": true,
          "internalType": "uint256",
          "name": "tokenId",
          "type": "uint256"
        },
        {
          "indexed": false,
          "internalType": "uint256",
          "name": "startingBid",
          "type": "uint256"
        },
        {
          "indexed": false,
          "internalType": "uint256",
          "name": "duration",
          "type": "uint256"
        }
      ],
      "name": "NFTListedForAuction",
      "type": "event"
    },
    {
      "anonymous": false,
      "inputs": [
        {
          "indexed": true,
          "internalType": "address",
          "name": "owner",
          "type": "address"
        },
        {
          "indexed": false,
          "internalType": "uint256",
          "name": "tokenId",
          "type": "uint256"
        },
        {
          "indexed": false,
          "internalType": "string",
          "name": "tokenURI",
          "type": "string"
        },
        {
          "indexed": false,
          "internalType": "string",
          "name": "title",
          "type": "string"
        },
        {
          "indexed": false,
          "internalType": "string",
          "name": "description",
          "type": "string"
        },
        {
          "indexed": false,
          "internalType": "string",
          "name": "category",
          "type": "string"
        },
        {
          "indexed": false,
          "internalType": "uint256",
          "name": "price",
          "type": "uint256"
        }
      ],
      "name": "NFTMinted",
      "type": "event"
    },
    {
      "anonymous": false,
      "inputs": [
        {
          "indexed": true,
          "internalType": "uint256",
          "name": "tokenId",
          "type": "uint256"
        },
        {
          "indexed": false,
          "internalType": "address",
          "name": "seller",
          "type": "address"
        },
        {
          "indexed": false,
          "internalType": "address",
          "name": "buyer",
          "type": "address"
        },
        {
          "indexed": false,
          "internalType": "uint256",
          "name": "price",
          "type": "uint256"
        }
      ],
      "name": "NFTSold",
      "type": "event"
    },
    {
      "anonymous": false,
      "inputs": [
        {
          "indexed": true,
          "internalType": "address",
          "name": "previousOwner",
          "type": "address"
        },
        {
          "indexed": true,
          "internalType": "address",
          "name": "newOwner",
          "type": "address"
        }
      ],
      "name": "OwnershipTransferred",
      "type": "event"
    },
    {
      "anonymous": false,
      "inputs": [
        {
          "indexed": true,
          "internalType": "address",
          "name": "from",
          "type": "address"
        },
        {
          "indexed": true,
          "internalType": "address",
          "name": "to",
          "type": "address"
        },
        {
          "indexed": true,
          "internalType": "uint256",
          "name": "tokenId",
          "type": "uint256"
        }
      ],
      "name": "Transfer",
      "type": "event"
    },
    {
      "inputs": [
        {
          "internalType": "address",
          "name": "to",
          "type": "address"
        },
        {
          "internalType": "uint256",
          "name": "tokenId",
          "type": "uint256"
        }
      ],
      "name": "approve",
      "outputs": [],
      "stateMutability": "nonpayable",
      "type": "function"
    },
    {
      "inputs": [
        {
          "internalType": "uint256",
          "name": "",
          "type": "uint256"
        }
      ],
      "name": "auctions",
      "outputs": [
        {
          "internalType": "address",
          "name": "seller",
          "type": "address"
        },
        {
          "internalType": "uint256",
          "name": "startingBid",
          "type": "uint256"
        },
        {
          "internalType": "uint256",
          "name": "endTime",
          "type": "uint256"
        },
        {
          "internalType": "address",
          "name": "highestBidder",
          "type": "address"
        },
        {
          "internalType": "uint256",
          "name": "highestBid",
          "type": "uint256"
        },
        {
          "internalType": "bool",
          "name": "ended",
          "type": "bool"
        }
      ],
      "stateMutability": "view",
      "type": "function"
    },
    {
      "inputs": [
        {
          "internalType": "address",
          "name": "owner",
          "type": "address"
        }
      ],
      "name": "balanceOf",
      "outputs": [
        {
          "internalType": "uint256",
          "name": "",
          "type": "uint256"
        }
      ],
      "stateMutability": "view",
      "type": "function"
    },
    {
      "inputs": [
        {
          "internalType": "uint256",
          "name": "tokenId",
          "type": "uint256"
        }
      ],
      "name": "bidOnNFT",
      "outputs": [],
      "stateMutability": "payable",
      "type": "function"
    },
    {
      "inputs": [
        {
          "internalType": "uint256",
          "name": "tokenId",
          "type": "uint256"
        }
      ],
      "name": "buyNFT",
      "outputs": [],
      "stateMutability": "payable",
      "type": "function"
    },
    {
      "inputs": [
        {
          "internalType": "uint256",
          "name": "tokenId",
          "type": "uint256"
        }
      ],
      "name": "cancelAuction",
      "outputs": [],
      "stateMutability": "nonpayable",
      "type": "function"
    },
    {
      "inputs": [
        {
          "internalType": "uint256",
          "name": "tokenId",
          "type": "uint256"
        }
      ],
      "name": "endAuction",
      "outputs": [],
      "stateMutability": "nonpayable",
      "type": "function"
    },
    {
      "inputs": [
        {
          "internalType": "uint256",
          "name": "tokenId",
          "type": "uint256"
        }
      ],
      "name": "getApproved",
      "outputs": [
        {
          "internalType": "address",
          "name": "",
          "type": "address"
        }
      ],
      "stateMutability": "view",
      "type": "function"
    },
    {
      "inputs": [],
      "name": "getTotalMintedNFTs",
      "outputs": [
        {
          "internalType": "uint256",
          "name": "",
          "type": "uint256"
        }
      ],
      "stateMutability": "view",
      "type": "function"
    },
    {
      "inputs": [
        {
          "internalType": "address",
          "name": "owner",
          "type": "address"
        },
        {
          "internalType": "address",
          "name": "operator",
          "type": "address"
        }
      ],
      "name": "isApprovedForAll",
      "outputs": [
        {
          "internalType": "bool",
          "name": "",
          "type": "bool"
        }
      ],
      "stateMutability": "view",
      "type": "function"
    },
    {
      "inputs": [
        {
          "internalType": "uint256",
          "name": "tokenId",
          "type": "uint256"
        },
        {
          "internalType": "uint256",
          "name": "startingBid",
          "type": "uint256"
        },
        {
          "internalType": "uint256",
          "name": "duration",
          "type": "uint256"
        }
      ],
      "name": "listNFTForAuction",
      "outputs": [],
      "stateMutability": "nonpayable",
      "type": "function"
    },
    {
      "inputs": [
        {
          "internalType": "uint256",
          "name": "tokenId",
          "type": "uint256"
        },
        {
          "internalType": "uint256",
          "name": "price",
          "type": "uint256"
        }
      ],
      "name": "listNFTForSale",
      "outputs": [],
      "stateMutability": "nonpayable",
      "type": "function"
    },
    {
      "inputs": [
        {
          "internalType": "string",
          "name": "tokenURI",
          "type": "string"
        },
        {
          "internalType": "string",
          "name": "title",
          "type": "string"
        },
        {
          "internalType": "string",
          "name": "description",
          "type": "string"
        },
        {
          "internalType": "string",
          "name": "category",
          "type": "string"
        },
        {
          "internalType": "uint256",
          "name": "price",
          "type": "uint256"
        }
      ],
      "name": "mintNFT",
      "outputs": [],
      "stateMutability": "nonpayable",
      "type": "function"
    },
    {
      "inputs": [],
      "name": "name",
      "outputs": [
        {
          "internalType": "string",
          "name": "",
          "type": "string"
        }
      ],
      "stateMutability": "view",
      "type": "function"
    },
    {
      "inputs": [
        {
          "internalType": "uint256",
          "name": "",
          "type": "uint256"
        }
      ],
      "name": "nftDetails",
      "outputs": [
        {
          "internalType": "uint256",
          "name": "tokenId",
          "type": "uint256"
        },
        {
          "internalType": "string",
          "name": "title",
          "type": "string"
        },
        {
          "internalType": "string",
          "name": "description",
          "type": "string"
        },
        {
          "internalType": "string",
          "name": "category",
          "type": "string"
        },
        {
          "internalType": "uint256",
          "name": "price",
          "type": "uint256"
        },
        {
          "internalType": "enum NFTMarketplace.SaleStatus",
          "name": "status",
          "type": "uint8"
        }
      ],
      "stateMutability": "view",
      "type": "function"
    },
    {
      "inputs": [
        {
          "internalType": "address",
          "name": "",
          "type": "address"
        },
        {
          "internalType": "address",
          "name": "",
          "type": "address"
        },
        {
          "internalType": "uint256",
          "name": "",
          "type": "uint256"
        },
        {
          "internalType": "bytes",
          "name": "",
          "type": "bytes"
        }
      ],
      "name": "onERC721Received",
      "outputs": [
        {
          "internalType": "bytes4",
          "name": "",
          "type": "bytes4"
        }
      ],
      "stateMutability": "nonpayable",
      "type": "function"
    },
    {
      "inputs": [],
      "name": "owner",
      "outputs": [
        {
          "internalType": "address",
          "name": "",
          "type": "address"
        }
      ],
      "stateMutability": "view",
      "type": "function"
    },
    {
      "inputs": [
        {
          "internalType": "uint256",
          "name": "tokenId",
          "type": "uint256"
        }
      ],
      "name": "ownerOf",
      "outputs": [
        {
          "internalType": "address",
          "name": "",
          "type": "address"
        }
      ],
      "stateMutability": "view",
      "type": "function"
    },
    {
      "inputs": [],
      "name": "renounceOwnership",
      "outputs": [],
      "stateMutability": "nonpayable",
      "type": "function"
    },
    {
      "inputs": [
        {
          "internalType": "address",
          "name": "from",
          "type": "address"
        },
        {
          "internalType": "address",
          "name": "to",
          "type": "address"
        },
        {
          "internalType": "uint256",
          "name": "tokenId",
          "type": "uint256"
        }
      ],
      "name": "safeTransferFrom",
      "outputs": [],
      "stateMutability": "nonpayable",
      "type": "function"
    },
    {
      "inputs": [
        {
          "internalType": "address",
          "name": "from",
          "type": "address"
        },
        {
          "internalType": "address",
          "name": "to",
          "type": "address"
        },
        {
          "internalType": "uint256",
          "name": "tokenId",
          "type": "uint256"
        },
        {
          "internalType": "bytes",
          "name": "data",
          "type": "bytes"
        }
      ],
      "name": "safeTransferFrom",
      "outputs": [],
      "stateMutability": "nonpayable",
      "type": "function"
    },
    {
      "inputs": [
        {
          "internalType": "address",
          "name": "operator",
          "type": "address"
        },
        {
          "internalType": "bool",
          "name": "approved",
          "type": "bool"
        }
      ],
      "name": "setApprovalForAll",
      "outputs": [],
      "stateMutability": "nonpayable",
      "type": "function"
    },
    {
      "inputs": [
        {
          "internalType": "bytes4",
          "name": "interfaceId",
          "type": "bytes4"
        }
      ],
      "name": "supportsInterface",
      "outputs": [
        {
          "internalType": "bool",
          "name": "",
          "type": "bool"
        }
      ],
      "stateMutability": "view",
      "type": "function"
    },
    {
      "inputs": [],
      "name": "symbol",
      "outputs": [
        {
          "internalType": "string",
          "name": "",
          "type": "string"
        }
      ],
      "stateMutability": "view",
      "type": "function"
    },
    {
      "inputs": [
        {
          "internalType": "uint256",
          "name": "tokenId",
          "type": "uint256"
        }
      ],
      "name": "tokenURI",
      "outputs": [
        {
          "internalType": "string",
          "name": "",
          "type": "string"
        }
      ],
      "stateMutability": "view",
      "type": "function"
    },
    {
      "inputs": [
        {
          "internalType": "address",
          "name": "from",
          "type": "address"
        },
        {
          "internalType": "address",
          "name": "to",
          "type": "address"
        },
        {
          "internalType": "uint256",
          "name": "tokenId",
          "type": "uint256"
        }
      ],
      "name": "transferFrom",
      "outputs": [],
      "stateMutability": "nonpayable",
      "type": "function"
    },
    {
      "inputs": [
        {
          "internalType": "address",
          "name": "newOwner",
          "type": "address"
        }
      ],
      "name": "transferOwnership",
      "outputs": [],
      "stateMutability": "nonpayable",
      "type": "function"
    }
  ],
  "bytecode": "0x60806040523480156200001157600080fd5b506040518060400160405280600e81526020017f4e46544d61726b6574706c6163650000000000000000000000000000000000008152506040518060400160405280600481526020017f4e46544d0000000000000000000000000000000000000000000000000000000081525081600090816200008f919062000412565b508060019081620000a1919062000412565b505050620000c4620000b8620000ca60201b60201c565b620000d260201b60201c565b620004f9565b600033905090565b6000600760009054906101000a900473ffffffffffffffffffffffffffffffffffffffff16905081600760006101000a81548173ffffffffffffffffffffffffffffffffffffffff021916908373ffffffffffffffffffffffffffffffffffffffff1602179055508173ffffffffffffffffffffffffffffffffffffffff168173ffffffffffffffffffffffffffffffffffffffff167f8be0079c531659141344cd1fd0a4f28419497f9722a3daafe3b4186f6b6457e060405160405180910390a35050565b600081519050919050565b7f4e487b7100000000000000000000000000000000000000000000000000000000600052604160045260246000fd5b7f4e487b7100000000000000000000000000000000000000000000000000000000600052602260045260246000fd5b600060028204905060018216806200021a57607f821691505b60208210810362000230576200022f620001d2565b5b50919050565b60008190508160005260206000209050919050565b60006020601f8301049050919050565b600082821b905092915050565b6000600883026200029a7fffffffffffffffffffffffffffffffffffffffffffffffffffffffffffffffff826200025b565b620002a686836200025b565b95508019841693508086168417925050509392505050565b6000819050919050565b6000819050919050565b6000620002f3620002ed620002e784620002be565b620002c8565b620002be565b9050919050565b6000819050919050565b6200030f83620002d2565b620003276200031e82620002fa565b84845462000268565b825550505050565b600090565b6200033e6200032f565b6200034b81848462000304565b505050565b5b8181101562000373576200036760008262000334565b60018101905062000351565b5050565b601f821115620003c2576200038c8162000236565b62000397846200024b565b81016020851015620003a7578190505b620003bf620003b6856200024b565b83018262000350565b50505b505050565b600082821c905092915050565b6000620003e760001984600802620003c7565b1980831691505092915050565b6000620004028383620003d4565b9150826002028217905092915050565b6200041d8262000198565b67ffffffffffffffff811115620004395762000438620001a3565b5b62000445825462000201565b6200045282828562000377565b600060209050601f8311600181146200048a576000841562000475578287015190505b620004818582620003f4565b865550620004f1565b601f1984166200049a8662000236565b60005b82811015620004c4578489015182556001820191506020850194506020810190506200049d565b86831015620004e45784890151620004e0601f891682620003d4565b8355505b6001600288020188555050505b505050505050565b614e2f80620005096000396000f3fe60806040526004361061019c5760003560e01c806370a08231116100ec578063a22cb4651161008a578063b9a2de3a11610064578063b9a2de3a146105c2578063c87b56dd146105eb578063e985e9c514610628578063f2fde38b146106655761019c565b8063a22cb46514610547578063b2733b3914610570578063b88d4fde146105995761019c565b80638da5cb5b116100c65780638da5cb5b1461049f57806395d89b41146104ca57806396b5a755146104f5578063a060e7e61461051e5761019c565b806370a0823114610409578063715018a6146104465780637d4cd8471461045d5761019c565b806327bf34101161015957806351ed82881161013357806351ed828814610343578063571a26a01461035f5780635a2e6504146103a15780636352211e146103cc5761019c565b806327bf3410146102d557806342842e0e146102f157806344f9fb271461031a5761019c565b806301ffc9a7146101a157806306fdde03146101de578063081812fc14610209578063095ea7b314610246578063150b7a021461026f57806323b872dd146102ac575b600080fd5b3480156101ad57600080fd5b506101c860048036038101906101c391906131e3565b61068e565b6040516101d5919061322b565b60405180910390f35b3480156101ea57600080fd5b506101f36106ef565b60405161020091906132d6565b60405180910390f35b34801561021557600080fd5b50610230600480360381019061022b919061332e565b610781565b60405161023d919061339c565b60405180910390f35b34801561025257600080fd5b5061026d600480360381019061026891906133e3565b6107c7565b005b34801561027b57600080fd5b5061029660048036038101906102919190613558565b6108de565b6040516102a391906135ea565b60405180910390f35b3480156102b857600080fd5b506102d360048036038101906102ce9190613605565b6108f2565b005b6102ef60048036038101906102ea919061332e565b610952565b005b3480156102fd57600080fd5b5061031860048036038101906103139190613605565b610ba0565b005b34801561032657600080fd5b50610341600480360381019061033c9190613658565b610bc0565b005b61035d6004803603810190610358919061332e565b610ed7565b005b34801561036b57600080fd5b506103866004803603810190610381919061332e565b61107a565b604051610398969594939291906136ba565b60405180910390f35b3480156103ad57600080fd5b506103b6611103565b6040516103c3919061371b565b60405180910390f35b3480156103d857600080fd5b506103f360048036038101906103ee919061332e565b611114565b604051610400919061339c565b60405180910390f35b34801561041557600080fd5b50610430600480360381019061042b9190613736565b61119a565b60405161043d919061371b565b60405180910390f35b34801561045257600080fd5b5061045b611251565b005b34801561046957600080fd5b50610484600480360381019061047f919061332e565b611265565b604051610496969594939291906137da565b60405180910390f35b3480156104ab57600080fd5b506104b4611446565b6040516104c1919061339c565b60405180910390f35b3480156104d657600080fd5b506104df611470565b6040516104ec91906132d6565b60405180910390f35b34801561050157600080fd5b5061051c6004803603810190610517919061332e565b611502565b005b34801561052a57600080fd5b50610545600480360381019061054091906138f1565b61174c565b005b34801561055357600080fd5b5061056e60048036038101906105699190613a08565b6118b4565b005b34801561057c57600080fd5b5061059760048036038101906105929190613a48565b6118ca565b005b3480156105a557600080fd5b506105c060048036038101906105bb9190613558565b611aa3565b005b3480156105ce57600080fd5b506105e960048036038101906105e4919061332e565b611b05565b005b3480156105f757600080fd5b50610612600480360381019061060d919061332e565b611e2a565b60405161061f91906132d6565b60405180910390f35b34801561063457600080fd5b5061064f600480360381019061064a9190613a88565b611f3c565b60405161065c919061322b565b60405180910390f35b34801561067157600080fd5b5061068c60048036038101906106879190613736565b611fd0565b005b6000634906490660e01b7bffffffffffffffffffffffffffffffffffffffffffffffffffffffff1916827bffffffffffffffffffffffffffffffffffffffffffffffffffffffff191614806106e857506106e782612053565b5b9050919050565b6060600080546106fe90613af7565b80601f016020809104026020016040519081016040528092919081815260200182805461072a90613af7565b80156107775780601f1061074c57610100808354040283529160200191610777565b820191906000526020600020905b81548152906001019060200180831161075a57829003601f168201915b5050505050905090565b600061078c82612135565b6004600083815260200190815260200160002060009054906101000a900473ffffffffffffffffffffffffffffffffffffffff169050919050565b60006107d282611114565b90508073ffffffffffffffffffffffffffffffffffffffff168373ffffffffffffffffffffffffffffffffffffffff1603610842576040517f08c379a000000000000000000000000000000000000000000000000000000000815260040161083990613b9a565b60405180910390fd5b8073ffffffffffffffffffffffffffffffffffffffff16610861612180565b73ffffffffffffffffffffffffffffffffffffffff161480610890575061088f8161088a612180565b611f3c565b5b6108cf576040517f08c379a00000000000000000000000000000000000000000000000000000000081526004016108c690613c2c565b60405180910390fd5b6108d98383612188565b505050565b600063150b7a0260e01b9050949350505050565b6109036108fd612180565b82612241565b610942576040517f08c379a000000000000000000000000000000000000000000000000000000000815260040161093990613cbe565b60405180910390fd5b61094d8383836122d6565b505050565b6000600a60008381526020019081526020016000209050806002015442106109af576040517f08c379a00000000000000000000000000000000000000000000000000000000081526004016109a690613d2a565b60405180910390fd5b6000816004015403610a07578060010154341015610a02576040517f08c379a00000000000000000000000000000000000000000000000000000000081526004016109f990613dbc565b60405180910390fd5b610a4e565b80600401543411610a4d576040517f08c379a0000000000000000000000000000000000000000000000000000000008152600401610a4490613e4e565b60405180910390fd5b5b600073ffffffffffffffffffffffffffffffffffffffff168160030160009054906101000a900473ffffffffffffffffffffffffffffffffffffffff1673ffffffffffffffffffffffffffffffffffffffff1614610b16578060030160009054906101000a900473ffffffffffffffffffffffffffffffffffffffff1673ffffffffffffffffffffffffffffffffffffffff166108fc82600401549081150290604051600060405180830381858888f19350505050158015610b14573d6000803e3d6000fd5b505b338160030160006101000a81548173ffffffffffffffffffffffffffffffffffffffff021916908373ffffffffffffffffffffffffffffffffffffffff160217905550348160040181905550817f0e54eff26401bf69b81b26f60bd85ef47f5d85275c1d268d84f68d6897431c473334604051610b94929190613e6e565b60405180910390a25050565b610bbb83838360405180602001604052806000815250611aa3565b505050565b3373ffffffffffffffffffffffffffffffffffffffff16610be084611114565b73ffffffffffffffffffffffffffffffffffffffff1614610c36576040517f08c379a0000000000000000000000000000000000000000000000000000000008152600401610c2d90613ee3565b60405180910390fd5b60006002811115610c4a57610c49613763565b5b6009600085815260200190815260200160002060050160009054906101000a900460ff166002811115610c8057610c7f613763565b5b14610cc0576040517f08c379a0000000000000000000000000000000000000000000000000000000008152600401610cb790613f75565b60405180910390fd5b60008111610d03576040517f08c379a0000000000000000000000000000000000000000000000000000000008152600401610cfa90614007565b60405180910390fd5b610d0e3330856108f2565b6040518060c001604052803373ffffffffffffffffffffffffffffffffffffffff1681526020018381526020018242610d479190614056565b8152602001600073ffffffffffffffffffffffffffffffffffffffff1681526020016000815260200160001515815250600a600085815260200190815260200160002060008201518160000160006101000a81548173ffffffffffffffffffffffffffffffffffffffff021916908373ffffffffffffffffffffffffffffffffffffffff160217905550602082015181600101556040820151816002015560608201518160030160006101000a81548173ffffffffffffffffffffffffffffffffffffffff021916908373ffffffffffffffffffffffffffffffffffffffff1602179055506080820151816004015560a08201518160050160006101000a81548160ff02191690831515021790555090505060026009600085815260200190815260200160002060050160006101000a81548160ff02191690836002811115610e9357610e92613763565b5b0217905550827fccfa7cc7f8f378214f532b94e2da6553eb70516757207c1762beca33cd946d6b8383604051610eca92919061408a565b60405180910390a2505050565b600060096000838152602001908152602001600020905060016002811115610f0257610f01613763565b5b8160050160009054906101000a900460ff166002811115610f2657610f25613763565b5b14610f66576040517f08c379a0000000000000000000000000000000000000000000000000000000008152600401610f5d90614125565b60405180910390fd5b8060040154341015610fad576040517f08c379a0000000000000000000000000000000000000000000000000000000008152600401610fa490614191565b60405180910390fd5b6000610fb883611114565b9050610fc58133856122d6565b8073ffffffffffffffffffffffffffffffffffffffff166108fc349081150290604051600060405180830381858888f1935050505015801561100b573d6000803e3d6000fd5b5060008260050160006101000a81548160ff0219169083600281111561103457611033613763565b5b0217905550827f8562eb94748e30bb0071e932744ce902b460c683474fcb3bfd567ffa16b1afb282333460405161106d939291906141b1565b60405180910390a2505050565b600a6020528060005260406000206000915090508060000160009054906101000a900473ffffffffffffffffffffffffffffffffffffffff16908060010154908060020154908060030160009054906101000a900473ffffffffffffffffffffffffffffffffffffffff16908060040154908060050160009054906101000a900460ff16905086565b600061110f60086125cf565b905090565b600080611120836125dd565b9050600073ffffffffffffffffffffffffffffffffffffffff168173ffffffffffffffffffffffffffffffffffffffff1603611191576040517f08c379a000000000000000000000000000000000000000000000000000000000815260040161118890614234565b60405180910390fd5b80915050919050565b60008073ffffffffffffffffffffffffffffffffffffffff168273ffffffffffffffffffffffffffffffffffffffff160361120a576040517f08c379a0000000000000000000000000000000000000000000000000000000008152600401611201906142c6565b60405180910390fd5b600360008373ffffffffffffffffffffffffffffffffffffffff1673ffffffffffffffffffffffffffffffffffffffff168152602001908152602001600020549050919050565b61125961261a565b6112636000612698565b565b600960205280600052604060002060009150905080600001549080600101805461128e90613af7565b80601f01602080910402602001604051908101604052809291908181526020018280546112ba90613af7565b80156113075780601f106112dc57610100808354040283529160200191611307565b820191906000526020600020905b8154815290600101906020018083116112ea57829003601f168201915b50505050509080600201805461131c90613af7565b80601f016020809104026020016040519081016040528092919081815260200182805461134890613af7565b80156113955780601f1061136a57610100808354040283529160200191611395565b820191906000526020600020905b81548152906001019060200180831161137857829003601f168201915b5050505050908060030180546113aa90613af7565b80601f01602080910402602001604051908101604052809291908181526020018280546113d690613af7565b80156114235780601f106113f857610100808354040283529160200191611423565b820191906000526020600020905b81548152906001019060200180831161140657829003601f168201915b5050505050908060040154908060050160009054906101000a900460ff16905086565b6000600760009054906101000a900473ffffffffffffffffffffffffffffffffffffffff16905090565b60606001805461147f90613af7565b80601f01602080910402602001604051908101604052809291908181526020018280546114ab90613af7565b80156114f85780601f106114cd576101008083540402835291602001916114f8565b820191906000526020600020905b8154815290600101906020018083116114db57829003601f168201915b5050505050905090565b6000600a600083815260200190815260200160002090508060000160009054906101000a900473ffffffffffffffffffffffffffffffffffffffff1673ffffffffffffffffffffffffffffffffffffffff163373ffffffffffffffffffffffffffffffffffffffff16146115ab576040517f08c379a00000000000000000000000000000000000000000000000000000000081526004016115a290614332565b60405180910390fd5b600073ffffffffffffffffffffffffffffffffffffffff168160030160009054906101000a900473ffffffffffffffffffffffffffffffffffffffff1673ffffffffffffffffffffffffffffffffffffffff161461163e576040517f08c379a00000000000000000000000000000000000000000000000000000000081526004016116359061439e565b60405180910390fd5b8060050160009054906101000a900460ff1615611690576040517f08c379a00000000000000000000000000000000000000000000000000000000081526004016116879061440a565b60405180910390fd5b60018160050160006101000a81548160ff0219169083151502179055506116dc308260000160009054906101000a900473ffffffffffffffffffffffffffffffffffffffff16846122d6565b60006009600084815260200190815260200160002060050160006101000a81548160ff0219169083600281111561171657611715613763565b5b0217905550817f2809c7e17bf978fbc7194c0a694b638c4215e9140cacc6c38ca36010b45697df60405160405180910390a25050565b611756600861275e565b600061176260086125cf565b905061176e3382612774565b6117788187612792565b6040518060c00160405280828152602001868152602001858152602001848152602001838152602001600060028111156117b5576117b4613763565b5b815250600960008381526020019081526020016000206000820151816000015560208201518160010190816117ea91906145d6565b50604082015181600201908161180091906145d6565b50606082015181600301908161181691906145d6565b506080820151816004015560a08201518160050160006101000a81548160ff0219169083600281111561184c5761184b613763565b5b02179055509050503373ffffffffffffffffffffffffffffffffffffffff167fc5c424bdfb680fa6482e374431f48f5f20bc8f088fcdc140415a5cb0c9e95c678288888888886040516118a4969594939291906146a8565b60405180910390a2505050505050565b6118c66118bf612180565b8383612836565b5050565b3373ffffffffffffffffffffffffffffffffffffffff166118ea83611114565b73ffffffffffffffffffffffffffffffffffffffff1614611940576040517f08c379a000000000000000000000000000000000000000000000000000000000815260040161193790613ee3565b60405180910390fd5b6000600281111561195457611953613763565b5b6009600084815260200190815260200160002060050160009054906101000a900460ff16600281111561198a57611989613763565b5b146119ca576040517f08c379a00000000000000000000000000000000000000000000000000000000081526004016119c190613f75565b60405180910390fd5b60008111611a0d576040517f08c379a0000000000000000000000000000000000000000000000000000000008152600401611a0490614771565b60405180910390fd5b80600960008481526020019081526020016000206004018190555060016009600084815260200190815260200160002060050160006101000a81548160ff02191690836002811115611a6257611a61613763565b5b0217905550817fa6cd73580a273eec6c1026108f6b63479fbaef5356dde4ff43e4b38dd187485f82604051611a97919061371b565b60405180910390a25050565b611ab4611aae612180565b83612241565b611af3576040517f08c379a0000000000000000000000000000000000000000000000000000000008152600401611aea90613cbe565b60405180910390fd5b611aff848484846129a2565b50505050565b6000600a600083815260200190815260200160002090508060020154421015611b63576040517f08c379a0000000000000000000000000000000000000000000000000000000008152600401611b5a906147dd565b60405180910390fd5b8060050160009054906101000a900460ff1615611bb5576040517f08c379a0000000000000000000000000000000000000000000000000000000008152600401611bac9061440a565b60405180910390fd5b60018160050160006101000a81548160ff021916908315150217905550600073ffffffffffffffffffffffffffffffffffffffff168160030160009054906101000a900473ffffffffffffffffffffffffffffffffffffffff1673ffffffffffffffffffffffffffffffffffffffff1614611d5557611c59308260030160009054906101000a900473ffffffffffffffffffffffffffffffffffffffff16846122d6565b8060000160009054906101000a900473ffffffffffffffffffffffffffffffffffffffff1673ffffffffffffffffffffffffffffffffffffffff166108fc82600401549081150290604051600060405180830381858888f19350505050158015611cc7573d6000803e3d6000fd5b50817f8562eb94748e30bb0071e932744ce902b460c683474fcb3bfd567ffa16b1afb28260000160009054906101000a900473ffffffffffffffffffffffffffffffffffffffff168360030160009054906101000a900473ffffffffffffffffffffffffffffffffffffffff168460040154604051611d48939291906141b1565b60405180910390a2611d85565b611d84308260000160009054906101000a900473ffffffffffffffffffffffffffffffffffffffff16846122d6565b5b60006009600084815260200190815260200160002060050160006101000a81548160ff02191690836002811115611dbf57611dbe613763565b5b0217905550817fd2aa34a4fdbbc6dff6a3e56f46e0f3ae2a31d7785ff3487aa5c95c642acea5018260030160009054906101000a900473ffffffffffffffffffffffffffffffffffffffff168360040154604051611e1e929190613e6e565b60405180910390a25050565b6060611e3582612135565b6000600660008481526020019081526020016000208054611e5590613af7565b80601f0160208091040260200160405190810160405280929190818152602001828054611e8190613af7565b8015611ece5780601f10611ea357610100808354040283529160200191611ece565b820191906000526020600020905b815481529060010190602001808311611eb157829003601f168201915b505050505090506000611edf6129fe565b90506000815103611ef4578192505050611f37565b600082511115611f29578082604051602001611f11929190614839565b60405160208183030381529060405292505050611f37565b611f3284612a15565b925050505b919050565b6000600560008473ffffffffffffffffffffffffffffffffffffffff1673ffffffffffffffffffffffffffffffffffffffff16815260200190815260200160002060008373ffffffffffffffffffffffffffffffffffffffff1673ffffffffffffffffffffffffffffffffffffffff16815260200190815260200160002060009054906101000a900460ff16905092915050565b611fd861261a565b600073ffffffffffffffffffffffffffffffffffffffff168173ffffffffffffffffffffffffffffffffffffffff1603612047576040517f08c379a000000000000000000000000000000000000000000000000000000000815260040161203e906148cf565b60405180910390fd5b61205081612698565b50565b60007f80ac58cd000000000000000000000000000000000000000000000000000000007bffffffffffffffffffffffffffffffffffffffffffffffffffffffff1916827bffffffffffffffffffffffffffffffffffffffffffffffffffffffff1916148061211e57507f5b5e139f000000000000000000000000000000000000000000000000000000007bffffffffffffffffffffffffffffffffffffffffffffffffffffffff1916827bffffffffffffffffffffffffffffffffffffffffffffffffffffffff1916145b8061212e575061212d82612a7d565b5b9050919050565b61213e81612ae7565b61217d576040517f08c379a000000000000000000000000000000000000000000000000000000000815260040161217490614234565b60405180910390fd5b50565b600033905090565b816004600083815260200190815260200160002060006101000a81548173ffffffffffffffffffffffffffffffffffffffff021916908373ffffffffffffffffffffffffffffffffffffffff160217905550808273ffffffffffffffffffffffffffffffffffffffff166121fb83611114565b73ffffffffffffffffffffffffffffffffffffffff167f8c5be1e5ebec7d5bd14f71427d1e84f3dd0314c0f7b2291e5b200ac8c7c3b92560405160405180910390a45050565b60008061224d83611114565b90508073ffffffffffffffffffffffffffffffffffffffff168473ffffffffffffffffffffffffffffffffffffffff16148061228f575061228e8185611f3c565b5b806122cd57508373ffffffffffffffffffffffffffffffffffffffff166122b584610781565b73ffffffffffffffffffffffffffffffffffffffff16145b91505092915050565b8273ffffffffffffffffffffffffffffffffffffffff166122f682611114565b73ffffffffffffffffffffffffffffffffffffffff161461234c576040517f08c379a000000000000000000000000000000000000000000000000000000000815260040161234390614961565b60405180910390fd5b600073ffffffffffffffffffffffffffffffffffffffff168273ffffffffffffffffffffffffffffffffffffffff16036123bb576040517f08c379a00000000000000000000000000000000000000000000000000000000081526004016123b2906149f3565b60405180910390fd5b6123c88383836001612b28565b8273ffffffffffffffffffffffffffffffffffffffff166123e882611114565b73ffffffffffffffffffffffffffffffffffffffff161461243e576040517f08c379a000000000000000000000000000000000000000000000000000000000815260040161243590614961565b60405180910390fd5b6004600082815260200190815260200160002060006101000a81549073ffffffffffffffffffffffffffffffffffffffff02191690556001600360008573ffffffffffffffffffffffffffffffffffffffff1673ffffffffffffffffffffffffffffffffffffffff168152602001908152602001600020600082825403925050819055506001600360008473ffffffffffffffffffffffffffffffffffffffff1673ffffffffffffffffffffffffffffffffffffffff16815260200190815260200160002060008282540192505081905550816002600083815260200190815260200160002060006101000a81548173ffffffffffffffffffffffffffffffffffffffff021916908373ffffffffffffffffffffffffffffffffffffffff160217905550808273ffffffffffffffffffffffffffffffffffffffff168473ffffffffffffffffffffffffffffffffffffffff167fddf252ad1be2c89b69c2b068fc378daa952ba7f163c4a11628f55a4df523b3ef60405160405180910390a46125ca8383836001612b2e565b505050565b600081600001549050919050565b60006002600083815260200190815260200160002060009054906101000a900473ffffffffffffffffffffffffffffffffffffffff169050919050565b612622612180565b73ffffffffffffffffffffffffffffffffffffffff16612640611446565b73ffffffffffffffffffffffffffffffffffffffff1614612696576040517f08c379a000000000000000000000000000000000000000000000000000000000815260040161268d90614a5f565b60405180910390fd5b565b6000600760009054906101000a900473ffffffffffffffffffffffffffffffffffffffff16905081600760006101000a81548173ffffffffffffffffffffffffffffffffffffffff021916908373ffffffffffffffffffffffffffffffffffffffff1602179055508173ffffffffffffffffffffffffffffffffffffffff168173ffffffffffffffffffffffffffffffffffffffff167f8be0079c531659141344cd1fd0a4f28419497f9722a3daafe3b4186f6b6457e060405160405180910390a35050565b6001816000016000828254019250508190555050565b61278e828260405180602001604052806000815250612b34565b5050565b61279b82612ae7565b6127da576040517f08c379a00000000000000000000000000000000000000000000000000000000081526004016127d190614af1565b60405180910390fd5b806006600084815260200190815260200160002090816127fa91906145d6565b507ff8e1a15aba9398e019f0b49df1a4fde98ee17ae345cb5f6b5e2c27f5033e8ce78260405161282a919061371b565b60405180910390a15050565b8173ffffffffffffffffffffffffffffffffffffffff168373ffffffffffffffffffffffffffffffffffffffff16036128a4576040517f08c379a000000000000000000000000000000000000000000000000000000000815260040161289b90614b5d565b60405180910390fd5b80600560008573ffffffffffffffffffffffffffffffffffffffff1673ffffffffffffffffffffffffffffffffffffffff16815260200190815260200160002060008473ffffffffffffffffffffffffffffffffffffffff1673ffffffffffffffffffffffffffffffffffffffff16815260200190815260200160002060006101000a81548160ff0219169083151502179055508173ffffffffffffffffffffffffffffffffffffffff168373ffffffffffffffffffffffffffffffffffffffff167f17307eab39ab6107e8899845ad3d59bd9653f200f220920489ca2b5937696c3183604051612995919061322b565b60405180910390a3505050565b6129ad8484846122d6565b6129b984848484612b8f565b6129f8576040517f08c379a00000000000000000000000000000000000000000000000000000000081526004016129ef90614bef565b60405180910390fd5b50505050565b606060405180602001604052806000815250905090565b6060612a2082612135565b6000612a2a6129fe565b90506000815111612a4a5760405180602001604052806000815250612a75565b80612a5484612d16565b604051602001612a65929190614839565b6040516020818303038152906040525b915050919050565b60007f01ffc9a7000000000000000000000000000000000000000000000000000000007bffffffffffffffffffffffffffffffffffffffffffffffffffffffff1916827bffffffffffffffffffffffffffffffffffffffffffffffffffffffff1916149050919050565b60008073ffffffffffffffffffffffffffffffffffffffff16612b09836125dd565b73ffffffffffffffffffffffffffffffffffffffff1614159050919050565b50505050565b50505050565b612b3e8383612de4565b612b4b6000848484612b8f565b612b8a576040517f08c379a0000000000000000000000000000000000000000000000000000000008152600401612b8190614bef565b60405180910390fd5b505050565b6000612bb08473ffffffffffffffffffffffffffffffffffffffff16613001565b15612d09578373ffffffffffffffffffffffffffffffffffffffff1663150b7a02612bd9612180565b8786866040518563ffffffff1660e01b8152600401612bfb9493929190614c64565b6020604051808303816000875af1925050508015612c3757506040513d601f19601f82011682018060405250810190612c349190614cc5565b60015b612cb9573d8060008114612c67576040519150601f19603f3d011682016040523d82523d6000602084013e612c6c565b606091505b506000815103612cb1576040517f08c379a0000000000000000000000000000000000000000000000000000000008152600401612ca890614bef565b60405180910390fd5b805181602001fd5b63150b7a0260e01b7bffffffffffffffffffffffffffffffffffffffffffffffffffffffff1916817bffffffffffffffffffffffffffffffffffffffffffffffffffffffff191614915050612d0e565b600190505b949350505050565b606060006001612d2584613024565b01905060008167ffffffffffffffff811115612d4457612d4361342d565b5b6040519080825280601f01601f191660200182016040528015612d765781602001600182028036833780820191505090505b509050600082602001820190505b600115612dd9578080600190039150507f3031323334353637383961626364656600000000000000000000000000000000600a86061a8153600a8581612dcd57612dcc614cf2565b5b04945060008503612d84575b819350505050919050565b600073ffffffffffffffffffffffffffffffffffffffff168273ffffffffffffffffffffffffffffffffffffffff1603612e53576040517f08c379a0000000000000000000000000000000000000000000000000000000008152600401612e4a90614d6d565b60405180910390fd5b612e5c81612ae7565b15612e9c576040517f08c379a0000000000000000000000000000000000000000000000000000000008152600401612e9390614dd9565b60405180910390fd5b612eaa600083836001612b28565b612eb381612ae7565b15612ef3576040517f08c379a0000000000000000000000000000000000000000000000000000000008152600401612eea90614dd9565b60405180910390fd5b6001600360008473ffffffffffffffffffffffffffffffffffffffff1673ffffffffffffffffffffffffffffffffffffffff16815260200190815260200160002060008282540192505081905550816002600083815260200190815260200160002060006101000a81548173ffffffffffffffffffffffffffffffffffffffff021916908373ffffffffffffffffffffffffffffffffffffffff160217905550808273ffffffffffffffffffffffffffffffffffffffff16600073ffffffffffffffffffffffffffffffffffffffff167fddf252ad1be2c89b69c2b068fc378daa952ba7f163c4a11628f55a4df523b3ef60405160405180910390a4612ffd600083836001612b2e565b5050565b6000808273ffffffffffffffffffffffffffffffffffffffff163b119050919050565b600080600090507a184f03e93ff9f4daa797ed6e38ed64bf6a1f0100000000000000008310613082577a184f03e93ff9f4daa797ed6e38ed64bf6a1f010000000000000000838161307857613077614cf2565b5b0492506040810190505b6d04ee2d6d415b85acef810000000083106130bf576d04ee2d6d415b85acef810000000083816130b5576130b4614cf2565b5b0492506020810190505b662386f26fc1000083106130ee57662386f26fc1000083816130e4576130e3614cf2565b5b0492506010810190505b6305f5e1008310613117576305f5e100838161310d5761310c614cf2565b5b0492506008810190505b612710831061313c57612710838161313257613131614cf2565b5b0492506004810190505b6064831061315f576064838161315557613154614cf2565b5b0492506002810190505b600a831061316e576001810190505b80915050919050565b6000604051905090565b600080fd5b600080fd5b60007fffffffff0000000000000000000000000000000000000000000000000000000082169050919050565b6131c08161318b565b81146131cb57600080fd5b50565b6000813590506131dd816131b7565b92915050565b6000602082840312156131f9576131f8613181565b5b6000613207848285016131ce565b91505092915050565b60008115159050919050565b61322581613210565b82525050565b6000602082019050613240600083018461321c565b92915050565b600081519050919050565b600082825260208201905092915050565b60005b83811015613280578082015181840152602081019050613265565b60008484015250505050565b6000601f19601f8301169050919050565b60006132a882613246565b6132b28185613251565b93506132c2818560208601613262565b6132cb8161328c565b840191505092915050565b600060208201905081810360008301526132f0818461329d565b905092915050565b6000819050919050565b61330b816132f8565b811461331657600080fd5b50565b60008135905061332881613302565b92915050565b60006020828403121561334457613343613181565b5b600061335284828501613319565b91505092915050565b600073ffffffffffffffffffffffffffffffffffffffff82169050919050565b60006133868261335b565b9050919050565b6133968161337b565b82525050565b60006020820190506133b1600083018461338d565b92915050565b6133c08161337b565b81146133cb57600080fd5b50565b6000813590506133dd816133b7565b92915050565b600080604083850312156133fa576133f9613181565b5b6000613408858286016133ce565b925050602061341985828601613319565b9150509250929050565b600080fd5b600080fd5b7f4e487b7100000000000000000000000000000000000000000000000000000000600052604160045260246000fd5b6134658261328c565b810181811067ffffffffffffffff821117156134845761348361342d565b5b80604052505050565b6000613497613177565b90506134a3828261345c565b919050565b600067ffffffffffffffff8211156134c3576134c261342d565b5b6134cc8261328c565b9050602081019050919050565b82818337600083830152505050565b60006134fb6134f6846134a8565b61348d565b90508281526020810184848401111561351757613516613428565b5b6135228482856134d9565b509392505050565b600082601f83011261353f5761353e613423565b5b813561354f8482602086016134e8565b91505092915050565b6000806000806080858703121561357257613571613181565b5b6000613580878288016133ce565b9450506020613591878288016133ce565b93505060406135a287828801613319565b925050606085013567ffffffffffffffff8111156135c3576135c2613186565b5b6135cf8782880161352a565b91505092959194509250565b6135e48161318b565b82525050565b60006020820190506135ff60008301846135db565b92915050565b60008060006060848603121561361e5761361d613181565b5b600061362c868287016133ce565b935050602061363d868287016133ce565b925050604061364e86828701613319565b9150509250925092565b60008060006060848603121561367157613670613181565b5b600061367f86828701613319565b935050602061369086828701613319565b92505060406136a186828701613319565b9150509250925092565b6136b4816132f8565b82525050565b600060c0820190506136cf600083018961338d565b6136dc60208301886136ab565b6136e960408301876136ab565b6136f6606083018661338d565b61370360808301856136ab565b61371060a083018461321c565b979650505050505050565b600060208201905061373060008301846136ab565b92915050565b60006020828403121561374c5761374b613181565b5b600061375a848285016133ce565b91505092915050565b7f4e487b7100000000000000000000000000000000000000000000000000000000600052602160045260246000fd5b600381106137a3576137a2613763565b5b50565b60008190506137b482613792565b919050565b60006137c4826137a6565b9050919050565b6137d4816137b9565b82525050565b600060c0820190506137ef60008301896136ab565b8181036020830152613801818861329d565b90508181036040830152613815818761329d565b90508181036060830152613829818661329d565b905061383860808301856136ab565b61384560a08301846137cb565b979650505050505050565b600067ffffffffffffffff82111561386b5761386a61342d565b5b6138748261328c565b9050602081019050919050565b600061389461388f84613850565b61348d565b9050828152602081018484840111156138b0576138af613428565b5b6138bb8482856134d9565b509392505050565b600082601f8301126138d8576138d7613423565b5b81356138e8848260208601613881565b91505092915050565b600080600080600060a0868803121561390d5761390c613181565b5b600086013567ffffffffffffffff81111561392b5761392a613186565b5b613937888289016138c3565b955050602086013567ffffffffffffffff81111561395857613957613186565b5b613964888289016138c3565b945050604086013567ffffffffffffffff81111561398557613984613186565b5b613991888289016138c3565b935050606086013567ffffffffffffffff8111156139b2576139b1613186565b5b6139be888289016138c3565b92505060806139cf88828901613319565b9150509295509295909350565b6139e581613210565b81146139f057600080fd5b50565b600081359050613a02816139dc565b92915050565b60008060408385031215613a1f57613a1e613181565b5b6000613a2d858286016133ce565b9250506020613a3e858286016139f3565b9150509250929050565b60008060408385031215613a5f57613a5e613181565b5b6000613a6d85828601613319565b9250506020613a7e85828601613319565b9150509250929050565b60008060408385031215613a9f57613a9e613181565b5b6000613aad858286016133ce565b9250506020613abe858286016133ce565b9150509250929050565b7f4e487b7100000000000000000000000000000000000000000000000000000000600052602260045260246000fd5b60006002820490506001821680613b0f57607f821691505b602082108103613b2257613b21613ac8565b5b50919050565b7f4552433732313a20617070726f76616c20746f2063757272656e74206f776e6560008201527f7200000000000000000000000000000000000000000000000000000000000000602082015250565b6000613b84602183613251565b9150613b8f82613b28565b604082019050919050565b60006020820190508181036000830152613bb381613b77565b9050919050565b7f4552433732313a20617070726f76652063616c6c6572206973206e6f7420746f60008201527f6b656e206f776e6572206f7220617070726f76656420666f7220616c6c000000602082015250565b6000613c16603d83613251565b9150613c2182613bba565b604082019050919050565b60006020820190508181036000830152613c4581613c09565b9050919050565b7f4552433732313a2063616c6c6572206973206e6f7420746f6b656e206f776e6560008201527f72206f7220617070726f76656400000000000000000000000000000000000000602082015250565b6000613ca8602d83613251565b9150613cb382613c4c565b604082019050919050565b60006020820190508181036000830152613cd781613c9b565b9050919050565b7f41756374696f6e2068617320656e646564000000000000000000000000000000600082015250565b6000613d14601183613251565b9150613d1f82613cde565b602082019050919050565b60006020820190508181036000830152613d4381613d07565b9050919050565b7f426964206d757374206265206174206c6561737420746865207374617274696e60008201527f6720626964000000000000000000000000000000000000000000000000000000602082015250565b6000613da6602583613251565b9150613db182613d4a565b604082019050919050565b60006020820190508181036000830152613dd581613d99565b9050919050565b7f426964206d757374206578636565642063757272656e7420686967686573742060008201527f6269640000000000000000000000000000000000000000000000000000000000602082015250565b6000613e38602383613251565b9150613e4382613ddc565b604082019050919050565b60006020820190508181036000830152613e6781613e2b565b9050919050565b6000604082019050613e83600083018561338d565b613e9060208301846136ab565b9392505050565b7f596f7520646f206e6f74206f776e2074686973204e4654000000000000000000600082015250565b6000613ecd601783613251565b9150613ed882613e97565b602082019050919050565b60006020820190508181036000830152613efc81613ec0565b9050919050565b7f4e465420697320616c7265616479206c6973746564206f7220696e206175637460008201527f696f6e0000000000000000000000000000000000000000000000000000000000602082015250565b6000613f5f602383613251565b9150613f6a82613f03565b604082019050919050565b60006020820190508181036000830152613f8e81613f52565b9050919050565b7f4475726174696f6e206d7573742062652067726561746572207468616e207a6560008201527f726f000000000000000000000000000000000000000000000000000000000000602082015250565b6000613ff1602283613251565b9150613ffc82613f95565b604082019050919050565b6000602082019050818103600083015261402081613fe4565b9050919050565b7f4e487b7100000000000000000000000000000000000000000000000000000000600052601160045260246000fd5b6000614061826132f8565b915061406c836132f8565b925082820190508082111561408457614083614027565b5b92915050565b600060408201905061409f60008301856136ab565b6140ac60208301846136ab565b9392505050565b7f4e4654206973206e6f7420666f722073616c652061742061206669786564207060008201527f7269636500000000000000000000000000000000000000000000000000000000602082015250565b600061410f602483613251565b915061411a826140b3565b604082019050919050565b6000602082019050818103600083015261413e81614102565b9050919050565b7f4e6f7420656e6f75676820457468657220746f20627579204e46540000000000600082015250565b600061417b601b83613251565b915061418682614145565b602082019050919050565b600060208201905081810360008301526141aa8161416e565b9050919050565b60006060820190506141c6600083018661338d565b6141d3602083018561338d565b6141e060408301846136ab565b949350505050565b7f4552433732313a20696e76616c696420746f6b656e2049440000000000000000600082015250565b600061421e601883613251565b9150614229826141e8565b602082019050919050565b6000602082019050818103600083015261424d81614211565b9050919050565b7f4552433732313a2061646472657373207a65726f206973206e6f74206120766160008201527f6c6964206f776e65720000000000000000000000000000000000000000000000602082015250565b60006142b0602983613251565b91506142bb82614254565b604082019050919050565b600060208201905081810360008301526142df816142a3565b9050919050565b7f4f6e6c79207468652073656c6c65722063616e2063616e63656c000000000000600082015250565b600061431c601a83613251565b9150614327826142e6565b602082019050919050565b6000602082019050818103600083015261434b8161430f565b9050919050565b7f43616e6e6f742063616e63656c20776974682062696473000000000000000000600082015250565b6000614388601783613251565b915061439382614352565b602082019050919050565b600060208201905081810360008301526143b78161437b565b9050919050565b7f41756374696f6e20616c726561647920656e6465640000000000000000000000600082015250565b60006143f4601583613251565b91506143ff826143be565b602082019050919050565b60006020820190508181036000830152614423816143e7565b9050919050565b60008190508160005260206000209050919050565b60006020601f8301049050919050565b600082821b905092915050565b60006008830261448c7fffffffffffffffffffffffffffffffffffffffffffffffffffffffffffffffff8261444f565b614496868361444f565b95508019841693508086168417925050509392505050565b6000819050919050565b60006144d36144ce6144c9846132f8565b6144ae565b6132f8565b9050919050565b6000819050919050565b6144ed836144b8565b6145016144f9826144da565b84845461445c565b825550505050565b600090565b614516614509565b6145218184846144e4565b505050565b5b818110156145455761453a60008261450e565b600181019050614527565b5050565b601f82111561458a5761455b8161442a565b6145648461443f565b81016020851015614573578190505b61458761457f8561443f565b830182614526565b50505b505050565b600082821c905092915050565b60006145ad6000198460080261458f565b1980831691505092915050565b60006145c6838361459c565b9150826002028217905092915050565b6145df82613246565b67ffffffffffffffff8111156145f8576145f761342d565b5b6146028254613af7565b61460d828285614549565b600060209050601f831160018114614640576000841561462e578287015190505b61463885826145ba565b8655506146a0565b601f19841661464e8661442a565b60005b8281101561467657848901518255600182019150602085019450602081019050614651565b86831015614693578489015161468f601f89168261459c565b8355505b6001600288020188555050505b505050505050565b600060c0820190506146bd60008301896136ab565b81810360208301526146cf818861329d565b905081810360408301526146e3818761329d565b905081810360608301526146f7818661329d565b9050818103608083015261470b818561329d565b905061471a60a08301846136ab565b979650505050505050565b7f5072696365206d7573742062652067726561746572207468616e207a65726f00600082015250565b600061475b601f83613251565b915061476682614725565b602082019050919050565b6000602082019050818103600083015261478a8161474e565b9050919050565b7f41756374696f6e20686173206e6f7420656e6465642079657400000000000000600082015250565b60006147c7601983613251565b91506147d282614791565b602082019050919050565b600060208201905081810360008301526147f6816147ba565b9050919050565b600081905092915050565b600061481382613246565b61481d81856147fd565b935061482d818560208601613262565b80840191505092915050565b60006148458285614808565b91506148518284614808565b91508190509392505050565b7f4f776e61626c653a206e6577206f776e657220697320746865207a65726f206160008201527f6464726573730000000000000000000000000000000000000000000000000000602082015250565b60006148b9602683613251565b91506148c48261485d565b604082019050919050565b600060208201905081810360008301526148e8816148ac565b9050919050565b7f4552433732313a207472616e736665722066726f6d20696e636f72726563742060008201527f6f776e6572000000000000000000000000000000000000000000000000000000602082015250565b600061494b602583613251565b9150614956826148ef565b604082019050919050565b6000602082019050818103600083015261497a8161493e565b9050919050565b7f4552433732313a207472616e7366657220746f20746865207a65726f2061646460008201527f7265737300000000000000000000000000000000000000000000000000000000602082015250565b60006149dd602483613251565b91506149e882614981565b604082019050919050565b60006020820190508181036000830152614a0c816149d0565b9050919050565b7f4f776e61626c653a2063616c6c6572206973206e6f7420746865206f776e6572600082015250565b6000614a49602083613251565b9150614a5482614a13565b602082019050919050565b60006020820190508181036000830152614a7881614a3c565b9050919050565b7f45524337323155524953746f726167653a2055524920736574206f66206e6f6e60008201527f6578697374656e7420746f6b656e000000000000000000000000000000000000602082015250565b6000614adb602e83613251565b9150614ae682614a7f565b604082019050919050565b60006020820190508181036000830152614b0a81614ace565b9050919050565b7f4552433732313a20617070726f766520746f2063616c6c657200000000000000600082015250565b6000614b47601983613251565b9150614b5282614b11565b602082019050919050565b60006020820190508181036000830152614b7681614b3a565b9050919050565b7f4552433732313a207472616e7366657220746f206e6f6e20455243373231526560008201527f63656976657220696d706c656d656e7465720000000000000000000000000000602082015250565b6000614bd9603283613251565b9150614be482614b7d565b604082019050919050565b60006020820190508181036000830152614c0881614bcc565b9050919050565b600081519050919050565b600082825260208201905092915050565b6000614c3682614c0f565b614c408185614c1a565b9350614c50818560208601613262565b614c598161328c565b840191505092915050565b6000608082019050614c79600083018761338d565b614c86602083018661338d565b614c9360408301856136ab565b8181036060830152614ca58184614c2b565b905095945050505050565b600081519050614cbf816131b7565b92915050565b600060208284031215614cdb57614cda613181565b5b6000614ce984828501614cb0565b91505092915050565b7f4e487b7100000000000000000000000000000000000000000000000000000000600052601260045260246000fd5b7f4552433732313a206d696e7420746f20746865207a65726f2061646472657373600082015250565b6000614d57602083613251565b9150614d6282614d21565b602082019050919050565b60006020820190508181036000830152614d8681614d4a565b9050919050565b7f4552433732313a20746f6b656e20616c7265616479206d696e74656400000000600082015250565b6000614dc3601c83613251565b9150614dce82614d8d565b602082019050919050565b60006020820190508181036000830152614df281614db6565b905091905056fea26469706673582212205f84b1790cc737cab36aa30e287b018ebad9311f0ec26a5a3873c05396cc93f564736f6c63430008130033",
  "linkReferences": {},
  "deployedLinkReferences": {}
}