{
  "_format": "hh-sol-artifact-1",
  "contractName": "NFTMarketplace",
  "sourceName": "contracts/NFTMarketplace.sol",
  "abi": [
    {
      "inputs": [],
      "stateMutability": "nonpayable",
      "type": "constructor"
    },
    {
      "anonymous": false,
      "inputs": [
        {
          "indexed": true,
          "internalType": "address",
          "name": "owner",
          "type": "address"
        },
        {
          "indexed": true,
          "internalType": "address",
          "name": "approved",
          "type": "address"
        },
        {
          "indexed": true,
          "internalType": "uint256",
          "name": "tokenId",
          "type": "uint256"
        }
      ],
      "name": "Approval",
      "type": "event"
    },
    {
      "anonymous": false,
      "inputs": [
        {
          "indexed": true,
          "internalType": "address",
          "name": "owner",
          "type": "address"
        },
        {
          "indexed": true,
          "internalType": "address",
          "name": "operator",
          "type": "address"
        },
        {
          "indexed": false,
          "internalType": "bool",
          "name": "approved",
          "type": "bool"
        }
      ],
      "name": "ApprovalForAll",
      "type": "event"
    },
    {
      "anonymous": false,
      "inputs": [
        {
          "indexed": true,
          "internalType": "uint256",
          "name": "tokenId",
          "type": "uint256"
        },
        {
          "indexed": false,
          "internalType": "uint256",
          "name": "price",
          "type": "uint256"
        }
      ],
      "name": "NFTListed",
      "type": "event"
    },
    {
      "anonymous": false,
      "inputs": [
        {
          "indexed": true,
          "internalType": "address",
          "name": "owner",
          "type": "address"
        },
        {
          "indexed": false,
          "internalType": "uint256",
          "name": "tokenId",
          "type": "uint256"
        },
        {
          "indexed": false,
          "internalType": "string",
          "name": "tokenURI",
          "type": "string"
        },
        {
          "indexed": false,
          "internalType": "string",
          "name": "title",
          "type": "string"
        },
        {
          "indexed": false,
          "internalType": "string",
          "name": "description",
          "type": "string"
        },
        {
          "indexed": false,
          "internalType": "string",
          "name": "category",
          "type": "string"
        },
        {
          "indexed": false,
          "internalType": "uint256",
          "name": "price",
          "type": "uint256"
        }
      ],
      "name": "NFTMinted",
      "type": "event"
    },
    {
      "anonymous": false,
      "inputs": [
        {
          "indexed": true,
          "internalType": "uint256",
          "name": "tokenId",
          "type": "uint256"
        },
        {
          "indexed": false,
          "internalType": "address",
          "name": "seller",
          "type": "address"
        },
        {
          "indexed": false,
          "internalType": "address",
          "name": "buyer",
          "type": "address"
        },
        {
          "indexed": false,
          "internalType": "uint256",
          "name": "price",
          "type": "uint256"
        }
      ],
      "name": "NFTSold",
      "type": "event"
    },
    {
      "anonymous": false,
      "inputs": [
        {
          "indexed": true,
          "internalType": "address",
          "name": "previousOwner",
          "type": "address"
        },
        {
          "indexed": true,
          "internalType": "address",
          "name": "newOwner",
          "type": "address"
        }
      ],
      "name": "OwnershipTransferred",
      "type": "event"
    },
    {
      "anonymous": false,
      "inputs": [
        {
          "indexed": true,
          "internalType": "address",
          "name": "from",
          "type": "address"
        },
        {
          "indexed": true,
          "internalType": "address",
          "name": "to",
          "type": "address"
        },
        {
          "indexed": true,
          "internalType": "uint256",
          "name": "tokenId",
          "type": "uint256"
        }
      ],
      "name": "Transfer",
      "type": "event"
    },
    {
      "inputs": [
        {
          "internalType": "address",
          "name": "to",
          "type": "address"
        },
        {
          "internalType": "uint256",
          "name": "tokenId",
          "type": "uint256"
        }
      ],
      "name": "approve",
      "outputs": [],
      "stateMutability": "nonpayable",
      "type": "function"
    },
    {
      "inputs": [
        {
          "internalType": "address",
          "name": "owner",
          "type": "address"
        }
      ],
      "name": "balanceOf",
      "outputs": [
        {
          "internalType": "uint256",
          "name": "",
          "type": "uint256"
        }
      ],
      "stateMutability": "view",
      "type": "function"
    },
    {
      "inputs": [
        {
          "internalType": "uint256",
          "name": "tokenId",
          "type": "uint256"
        }
      ],
      "name": "buyNFT",
      "outputs": [],
      "stateMutability": "payable",
      "type": "function"
    },
    {
      "inputs": [
        {
          "internalType": "uint256",
          "name": "tokenId",
          "type": "uint256"
        }
      ],
      "name": "getApproved",
      "outputs": [
        {
          "internalType": "address",
          "name": "",
          "type": "address"
        }
      ],
      "stateMutability": "view",
      "type": "function"
    },
    {
      "inputs": [],
      "name": "getTotalMintedNFTs",
      "outputs": [
        {
          "internalType": "uint256",
          "name": "",
          "type": "uint256"
        }
      ],
      "stateMutability": "view",
      "type": "function"
    },
    {
      "inputs": [
        {
          "internalType": "address",
          "name": "owner",
          "type": "address"
        },
        {
          "internalType": "address",
          "name": "operator",
          "type": "address"
        }
      ],
      "name": "isApprovedForAll",
      "outputs": [
        {
          "internalType": "bool",
          "name": "",
          "type": "bool"
        }
      ],
      "stateMutability": "view",
      "type": "function"
    },
    {
      "inputs": [
        {
          "internalType": "uint256",
          "name": "tokenId",
          "type": "uint256"
        },
        {
          "internalType": "uint256",
          "name": "price",
          "type": "uint256"
        }
      ],
      "name": "listNFTForSale",
      "outputs": [],
      "stateMutability": "nonpayable",
      "type": "function"
    },
    {
      "inputs": [
        {
          "internalType": "string",
          "name": "tokenURI",
          "type": "string"
        },
        {
          "internalType": "string",
          "name": "title",
          "type": "string"
        },
        {
          "internalType": "string",
          "name": "description",
          "type": "string"
        },
        {
          "internalType": "string",
          "name": "category",
          "type": "string"
        },
        {
          "internalType": "uint256",
          "name": "price",
          "type": "uint256"
        }
      ],
      "name": "mintNFT",
      "outputs": [],
      "stateMutability": "nonpayable",
      "type": "function"
    },
    {
      "inputs": [],
      "name": "name",
      "outputs": [
        {
          "internalType": "string",
          "name": "",
          "type": "string"
        }
      ],
      "stateMutability": "view",
      "type": "function"
    },
    {
      "inputs": [
        {
          "internalType": "uint256",
          "name": "",
          "type": "uint256"
        }
      ],
      "name": "nftDetails",
      "outputs": [
        {
          "internalType": "uint256",
          "name": "tokenId",
          "type": "uint256"
        },
        {
          "internalType": "string",
          "name": "title",
          "type": "string"
        },
        {
          "internalType": "string",
          "name": "description",
          "type": "string"
        },
        {
          "internalType": "string",
          "name": "category",
          "type": "string"
        },
        {
          "internalType": "uint256",
          "name": "price",
          "type": "uint256"
        },
        {
          "internalType": "address",
          "name": "owner",
          "type": "address"
        },
        {
          "internalType": "bool",
          "name": "isForSale",
          "type": "bool"
        }
      ],
      "stateMutability": "view",
      "type": "function"
    },
    {
      "inputs": [],
      "name": "owner",
      "outputs": [
        {
          "internalType": "address",
          "name": "",
          "type": "address"
        }
      ],
      "stateMutability": "view",
      "type": "function"
    },
    {
      "inputs": [
        {
          "internalType": "uint256",
          "name": "tokenId",
          "type": "uint256"
        }
      ],
      "name": "ownerOf",
      "outputs": [
        {
          "internalType": "address",
          "name": "",
          "type": "address"
        }
      ],
      "stateMutability": "view",
      "type": "function"
    },
    {
      "inputs": [],
      "name": "renounceOwnership",
      "outputs": [],
      "stateMutability": "nonpayable",
      "type": "function"
    },
    {
      "inputs": [
        {
          "internalType": "address",
          "name": "from",
          "type": "address"
        },
        {
          "internalType": "address",
          "name": "to",
          "type": "address"
        },
        {
          "internalType": "uint256",
          "name": "tokenId",
          "type": "uint256"
        }
      ],
      "name": "safeTransferFrom",
      "outputs": [],
      "stateMutability": "nonpayable",
      "type": "function"
    },
    {
      "inputs": [
        {
          "internalType": "address",
          "name": "from",
          "type": "address"
        },
        {
          "internalType": "address",
          "name": "to",
          "type": "address"
        },
        {
          "internalType": "uint256",
          "name": "tokenId",
          "type": "uint256"
        },
        {
          "internalType": "bytes",
          "name": "data",
          "type": "bytes"
        }
      ],
      "name": "safeTransferFrom",
      "outputs": [],
      "stateMutability": "nonpayable",
      "type": "function"
    },
    {
      "inputs": [
        {
          "internalType": "address",
          "name": "operator",
          "type": "address"
        },
        {
          "internalType": "bool",
          "name": "approved",
          "type": "bool"
        }
      ],
      "name": "setApprovalForAll",
      "outputs": [],
      "stateMutability": "nonpayable",
      "type": "function"
    },
    {
      "inputs": [
        {
          "internalType": "bytes4",
          "name": "interfaceId",
          "type": "bytes4"
        }
      ],
      "name": "supportsInterface",
      "outputs": [
        {
          "internalType": "bool",
          "name": "",
          "type": "bool"
        }
      ],
      "stateMutability": "view",
      "type": "function"
    },
    {
      "inputs": [],
      "name": "symbol",
      "outputs": [
        {
          "internalType": "string",
          "name": "",
          "type": "string"
        }
      ],
      "stateMutability": "view",
      "type": "function"
    },
    {
      "inputs": [
        {
          "internalType": "uint256",
          "name": "tokenId",
          "type": "uint256"
        }
      ],
      "name": "tokenURI",
      "outputs": [
        {
          "internalType": "string",
          "name": "",
          "type": "string"
        }
      ],
      "stateMutability": "view",
      "type": "function"
    },
    {
      "inputs": [
        {
          "internalType": "address",
          "name": "from",
          "type": "address"
        },
        {
          "internalType": "address",
          "name": "to",
          "type": "address"
        },
        {
          "internalType": "uint256",
          "name": "tokenId",
          "type": "uint256"
        }
      ],
      "name": "transferFrom",
      "outputs": [],
      "stateMutability": "nonpayable",
      "type": "function"
    },
    {
      "inputs": [
        {
          "internalType": "address",
          "name": "newOwner",
          "type": "address"
        }
      ],
      "name": "transferOwnership",
      "outputs": [],
      "stateMutability": "nonpayable",
      "type": "function"
    }
  ],
  "bytecode": "0x60806040523480156200001157600080fd5b506040518060400160405280600e81526020017f4e46544d61726b6574706c6163650000000000000000000000000000000000008152506040518060400160405280600481526020017f4e46544d0000000000000000000000000000000000000000000000000000000081525081600090816200008f919062000412565b508060019081620000a1919062000412565b505050620000c4620000b8620000ca60201b60201c565b620000d260201b60201c565b620004f9565b600033905090565b6000600760009054906101000a900473ffffffffffffffffffffffffffffffffffffffff16905081600760006101000a81548173ffffffffffffffffffffffffffffffffffffffff021916908373ffffffffffffffffffffffffffffffffffffffff1602179055508173ffffffffffffffffffffffffffffffffffffffff168173ffffffffffffffffffffffffffffffffffffffff167f8be0079c531659141344cd1fd0a4f28419497f9722a3daafe3b4186f6b6457e060405160405180910390a35050565b600081519050919050565b7f4e487b7100000000000000000000000000000000000000000000000000000000600052604160045260246000fd5b7f4e487b7100000000000000000000000000000000000000000000000000000000600052602260045260246000fd5b600060028204905060018216806200021a57607f821691505b60208210810362000230576200022f620001d2565b5b50919050565b60008190508160005260206000209050919050565b60006020601f8301049050919050565b600082821b905092915050565b6000600883026200029a7fffffffffffffffffffffffffffffffffffffffffffffffffffffffffffffffff826200025b565b620002a686836200025b565b95508019841693508086168417925050509392505050565b6000819050919050565b6000819050919050565b6000620002f3620002ed620002e784620002be565b620002c8565b620002be565b9050919050565b6000819050919050565b6200030f83620002d2565b620003276200031e82620002fa565b84845462000268565b825550505050565b600090565b6200033e6200032f565b6200034b81848462000304565b505050565b5b8181101562000373576200036760008262000334565b60018101905062000351565b5050565b601f821115620003c2576200038c8162000236565b62000397846200024b565b81016020851015620003a7578190505b620003bf620003b6856200024b565b83018262000350565b50505b505050565b600082821c905092915050565b6000620003e760001984600802620003c7565b1980831691505092915050565b6000620004028383620003d4565b9150826002028217905092915050565b6200041d8262000198565b67ffffffffffffffff811115620004395762000438620001a3565b5b62000445825462000201565b6200045282828562000377565b600060209050601f8311600181146200048a576000841562000475578287015190505b620004818582620003f4565b865550620004f1565b601f1984166200049a8662000236565b60005b82811015620004c4578489015182556001820191506020850194506020810190506200049d565b86831015620004e45784890151620004e0601f891682620003d4565b8355505b6001600288020188555050505b505050505050565b613a1080620005096000396000f3fe60806040526004361061012a5760003560e01c8063715018a6116100ab578063a22cb4651161006f578063a22cb465146103e9578063b2733b3914610412578063b88d4fde1461043b578063c87b56dd14610464578063e985e9c5146104a1578063f2fde38b146104de5761012a565b8063715018a6146103105780637d4cd847146103275780638da5cb5b1461036a57806395d89b4114610395578063a060e7e6146103c05761012a565b806342842e0e116100f257806342842e0e1461022657806351ed82881461024f5780635a2e65041461026b5780636352211e1461029657806370a08231146102d35761012a565b806301ffc9a71461012f57806306fdde031461016c578063081812fc14610197578063095ea7b3146101d457806323b872dd146101fd575b600080fd5b34801561013b57600080fd5b506101566004803603810190610151919061244a565b610507565b6040516101639190612492565b60405180910390f35b34801561017857600080fd5b506101816105e9565b60405161018e919061253d565b60405180910390f35b3480156101a357600080fd5b506101be60048036038101906101b99190612595565b61067b565b6040516101cb9190612603565b60405180910390f35b3480156101e057600080fd5b506101fb60048036038101906101f6919061264a565b6106c1565b005b34801561020957600080fd5b50610224600480360381019061021f919061268a565b6107d8565b005b34801561023257600080fd5b5061024d6004803603810190610248919061268a565b610838565b005b61026960048036038101906102649190612595565b610858565b005b34801561027757600080fd5b50610280610a23565b60405161028d91906126ec565b60405180910390f35b3480156102a257600080fd5b506102bd60048036038101906102b89190612595565b610a34565b6040516102ca9190612603565b60405180910390f35b3480156102df57600080fd5b506102fa60048036038101906102f59190612707565b610aba565b60405161030791906126ec565b60405180910390f35b34801561031c57600080fd5b50610325610b71565b005b34801561033357600080fd5b5061034e60048036038101906103499190612595565b610b85565b6040516103619796959493929190612734565b60405180910390f35b34801561037657600080fd5b5061037f610d8c565b60405161038c9190612603565b60405180910390f35b3480156103a157600080fd5b506103aa610db6565b6040516103b7919061253d565b60405180910390f35b3480156103cc57600080fd5b506103e760048036038101906103e291906128ed565b610e48565b005b3480156103f557600080fd5b50610410600480360381019061040b9190612a04565b610ff3565b005b34801561041e57600080fd5b5061043960048036038101906104349190612a44565b611009565b005b34801561044757600080fd5b50610462600480360381019061045d9190612b25565b611148565b005b34801561047057600080fd5b5061048b60048036038101906104869190612595565b6111aa565b604051610498919061253d565b60405180910390f35b3480156104ad57600080fd5b506104c860048036038101906104c39190612ba8565b6112bc565b6040516104d59190612492565b60405180910390f35b3480156104ea57600080fd5b5061050560048036038101906105009190612707565b611350565b005b60007f80ac58cd000000000000000000000000000000000000000000000000000000007bffffffffffffffffffffffffffffffffffffffffffffffffffffffff1916827bffffffffffffffffffffffffffffffffffffffffffffffffffffffff191614806105d257507f5b5e139f000000000000000000000000000000000000000000000000000000007bffffffffffffffffffffffffffffffffffffffffffffffffffffffff1916827bffffffffffffffffffffffffffffffffffffffffffffffffffffffff1916145b806105e257506105e1826113d3565b5b9050919050565b6060600080546105f890612c17565b80601f016020809104026020016040519081016040528092919081815260200182805461062490612c17565b80156106715780601f1061064657610100808354040283529160200191610671565b820191906000526020600020905b81548152906001019060200180831161065457829003601f168201915b5050505050905090565b60006106868261143d565b6004600083815260200190815260200160002060009054906101000a900473ffffffffffffffffffffffffffffffffffffffff169050919050565b60006106cc82610a34565b90508073ffffffffffffffffffffffffffffffffffffffff168373ffffffffffffffffffffffffffffffffffffffff160361073c576040517f08c379a000000000000000000000000000000000000000000000000000000000815260040161073390612cba565b60405180910390fd5b8073ffffffffffffffffffffffffffffffffffffffff1661075b611488565b73ffffffffffffffffffffffffffffffffffffffff16148061078a575061078981610784611488565b6112bc565b5b6107c9576040517f08c379a00000000000000000000000000000000000000000000000000000000081526004016107c090612d4c565b60405180910390fd5b6107d38383611490565b505050565b6107e96107e3611488565b82611549565b610828576040517f08c379a000000000000000000000000000000000000000000000000000000000815260040161081f90612dde565b60405180910390fd5b6108338383836115de565b505050565b61085383838360405180602001604052806000815250611148565b505050565b60006009600083815260200190815260200160002090508060050160149054906101000a900460ff166108c0576040517f08c379a00000000000000000000000000000000000000000000000000000000081526004016108b790612e4a565b60405180910390fd5b8060040154341015610907576040517f08c379a00000000000000000000000000000000000000000000000000000000081526004016108fe90612eb6565b60405180910390fd5b60008160050160009054906101000a900473ffffffffffffffffffffffffffffffffffffffff16905061093b8133856115de565b8073ffffffffffffffffffffffffffffffffffffffff166108fc349081150290604051600060405180830381858888f19350505050158015610981573d6000803e3d6000fd5b50338260050160006101000a81548173ffffffffffffffffffffffffffffffffffffffff021916908373ffffffffffffffffffffffffffffffffffffffff16021790555060008260050160146101000a81548160ff021916908315150217905550827f8562eb94748e30bb0071e932744ce902b460c683474fcb3bfd567ffa16b1afb2823334604051610a1693929190612ed6565b60405180910390a2505050565b6000610a2f60086118d7565b905090565b600080610a40836118e5565b9050600073ffffffffffffffffffffffffffffffffffffffff168173ffffffffffffffffffffffffffffffffffffffff1603610ab1576040517f08c379a0000000000000000000000000000000000000000000000000000000008152600401610aa890612f59565b60405180910390fd5b80915050919050565b60008073ffffffffffffffffffffffffffffffffffffffff168273ffffffffffffffffffffffffffffffffffffffff1603610b2a576040517f08c379a0000000000000000000000000000000000000000000000000000000008152600401610b2190612feb565b60405180910390fd5b600360008373ffffffffffffffffffffffffffffffffffffffff1673ffffffffffffffffffffffffffffffffffffffff168152602001908152602001600020549050919050565b610b79611922565b610b8360006119a0565b565b6009602052806000526040600020600091509050806000015490806001018054610bae90612c17565b80601f0160208091040260200160405190810160405280929190818152602001828054610bda90612c17565b8015610c275780601f10610bfc57610100808354040283529160200191610c27565b820191906000526020600020905b815481529060010190602001808311610c0a57829003601f168201915b505050505090806002018054610c3c90612c17565b80601f0160208091040260200160405190810160405280929190818152602001828054610c6890612c17565b8015610cb55780601f10610c8a57610100808354040283529160200191610cb5565b820191906000526020600020905b815481529060010190602001808311610c9857829003601f168201915b505050505090806003018054610cca90612c17565b80601f0160208091040260200160405190810160405280929190818152602001828054610cf690612c17565b8015610d435780601f10610d1857610100808354040283529160200191610d43565b820191906000526020600020905b815481529060010190602001808311610d2657829003601f168201915b5050505050908060040154908060050160009054906101000a900473ffffffffffffffffffffffffffffffffffffffff16908060050160149054906101000a900460ff16905087565b6000600760009054906101000a900473ffffffffffffffffffffffffffffffffffffffff16905090565b606060018054610dc590612c17565b80601f0160208091040260200160405190810160405280929190818152602001828054610df190612c17565b8015610e3e5780601f10610e1357610100808354040283529160200191610e3e565b820191906000526020600020905b815481529060010190602001808311610e2157829003601f168201915b5050505050905090565b610e526008611a66565b6000610e5e60086118d7565b9050610e6a3382611a7c565b610e748187611a9a565b6040518060e001604052808281526020018681526020018581526020018481526020018381526020013373ffffffffffffffffffffffffffffffffffffffff1681526020016000151581525060096000838152602001908152602001600020600082015181600001556020820151816001019081610ef291906131b7565b506040820151816002019081610f0891906131b7565b506060820151816003019081610f1e91906131b7565b506080820151816004015560a08201518160050160006101000a81548173ffffffffffffffffffffffffffffffffffffffff021916908373ffffffffffffffffffffffffffffffffffffffff16021790555060c08201518160050160146101000a81548160ff0219169083151502179055509050503373ffffffffffffffffffffffffffffffffffffffff167fc5c424bdfb680fa6482e374431f48f5f20bc8f088fcdc140415a5cb0c9e95c67828888888888604051610fe396959493929190613289565b60405180910390a2505050505050565b611005610ffe611488565b8383611b07565b5050565b3373ffffffffffffffffffffffffffffffffffffffff1661102983610a34565b73ffffffffffffffffffffffffffffffffffffffff161461107f576040517f08c379a000000000000000000000000000000000000000000000000000000000815260040161107690613352565b60405180910390fd5b600081116110c2576040517f08c379a00000000000000000000000000000000000000000000000000000000081526004016110b9906133be565b60405180910390fd5b80600960008481526020019081526020016000206004018190555060016009600084815260200190815260200160002060050160146101000a81548160ff021916908315150217905550817fa6cd73580a273eec6c1026108f6b63479fbaef5356dde4ff43e4b38dd187485f8260405161113c91906126ec565b60405180910390a25050565b611159611153611488565b83611549565b611198576040517f08c379a000000000000000000000000000000000000000000000000000000000815260040161118f90612dde565b60405180910390fd5b6111a484848484611c73565b50505050565b60606111b58261143d565b60006006600084815260200190815260200160002080546111d590612c17565b80601f016020809104026020016040519081016040528092919081815260200182805461120190612c17565b801561124e5780601f106112235761010080835404028352916020019161124e565b820191906000526020600020905b81548152906001019060200180831161123157829003601f168201915b50505050509050600061125f611ccf565b905060008151036112745781925050506112b7565b6000825111156112a957808260405160200161129192919061341a565b604051602081830303815290604052925050506112b7565b6112b284611ce6565b925050505b919050565b6000600560008473ffffffffffffffffffffffffffffffffffffffff1673ffffffffffffffffffffffffffffffffffffffff16815260200190815260200160002060008373ffffffffffffffffffffffffffffffffffffffff1673ffffffffffffffffffffffffffffffffffffffff16815260200190815260200160002060009054906101000a900460ff16905092915050565b611358611922565b600073ffffffffffffffffffffffffffffffffffffffff168173ffffffffffffffffffffffffffffffffffffffff16036113c7576040517f08c379a00000000000000000000000000000000000000000000000000000000081526004016113be906134b0565b60405180910390fd5b6113d0816119a0565b50565b60007f01ffc9a7000000000000000000000000000000000000000000000000000000007bffffffffffffffffffffffffffffffffffffffffffffffffffffffff1916827bffffffffffffffffffffffffffffffffffffffffffffffffffffffff1916149050919050565b61144681611d4e565b611485576040517f08c379a000000000000000000000000000000000000000000000000000000000815260040161147c90612f59565b60405180910390fd5b50565b600033905090565b816004600083815260200190815260200160002060006101000a81548173ffffffffffffffffffffffffffffffffffffffff021916908373ffffffffffffffffffffffffffffffffffffffff160217905550808273ffffffffffffffffffffffffffffffffffffffff1661150383610a34565b73ffffffffffffffffffffffffffffffffffffffff167f8c5be1e5ebec7d5bd14f71427d1e84f3dd0314c0f7b2291e5b200ac8c7c3b92560405160405180910390a45050565b60008061155583610a34565b90508073ffffffffffffffffffffffffffffffffffffffff168473ffffffffffffffffffffffffffffffffffffffff161480611597575061159681856112bc565b5b806115d557508373ffffffffffffffffffffffffffffffffffffffff166115bd8461067b565b73ffffffffffffffffffffffffffffffffffffffff16145b91505092915050565b8273ffffffffffffffffffffffffffffffffffffffff166115fe82610a34565b73ffffffffffffffffffffffffffffffffffffffff1614611654576040517f08c379a000000000000000000000000000000000000000000000000000000000815260040161164b90613542565b60405180910390fd5b600073ffffffffffffffffffffffffffffffffffffffff168273ffffffffffffffffffffffffffffffffffffffff16036116c3576040517f08c379a00000000000000000000000000000000000000000000000000000000081526004016116ba906135d4565b60405180910390fd5b6116d08383836001611d8f565b8273ffffffffffffffffffffffffffffffffffffffff166116f082610a34565b73ffffffffffffffffffffffffffffffffffffffff1614611746576040517f08c379a000000000000000000000000000000000000000000000000000000000815260040161173d90613542565b60405180910390fd5b6004600082815260200190815260200160002060006101000a81549073ffffffffffffffffffffffffffffffffffffffff02191690556001600360008573ffffffffffffffffffffffffffffffffffffffff1673ffffffffffffffffffffffffffffffffffffffff168152602001908152602001600020600082825403925050819055506001600360008473ffffffffffffffffffffffffffffffffffffffff1673ffffffffffffffffffffffffffffffffffffffff16815260200190815260200160002060008282540192505081905550816002600083815260200190815260200160002060006101000a81548173ffffffffffffffffffffffffffffffffffffffff021916908373ffffffffffffffffffffffffffffffffffffffff160217905550808273ffffffffffffffffffffffffffffffffffffffff168473ffffffffffffffffffffffffffffffffffffffff167fddf252ad1be2c89b69c2b068fc378daa952ba7f163c4a11628f55a4df523b3ef60405160405180910390a46118d28383836001611d95565b505050565b600081600001549050919050565b60006002600083815260200190815260200160002060009054906101000a900473ffffffffffffffffffffffffffffffffffffffff169050919050565b61192a611488565b73ffffffffffffffffffffffffffffffffffffffff16611948610d8c565b73ffffffffffffffffffffffffffffffffffffffff161461199e576040517f08c379a000000000000000000000000000000000000000000000000000000000815260040161199590613640565b60405180910390fd5b565b6000600760009054906101000a900473ffffffffffffffffffffffffffffffffffffffff16905081600760006101000a81548173ffffffffffffffffffffffffffffffffffffffff021916908373ffffffffffffffffffffffffffffffffffffffff1602179055508173ffffffffffffffffffffffffffffffffffffffff168173ffffffffffffffffffffffffffffffffffffffff167f8be0079c531659141344cd1fd0a4f28419497f9722a3daafe3b4186f6b6457e060405160405180910390a35050565b6001816000016000828254019250508190555050565b611a96828260405180602001604052806000815250611d9b565b5050565b611aa382611d4e565b611ae2576040517f08c379a0000000000000000000000000000000000000000000000000000000008152600401611ad9906136d2565b60405180910390fd5b80600660008481526020019081526020016000209081611b0291906131b7565b505050565b8173ffffffffffffffffffffffffffffffffffffffff168373ffffffffffffffffffffffffffffffffffffffff1603611b75576040517f08c379a0000000000000000000000000000000000000000000000000000000008152600401611b6c9061373e565b60405180910390fd5b80600560008573ffffffffffffffffffffffffffffffffffffffff1673ffffffffffffffffffffffffffffffffffffffff16815260200190815260200160002060008473ffffffffffffffffffffffffffffffffffffffff1673ffffffffffffffffffffffffffffffffffffffff16815260200190815260200160002060006101000a81548160ff0219169083151502179055508173ffffffffffffffffffffffffffffffffffffffff168373ffffffffffffffffffffffffffffffffffffffff167f17307eab39ab6107e8899845ad3d59bd9653f200f220920489ca2b5937696c3183604051611c669190612492565b60405180910390a3505050565b611c7e8484846115de565b611c8a84848484611df6565b611cc9576040517f08c379a0000000000000000000000000000000000000000000000000000000008152600401611cc0906137d0565b60405180910390fd5b50505050565b606060405180602001604052806000815250905090565b6060611cf18261143d565b6000611cfb611ccf565b90506000815111611d1b5760405180602001604052806000815250611d46565b80611d2584611f7d565b604051602001611d3692919061341a565b6040516020818303038152906040525b915050919050565b60008073ffffffffffffffffffffffffffffffffffffffff16611d70836118e5565b73ffffffffffffffffffffffffffffffffffffffff1614159050919050565b50505050565b50505050565b611da5838361204b565b611db26000848484611df6565b611df1576040517f08c379a0000000000000000000000000000000000000000000000000000000008152600401611de8906137d0565b60405180910390fd5b505050565b6000611e178473ffffffffffffffffffffffffffffffffffffffff16612268565b15611f70578373ffffffffffffffffffffffffffffffffffffffff1663150b7a02611e40611488565b8786866040518563ffffffff1660e01b8152600401611e629493929190613845565b6020604051808303816000875af1925050508015611e9e57506040513d601f19601f82011682018060405250810190611e9b91906138a6565b60015b611f20573d8060008114611ece576040519150601f19603f3d011682016040523d82523d6000602084013e611ed3565b606091505b506000815103611f18576040517f08c379a0000000000000000000000000000000000000000000000000000000008152600401611f0f906137d0565b60405180910390fd5b805181602001fd5b63150b7a0260e01b7bffffffffffffffffffffffffffffffffffffffffffffffffffffffff1916817bffffffffffffffffffffffffffffffffffffffffffffffffffffffff191614915050611f75565b600190505b949350505050565b606060006001611f8c8461228b565b01905060008167ffffffffffffffff811115611fab57611faa6127c2565b5b6040519080825280601f01601f191660200182016040528015611fdd5781602001600182028036833780820191505090505b509050600082602001820190505b600115612040578080600190039150507f3031323334353637383961626364656600000000000000000000000000000000600a86061a8153600a8581612034576120336138d3565b5b04945060008503611feb575b819350505050919050565b600073ffffffffffffffffffffffffffffffffffffffff168273ffffffffffffffffffffffffffffffffffffffff16036120ba576040517f08c379a00000000000000000000000000000000000000000000000000000000081526004016120b19061394e565b60405180910390fd5b6120c381611d4e565b15612103576040517f08c379a00000000000000000000000000000000000000000000000000000000081526004016120fa906139ba565b60405180910390fd5b612111600083836001611d8f565b61211a81611d4e565b1561215a576040517f08c379a0000000000000000000000000000000000000000000000000000000008152600401612151906139ba565b60405180910390fd5b6001600360008473ffffffffffffffffffffffffffffffffffffffff1673ffffffffffffffffffffffffffffffffffffffff16815260200190815260200160002060008282540192505081905550816002600083815260200190815260200160002060006101000a81548173ffffffffffffffffffffffffffffffffffffffff021916908373ffffffffffffffffffffffffffffffffffffffff160217905550808273ffffffffffffffffffffffffffffffffffffffff16600073ffffffffffffffffffffffffffffffffffffffff167fddf252ad1be2c89b69c2b068fc378daa952ba7f163c4a11628f55a4df523b3ef60405160405180910390a4612264600083836001611d95565b5050565b6000808273ffffffffffffffffffffffffffffffffffffffff163b119050919050565b600080600090507a184f03e93ff9f4daa797ed6e38ed64bf6a1f01000000000000000083106122e9577a184f03e93ff9f4daa797ed6e38ed64bf6a1f01000000000000000083816122df576122de6138d3565b5b0492506040810190505b6d04ee2d6d415b85acef81000000008310612326576d04ee2d6d415b85acef8100000000838161231c5761231b6138d3565b5b0492506020810190505b662386f26fc10000831061235557662386f26fc10000838161234b5761234a6138d3565b5b0492506010810190505b6305f5e100831061237e576305f5e1008381612374576123736138d3565b5b0492506008810190505b61271083106123a3576127108381612399576123986138d3565b5b0492506004810190505b606483106123c657606483816123bc576123bb6138d3565b5b0492506002810190505b600a83106123d5576001810190505b80915050919050565b6000604051905090565b600080fd5b600080fd5b60007fffffffff0000000000000000000000000000000000000000000000000000000082169050919050565b612427816123f2565b811461243257600080fd5b50565b6000813590506124448161241e565b92915050565b6000602082840312156124605761245f6123e8565b5b600061246e84828501612435565b91505092915050565b60008115159050919050565b61248c81612477565b82525050565b60006020820190506124a76000830184612483565b92915050565b600081519050919050565b600082825260208201905092915050565b60005b838110156124e75780820151818401526020810190506124cc565b60008484015250505050565b6000601f19601f8301169050919050565b600061250f826124ad565b61251981856124b8565b93506125298185602086016124c9565b612532816124f3565b840191505092915050565b600060208201905081810360008301526125578184612504565b905092915050565b6000819050919050565b6125728161255f565b811461257d57600080fd5b50565b60008135905061258f81612569565b92915050565b6000602082840312156125ab576125aa6123e8565b5b60006125b984828501612580565b91505092915050565b600073ffffffffffffffffffffffffffffffffffffffff82169050919050565b60006125ed826125c2565b9050919050565b6125fd816125e2565b82525050565b600060208201905061261860008301846125f4565b92915050565b612627816125e2565b811461263257600080fd5b50565b6000813590506126448161261e565b92915050565b60008060408385031215612661576126606123e8565b5b600061266f85828601612635565b925050602061268085828601612580565b9150509250929050565b6000806000606084860312156126a3576126a26123e8565b5b60006126b186828701612635565b93505060206126c286828701612635565b92505060406126d386828701612580565b9150509250925092565b6126e68161255f565b82525050565b600060208201905061270160008301846126dd565b92915050565b60006020828403121561271d5761271c6123e8565b5b600061272b84828501612635565b91505092915050565b600060e082019050612749600083018a6126dd565b818103602083015261275b8189612504565b9050818103604083015261276f8188612504565b905081810360608301526127838187612504565b905061279260808301866126dd565b61279f60a08301856125f4565b6127ac60c0830184612483565b98975050505050505050565b600080fd5b600080fd5b7f4e487b7100000000000000000000000000000000000000000000000000000000600052604160045260246000fd5b6127fa826124f3565b810181811067ffffffffffffffff82111715612819576128186127c2565b5b80604052505050565b600061282c6123de565b905061283882826127f1565b919050565b600067ffffffffffffffff821115612858576128576127c2565b5b612861826124f3565b9050602081019050919050565b82818337600083830152505050565b600061289061288b8461283d565b612822565b9050828152602081018484840111156128ac576128ab6127bd565b5b6128b784828561286e565b509392505050565b600082601f8301126128d4576128d36127b8565b5b81356128e484826020860161287d565b91505092915050565b600080600080600060a08688031215612909576129086123e8565b5b600086013567ffffffffffffffff811115612927576129266123ed565b5b612933888289016128bf565b955050602086013567ffffffffffffffff811115612954576129536123ed565b5b612960888289016128bf565b945050604086013567ffffffffffffffff811115612981576129806123ed565b5b61298d888289016128bf565b935050606086013567ffffffffffffffff8111156129ae576129ad6123ed565b5b6129ba888289016128bf565b92505060806129cb88828901612580565b9150509295509295909350565b6129e181612477565b81146129ec57600080fd5b50565b6000813590506129fe816129d8565b92915050565b60008060408385031215612a1b57612a1a6123e8565b5b6000612a2985828601612635565b9250506020612a3a858286016129ef565b9150509250929050565b60008060408385031215612a5b57612a5a6123e8565b5b6000612a6985828601612580565b9250506020612a7a85828601612580565b9150509250929050565b600067ffffffffffffffff821115612a9f57612a9e6127c2565b5b612aa8826124f3565b9050602081019050919050565b6000612ac8612ac384612a84565b612822565b905082815260208101848484011115612ae457612ae36127bd565b5b612aef84828561286e565b509392505050565b600082601f830112612b0c57612b0b6127b8565b5b8135612b1c848260208601612ab5565b91505092915050565b60008060008060808587031215612b3f57612b3e6123e8565b5b6000612b4d87828801612635565b9450506020612b5e87828801612635565b9350506040612b6f87828801612580565b925050606085013567ffffffffffffffff811115612b9057612b8f6123ed565b5b612b9c87828801612af7565b91505092959194509250565b60008060408385031215612bbf57612bbe6123e8565b5b6000612bcd85828601612635565b9250506020612bde85828601612635565b9150509250929050565b7f4e487b7100000000000000000000000000000000000000000000000000000000600052602260045260246000fd5b60006002820490506001821680612c2f57607f821691505b602082108103612c4257612c41612be8565b5b50919050565b7f4552433732313a20617070726f76616c20746f2063757272656e74206f776e6560008201527f7200000000000000000000000000000000000000000000000000000000000000602082015250565b6000612ca46021836124b8565b9150612caf82612c48565b604082019050919050565b60006020820190508181036000830152612cd381612c97565b9050919050565b7f4552433732313a20617070726f76652063616c6c6572206973206e6f7420746f60008201527f6b656e206f776e6572206f7220617070726f76656420666f7220616c6c000000602082015250565b6000612d36603d836124b8565b9150612d4182612cda565b604082019050919050565b60006020820190508181036000830152612d6581612d29565b9050919050565b7f4552433732313a2063616c6c6572206973206e6f7420746f6b656e206f776e6560008201527f72206f7220617070726f76656400000000000000000000000000000000000000602082015250565b6000612dc8602d836124b8565b9150612dd382612d6c565b604082019050919050565b60006020820190508181036000830152612df781612dbb565b9050919050565b7f4e4654206973206e6f7420666f722073616c6500000000000000000000000000600082015250565b6000612e346013836124b8565b9150612e3f82612dfe565b602082019050919050565b60006020820190508181036000830152612e6381612e27565b9050919050565b7f4e6f7420656e6f75676820457468657220746f20627579204e46540000000000600082015250565b6000612ea0601b836124b8565b9150612eab82612e6a565b602082019050919050565b60006020820190508181036000830152612ecf81612e93565b9050919050565b6000606082019050612eeb60008301866125f4565b612ef860208301856125f4565b612f0560408301846126dd565b949350505050565b7f4552433732313a20696e76616c696420746f6b656e2049440000000000000000600082015250565b6000612f436018836124b8565b9150612f4e82612f0d565b602082019050919050565b60006020820190508181036000830152612f7281612f36565b9050919050565b7f4552433732313a2061646472657373207a65726f206973206e6f74206120766160008201527f6c6964206f776e65720000000000000000000000000000000000000000000000602082015250565b6000612fd56029836124b8565b9150612fe082612f79565b604082019050919050565b6000602082019050818103600083015261300481612fc8565b9050919050565b60008190508160005260206000209050919050565b60006020601f8301049050919050565b600082821b905092915050565b60006008830261306d7fffffffffffffffffffffffffffffffffffffffffffffffffffffffffffffffff82613030565b6130778683613030565b95508019841693508086168417925050509392505050565b6000819050919050565b60006130b46130af6130aa8461255f565b61308f565b61255f565b9050919050565b6000819050919050565b6130ce83613099565b6130e26130da826130bb565b84845461303d565b825550505050565b600090565b6130f76130ea565b6131028184846130c5565b505050565b5b818110156131265761311b6000826130ef565b600181019050613108565b5050565b601f82111561316b5761313c8161300b565b61314584613020565b81016020851015613154578190505b61316861316085613020565b830182613107565b50505b505050565b600082821c905092915050565b600061318e60001984600802613170565b1980831691505092915050565b60006131a7838361317d565b9150826002028217905092915050565b6131c0826124ad565b67ffffffffffffffff8111156131d9576131d86127c2565b5b6131e38254612c17565b6131ee82828561312a565b600060209050601f831160018114613221576000841561320f578287015190505b613219858261319b565b865550613281565b601f19841661322f8661300b565b60005b8281101561325757848901518255600182019150602085019450602081019050613232565b868310156132745784890151613270601f89168261317d565b8355505b6001600288020188555050505b505050505050565b600060c08201905061329e60008301896126dd565b81810360208301526132b08188612504565b905081810360408301526132c48187612504565b905081810360608301526132d88186612504565b905081810360808301526132ec8185612504565b90506132fb60a08301846126dd565b979650505050505050565b7f596f7520646f206e6f74206f776e2074686973204e4654000000000000000000600082015250565b600061333c6017836124b8565b915061334782613306565b602082019050919050565b6000602082019050818103600083015261336b8161332f565b9050919050565b7f5072696365206d7573742062652067726561746572207468616e207a65726f00600082015250565b60006133a8601f836124b8565b91506133b382613372565b602082019050919050565b600060208201905081810360008301526133d78161339b565b9050919050565b600081905092915050565b60006133f4826124ad565b6133fe81856133de565b935061340e8185602086016124c9565b80840191505092915050565b600061342682856133e9565b915061343282846133e9565b91508190509392505050565b7f4f776e61626c653a206e6577206f776e657220697320746865207a65726f206160008201527f6464726573730000000000000000000000000000000000000000000000000000602082015250565b600061349a6026836124b8565b91506134a58261343e565b604082019050919050565b600060208201905081810360008301526134c98161348d565b9050919050565b7f4552433732313a207472616e736665722066726f6d20696e636f72726563742060008201527f6f776e6572000000000000000000000000000000000000000000000000000000602082015250565b600061352c6025836124b8565b9150613537826134d0565b604082019050919050565b6000602082019050818103600083015261355b8161351f565b9050919050565b7f4552433732313a207472616e7366657220746f20746865207a65726f2061646460008201527f7265737300000000000000000000000000000000000000000000000000000000602082015250565b60006135be6024836124b8565b91506135c982613562565b604082019050919050565b600060208201905081810360008301526135ed816135b1565b9050919050565b7f4f776e61626c653a2063616c6c6572206973206e6f7420746865206f776e6572600082015250565b600061362a6020836124b8565b9150613635826135f4565b602082019050919050565b600060208201905081810360008301526136598161361d565b9050919050565b7f45524337323155524953746f726167653a2055524920736574206f66206e6f6e60008201527f6578697374656e7420746f6b656e000000000000000000000000000000000000602082015250565b60006136bc602e836124b8565b91506136c782613660565b604082019050919050565b600060208201905081810360008301526136eb816136af565b9050919050565b7f4552433732313a20617070726f766520746f2063616c6c657200000000000000600082015250565b60006137286019836124b8565b9150613733826136f2565b602082019050919050565b600060208201905081810360008301526137578161371b565b9050919050565b7f4552433732313a207472616e7366657220746f206e6f6e20455243373231526560008201527f63656976657220696d706c656d656e7465720000000000000000000000000000602082015250565b60006137ba6032836124b8565b91506137c58261375e565b604082019050919050565b600060208201905081810360008301526137e9816137ad565b9050919050565b600081519050919050565b600082825260208201905092915050565b6000613817826137f0565b61382181856137fb565b93506138318185602086016124c9565b61383a816124f3565b840191505092915050565b600060808201905061385a60008301876125f4565b61386760208301866125f4565b61387460408301856126dd565b8181036060830152613886818461380c565b905095945050505050565b6000815190506138a08161241e565b92915050565b6000602082840312156138bc576138bb6123e8565b5b60006138ca84828501613891565b91505092915050565b7f4e487b7100000000000000000000000000000000000000000000000000000000600052601260045260246000fd5b7f4552433732313a206d696e7420746f20746865207a65726f2061646472657373600082015250565b60006139386020836124b8565b915061394382613902565b602082019050919050565b600060208201905081810360008301526139678161392b565b9050919050565b7f4552433732313a20746f6b656e20616c7265616479206d696e74656400000000600082015250565b60006139a4601c836124b8565b91506139af8261396e565b602082019050919050565b600060208201905081810360008301526139d381613997565b905091905056fea26469706673582212208fb2af710a1ca96db951fd16b7ccbe43abbda4fc79aa3f523617574e9d60606f64736f6c63430008130033",
  "linkReferences": {},
  "deployedLinkReferences": {}
}