{
  "_format": "hh-sol-artifact-1",
  "contractName": "NFTMarketplace",
  "sourceName": "contracts/NFTMarketplace.sol",
  "abi": [
    {
      "inputs": [],
      "stateMutability": "nonpayable",
      "type": "constructor"
    },
    {
      "anonymous": false,
      "inputs": [
        {
          "indexed": true,
          "internalType": "address",
          "name": "owner",
          "type": "address"
        },
        {
          "indexed": true,
          "internalType": "address",
          "name": "approved",
          "type": "address"
        },
        {
          "indexed": true,
          "internalType": "uint256",
          "name": "tokenId",
          "type": "uint256"
        }
      ],
      "name": "Approval",
      "type": "event"
    },
    {
      "anonymous": false,
      "inputs": [
        {
          "indexed": true,
          "internalType": "address",
          "name": "owner",
          "type": "address"
        },
        {
          "indexed": true,
          "internalType": "address",
          "name": "operator",
          "type": "address"
        },
        {
          "indexed": false,
          "internalType": "bool",
          "name": "approved",
          "type": "bool"
        }
      ],
      "name": "ApprovalForAll",
      "type": "event"
    },
    {
      "anonymous": false,
      "inputs": [
        {
          "indexed": true,
          "internalType": "uint256",
          "name": "tokenId",
          "type": "uint256"
        }
      ],
      "name": "AuctionCancelled",
      "type": "event"
    },
    {
      "anonymous": false,
      "inputs": [
        {
          "indexed": true,
          "internalType": "uint256",
          "name": "tokenId",
          "type": "uint256"
        },
        {
          "indexed": false,
          "internalType": "address",
          "name": "winner",
          "type": "address"
        },
        {
          "indexed": false,
          "internalType": "uint256",
          "name": "winningBid",
          "type": "uint256"
        }
      ],
      "name": "AuctionEnded",
      "type": "event"
    },
    {
      "anonymous": false,
      "inputs": [
        {
          "indexed": false,
          "internalType": "uint256",
          "name": "_fromTokenId",
          "type": "uint256"
        },
        {
          "indexed": false,
          "internalType": "uint256",
          "name": "_toTokenId",
          "type": "uint256"
        }
      ],
      "name": "BatchMetadataUpdate",
      "type": "event"
    },
    {
      "anonymous": false,
      "inputs": [
        {
          "indexed": true,
          "internalType": "uint256",
          "name": "tokenId",
          "type": "uint256"
        },
        {
          "indexed": false,
          "internalType": "address",
          "name": "bidder",
          "type": "address"
        },
        {
          "indexed": false,
          "internalType": "uint256",
          "name": "amount",
          "type": "uint256"
        }
      ],
      "name": "BidPlaced",
      "type": "event"
    },
    {
      "anonymous": false,
      "inputs": [
        {
          "indexed": false,
          "internalType": "uint256",
          "name": "_tokenId",
          "type": "uint256"
        }
      ],
      "name": "MetadataUpdate",
      "type": "event"
    },
    {
      "anonymous": false,
      "inputs": [
        {
          "indexed": true,
          "internalType": "uint256",
          "name": "tokenId",
          "type": "uint256"
        },
        {
          "indexed": false,
          "internalType": "uint256",
          "name": "price",
          "type": "uint256"
        }
      ],
      "name": "NFTListed",
      "type": "event"
    },
    {
      "anonymous": false,
      "inputs": [
        {
          "indexed": true,
          "internalType": "uint256",
          "name": "tokenId",
          "type": "uint256"
        },
        {
          "indexed": false,
          "internalType": "uint256",
          "name": "startingBid",
          "type": "uint256"
        },
        {
          "indexed": false,
          "internalType": "uint256",
          "name": "duration",
          "type": "uint256"
        }
      ],
      "name": "NFTListedForAuction",
      "type": "event"
    },
    {
      "anonymous": false,
      "inputs": [
        {
          "indexed": true,
          "internalType": "address",
          "name": "owner",
          "type": "address"
        },
        {
          "indexed": false,
          "internalType": "uint256",
          "name": "tokenId",
          "type": "uint256"
        },
        {
          "indexed": false,
          "internalType": "string",
          "name": "tokenURI",
          "type": "string"
        },
        {
          "indexed": false,
          "internalType": "string",
          "name": "title",
          "type": "string"
        },
        {
          "indexed": false,
          "internalType": "string",
          "name": "description",
          "type": "string"
        },
        {
          "indexed": false,
          "internalType": "string",
          "name": "category",
          "type": "string"
        },
        {
          "indexed": false,
          "internalType": "uint256",
          "name": "price",
          "type": "uint256"
        }
      ],
      "name": "NFTMinted",
      "type": "event"
    },
    {
      "anonymous": false,
      "inputs": [
        {
          "indexed": true,
          "internalType": "uint256",
          "name": "tokenId",
          "type": "uint256"
        },
        {
          "indexed": false,
          "internalType": "address",
          "name": "seller",
          "type": "address"
        },
        {
          "indexed": false,
          "internalType": "address",
          "name": "buyer",
          "type": "address"
        },
        {
          "indexed": false,
          "internalType": "uint256",
          "name": "price",
          "type": "uint256"
        }
      ],
      "name": "NFTSold",
      "type": "event"
    },
    {
      "anonymous": false,
      "inputs": [
        {
          "indexed": true,
          "internalType": "address",
          "name": "previousOwner",
          "type": "address"
        },
        {
          "indexed": true,
          "internalType": "address",
          "name": "newOwner",
          "type": "address"
        }
      ],
      "name": "OwnershipTransferred",
      "type": "event"
    },
    {
      "anonymous": false,
      "inputs": [
        {
          "indexed": true,
          "internalType": "address",
          "name": "from",
          "type": "address"
        },
        {
          "indexed": true,
          "internalType": "address",
          "name": "to",
          "type": "address"
        },
        {
          "indexed": true,
          "internalType": "uint256",
          "name": "tokenId",
          "type": "uint256"
        }
      ],
      "name": "Transfer",
      "type": "event"
    },
    {
      "inputs": [
        {
          "internalType": "address",
          "name": "to",
          "type": "address"
        },
        {
          "internalType": "uint256",
          "name": "tokenId",
          "type": "uint256"
        }
      ],
      "name": "approve",
      "outputs": [],
      "stateMutability": "nonpayable",
      "type": "function"
    },
    {
      "inputs": [
        {
          "internalType": "uint256",
          "name": "",
          "type": "uint256"
        }
      ],
      "name": "auctions",
      "outputs": [
        {
          "internalType": "address",
          "name": "seller",
          "type": "address"
        },
        {
          "internalType": "uint256",
          "name": "startingBid",
          "type": "uint256"
        },
        {
          "internalType": "uint256",
          "name": "endTime",
          "type": "uint256"
        },
        {
          "internalType": "address",
          "name": "highestBidder",
          "type": "address"
        },
        {
          "internalType": "uint256",
          "name": "highestBid",
          "type": "uint256"
        },
        {
          "internalType": "bool",
          "name": "ended",
          "type": "bool"
        }
      ],
      "stateMutability": "view",
      "type": "function"
    },
    {
      "inputs": [
        {
          "internalType": "address",
          "name": "owner",
          "type": "address"
        }
      ],
      "name": "balanceOf",
      "outputs": [
        {
          "internalType": "uint256",
          "name": "",
          "type": "uint256"
        }
      ],
      "stateMutability": "view",
      "type": "function"
    },
    {
      "inputs": [
        {
          "internalType": "uint256",
          "name": "tokenId",
          "type": "uint256"
        }
      ],
      "name": "bidOnNFT",
      "outputs": [],
      "stateMutability": "payable",
      "type": "function"
    },
    {
      "inputs": [
        {
          "internalType": "uint256",
          "name": "tokenId",
          "type": "uint256"
        }
      ],
      "name": "buyNFT",
      "outputs": [],
      "stateMutability": "payable",
      "type": "function"
    },
    {
      "inputs": [
        {
          "internalType": "uint256",
          "name": "tokenId",
          "type": "uint256"
        }
      ],
      "name": "cancelAuction",
      "outputs": [],
      "stateMutability": "nonpayable",
      "type": "function"
    },
    {
      "inputs": [
        {
          "internalType": "uint256",
          "name": "tokenId",
          "type": "uint256"
        }
      ],
      "name": "endAuction",
      "outputs": [],
      "stateMutability": "nonpayable",
      "type": "function"
    },
    {
      "inputs": [
        {
          "internalType": "uint256",
          "name": "tokenId",
          "type": "uint256"
        }
      ],
      "name": "getApproved",
      "outputs": [
        {
          "internalType": "address",
          "name": "",
          "type": "address"
        }
      ],
      "stateMutability": "view",
      "type": "function"
    },
    {
      "inputs": [
        {
          "internalType": "uint256",
          "name": "tokenId",
          "type": "uint256"
        }
      ],
      "name": "getAuctionDetails",
      "outputs": [
        {
          "internalType": "address",
          "name": "seller",
          "type": "address"
        },
        {
          "internalType": "uint256",
          "name": "startingBid",
          "type": "uint256"
        },
        {
          "internalType": "uint256",
          "name": "highestBid",
          "type": "uint256"
        },
        {
          "internalType": "address",
          "name": "highestBidder",
          "type": "address"
        },
        {
          "internalType": "uint256",
          "name": "endTime",
          "type": "uint256"
        },
        {
          "internalType": "bool",
          "name": "ended",
          "type": "bool"
        },
        {
          "internalType": "enum NFTMarketplace.SaleStatus",
          "name": "status",
          "type": "uint8"
        }
      ],
      "stateMutability": "view",
      "type": "function"
    },
    {
      "inputs": [],
      "name": "getTotalMintedNFTs",
      "outputs": [
        {
          "internalType": "uint256",
          "name": "",
          "type": "uint256"
        }
      ],
      "stateMutability": "view",
      "type": "function"
    },
    {
      "inputs": [
        {
          "internalType": "address",
          "name": "owner",
          "type": "address"
        },
        {
          "internalType": "address",
          "name": "operator",
          "type": "address"
        }
      ],
      "name": "isApprovedForAll",
      "outputs": [
        {
          "internalType": "bool",
          "name": "",
          "type": "bool"
        }
      ],
      "stateMutability": "view",
      "type": "function"
    },
    {
      "inputs": [
        {
          "internalType": "uint256",
          "name": "tokenId",
          "type": "uint256"
        },
        {
          "internalType": "uint256",
          "name": "startingBid",
          "type": "uint256"
        },
        {
          "internalType": "uint256",
          "name": "duration",
          "type": "uint256"
        }
      ],
      "name": "listNFTForAuction",
      "outputs": [],
      "stateMutability": "nonpayable",
      "type": "function"
    },
    {
      "inputs": [
        {
          "internalType": "uint256",
          "name": "tokenId",
          "type": "uint256"
        },
        {
          "internalType": "uint256",
          "name": "price",
          "type": "uint256"
        }
      ],
      "name": "listNFTForSale",
      "outputs": [],
      "stateMutability": "nonpayable",
      "type": "function"
    },
    {
      "inputs": [
        {
          "internalType": "string",
          "name": "tokenURI",
          "type": "string"
        },
        {
          "internalType": "string",
          "name": "title",
          "type": "string"
        },
        {
          "internalType": "string",
          "name": "description",
          "type": "string"
        },
        {
          "internalType": "string",
          "name": "category",
          "type": "string"
        },
        {
          "internalType": "uint256",
          "name": "price",
          "type": "uint256"
        }
      ],
      "name": "mintNFT",
      "outputs": [],
      "stateMutability": "nonpayable",
      "type": "function"
    },
    {
      "inputs": [],
      "name": "name",
      "outputs": [
        {
          "internalType": "string",
          "name": "",
          "type": "string"
        }
      ],
      "stateMutability": "view",
      "type": "function"
    },
    {
      "inputs": [
        {
          "internalType": "uint256",
          "name": "",
          "type": "uint256"
        }
      ],
      "name": "nftDetails",
      "outputs": [
        {
          "internalType": "uint256",
          "name": "tokenId",
          "type": "uint256"
        },
        {
          "internalType": "string",
          "name": "title",
          "type": "string"
        },
        {
          "internalType": "string",
          "name": "description",
          "type": "string"
        },
        {
          "internalType": "string",
          "name": "category",
          "type": "string"
        },
        {
          "internalType": "uint256",
          "name": "price",
          "type": "uint256"
        },
        {
          "internalType": "enum NFTMarketplace.SaleStatus",
          "name": "status",
          "type": "uint8"
        }
      ],
      "stateMutability": "view",
      "type": "function"
    },
    {
      "inputs": [
        {
          "internalType": "address",
          "name": "",
          "type": "address"
        },
        {
          "internalType": "address",
          "name": "",
          "type": "address"
        },
        {
          "internalType": "uint256",
          "name": "",
          "type": "uint256"
        },
        {
          "internalType": "bytes",
          "name": "",
          "type": "bytes"
        }
      ],
      "name": "onERC721Received",
      "outputs": [
        {
          "internalType": "bytes4",
          "name": "",
          "type": "bytes4"
        }
      ],
      "stateMutability": "nonpayable",
      "type": "function"
    },
    {
      "inputs": [],
      "name": "owner",
      "outputs": [
        {
          "internalType": "address",
          "name": "",
          "type": "address"
        }
      ],
      "stateMutability": "view",
      "type": "function"
    },
    {
      "inputs": [
        {
          "internalType": "uint256",
          "name": "tokenId",
          "type": "uint256"
        }
      ],
      "name": "ownerOf",
      "outputs": [
        {
          "internalType": "address",
          "name": "",
          "type": "address"
        }
      ],
      "stateMutability": "view",
      "type": "function"
    },
    {
      "inputs": [],
      "name": "renounceOwnership",
      "outputs": [],
      "stateMutability": "nonpayable",
      "type": "function"
    },
    {
      "inputs": [
        {
          "internalType": "address",
          "name": "from",
          "type": "address"
        },
        {
          "internalType": "address",
          "name": "to",
          "type": "address"
        },
        {
          "internalType": "uint256",
          "name": "tokenId",
          "type": "uint256"
        }
      ],
      "name": "safeTransferFrom",
      "outputs": [],
      "stateMutability": "nonpayable",
      "type": "function"
    },
    {
      "inputs": [
        {
          "internalType": "address",
          "name": "from",
          "type": "address"
        },
        {
          "internalType": "address",
          "name": "to",
          "type": "address"
        },
        {
          "internalType": "uint256",
          "name": "tokenId",
          "type": "uint256"
        },
        {
          "internalType": "bytes",
          "name": "data",
          "type": "bytes"
        }
      ],
      "name": "safeTransferFrom",
      "outputs": [],
      "stateMutability": "nonpayable",
      "type": "function"
    },
    {
      "inputs": [
        {
          "internalType": "address",
          "name": "operator",
          "type": "address"
        },
        {
          "internalType": "bool",
          "name": "approved",
          "type": "bool"
        }
      ],
      "name": "setApprovalForAll",
      "outputs": [],
      "stateMutability": "nonpayable",
      "type": "function"
    },
    {
      "inputs": [
        {
          "internalType": "bytes4",
          "name": "interfaceId",
          "type": "bytes4"
        }
      ],
      "name": "supportsInterface",
      "outputs": [
        {
          "internalType": "bool",
          "name": "",
          "type": "bool"
        }
      ],
      "stateMutability": "view",
      "type": "function"
    },
    {
      "inputs": [],
      "name": "symbol",
      "outputs": [
        {
          "internalType": "string",
          "name": "",
          "type": "string"
        }
      ],
      "stateMutability": "view",
      "type": "function"
    },
    {
      "inputs": [
        {
          "internalType": "uint256",
          "name": "tokenId",
          "type": "uint256"
        }
      ],
      "name": "tokenURI",
      "outputs": [
        {
          "internalType": "string",
          "name": "",
          "type": "string"
        }
      ],
      "stateMutability": "view",
      "type": "function"
    },
    {
      "inputs": [
        {
          "internalType": "address",
          "name": "from",
          "type": "address"
        },
        {
          "internalType": "address",
          "name": "to",
          "type": "address"
        },
        {
          "internalType": "uint256",
          "name": "tokenId",
          "type": "uint256"
        }
      ],
      "name": "transferFrom",
      "outputs": [],
      "stateMutability": "nonpayable",
      "type": "function"
    },
    {
      "inputs": [
        {
          "internalType": "address",
          "name": "newOwner",
          "type": "address"
        }
      ],
      "name": "transferOwnership",
      "outputs": [],
      "stateMutability": "nonpayable",
      "type": "function"
    }
  ],
  "bytecode": "0x60806040523480156200001157600080fd5b506040518060400160405280600e81526020017f4e46544d61726b6574706c6163650000000000000000000000000000000000008152506040518060400160405280600481526020017f4e46544d0000000000000000000000000000000000000000000000000000000081525081600090816200008f919062000412565b508060019081620000a1919062000412565b505050620000c4620000b8620000ca60201b60201c565b620000d260201b60201c565b620004f9565b600033905090565b6000600760009054906101000a900473ffffffffffffffffffffffffffffffffffffffff16905081600760006101000a81548173ffffffffffffffffffffffffffffffffffffffff021916908373ffffffffffffffffffffffffffffffffffffffff1602179055508173ffffffffffffffffffffffffffffffffffffffff168173ffffffffffffffffffffffffffffffffffffffff167f8be0079c531659141344cd1fd0a4f28419497f9722a3daafe3b4186f6b6457e060405160405180910390a35050565b600081519050919050565b7f4e487b7100000000000000000000000000000000000000000000000000000000600052604160045260246000fd5b7f4e487b7100000000000000000000000000000000000000000000000000000000600052602260045260246000fd5b600060028204905060018216806200021a57607f821691505b60208210810362000230576200022f620001d2565b5b50919050565b60008190508160005260206000209050919050565b60006020601f8301049050919050565b600082821b905092915050565b6000600883026200029a7fffffffffffffffffffffffffffffffffffffffffffffffffffffffffffffffff826200025b565b620002a686836200025b565b95508019841693508086168417925050509392505050565b6000819050919050565b6000819050919050565b6000620002f3620002ed620002e784620002be565b620002c8565b620002be565b9050919050565b6000819050919050565b6200030f83620002d2565b620003276200031e82620002fa565b84845462000268565b825550505050565b600090565b6200033e6200032f565b6200034b81848462000304565b505050565b5b8181101562000373576200036760008262000334565b60018101905062000351565b5050565b601f821115620003c2576200038c8162000236565b62000397846200024b565b81016020851015620003a7578190505b620003bf620003b6856200024b565b83018262000350565b50505b505050565b600082821c905092915050565b6000620003e760001984600802620003c7565b1980831691505092915050565b6000620004028383620003d4565b9150826002028217905092915050565b6200041d8262000198565b67ffffffffffffffff811115620004395762000438620001a3565b5b62000445825462000201565b6200045282828562000377565b600060209050601f8311600181146200048a576000841562000475578287015190505b620004818582620003f4565b865550620004f1565b601f1984166200049a8662000236565b60005b82811015620004c4578489015182556001820191506020850194506020810190506200049d565b86831015620004e45784890151620004e0601f891682620003d4565b8355505b6001600288020188555050505b505050505050565b6157ca80620005096000396000f3fe6080604052600436106101b75760003560e01c8063715018a6116100ec578063b2733b391161008a578063c87b56dd11610064578063c87b56dd14610606578063e985e9c514610643578063f20e5e3514610680578063f2fde38b146106c3576101b7565b8063b2733b391461058b578063b88d4fde146105b4578063b9a2de3a146105dd576101b7565b806395d89b41116100c657806395d89b41146104e557806396b5a75514610510578063a060e7e614610539578063a22cb46514610562576101b7565b8063715018a6146104615780637d4cd847146104785780638da5cb5b146104ba576101b7565b806342842e0e11610159578063571a26a011610133578063571a26a01461037a5780635a2e6504146103bc5780636352211e146103e757806370a0823114610424576101b7565b806342842e0e1461030c57806344f9fb271461033557806351ed82881461035e576101b7565b8063095ea7b311610195578063095ea7b314610261578063150b7a021461028a57806323b872dd146102c757806327bf3410146102f0576101b7565b806301ffc9a7146101bc57806306fdde03146101f9578063081812fc14610224575b600080fd5b3480156101c857600080fd5b506101e360048036038101906101de9190613913565b6106ec565b6040516101f0919061395b565b60405180910390f35b34801561020557600080fd5b5061020e61074d565b60405161021b9190613a06565b60405180910390f35b34801561023057600080fd5b5061024b60048036038101906102469190613a5e565b6107df565b6040516102589190613acc565b60405180910390f35b34801561026d57600080fd5b5061028860048036038101906102839190613b13565b610825565b005b34801561029657600080fd5b506102b160048036038101906102ac9190613c88565b61093c565b6040516102be9190613d1a565b60405180910390f35b3480156102d357600080fd5b506102ee60048036038101906102e99190613d35565b610950565b005b61030a60048036038101906103059190613a5e565b6109b0565b005b34801561031857600080fd5b50610333600480360381019061032e9190613d35565b610d19565b005b34801561034157600080fd5b5061035c60048036038101906103579190613d88565b610d39565b005b61037860048036038101906103739190613a5e565b611093565b005b34801561038657600080fd5b506103a1600480360381019061039c9190613a5e565b611236565b6040516103b396959493929190613dea565b60405180910390f35b3480156103c857600080fd5b506103d16112bf565b6040516103de9190613e4b565b60405180910390f35b3480156103f357600080fd5b5061040e60048036038101906104099190613a5e565b6112d0565b60405161041b9190613acc565b60405180910390f35b34801561043057600080fd5b5061044b60048036038101906104469190613e66565b611356565b6040516104589190613e4b565b60405180910390f35b34801561046d57600080fd5b5061047661140d565b005b34801561048457600080fd5b5061049f600480360381019061049a9190613a5e565b611421565b6040516104b196959493929190613f0a565b60405180910390f35b3480156104c657600080fd5b506104cf611602565b6040516104dc9190613acc565b60405180910390f35b3480156104f157600080fd5b506104fa61162c565b6040516105079190613a06565b60405180910390f35b34801561051c57600080fd5b5061053760048036038101906105329190613a5e565b6116be565b005b34801561054557600080fd5b50610560600480360381019061055b9190614021565b611991565b005b34801561056e57600080fd5b5061058960048036038101906105849190614138565b611af9565b005b34801561059757600080fd5b506105b260048036038101906105ad9190614178565b611b0f565b005b3480156105c057600080fd5b506105db60048036038101906105d69190613c88565b611ce8565b005b3480156105e957600080fd5b5061060460048036038101906105ff9190613a5e565b611d4a565b005b34801561061257600080fd5b5061062d60048036038101906106289190613a5e565b6121e4565b60405161063a9190613a06565b60405180910390f35b34801561064f57600080fd5b5061066a600480360381019061066591906141b8565b6122f6565b604051610677919061395b565b60405180910390f35b34801561068c57600080fd5b506106a760048036038101906106a29190613a5e565b61238a565b6040516106ba97969594939291906141f8565b60405180910390f35b3480156106cf57600080fd5b506106ea60048036038101906106e59190613e66565b612700565b005b6000634906490660e01b7bffffffffffffffffffffffffffffffffffffffffffffffffffffffff1916827bffffffffffffffffffffffffffffffffffffffffffffffffffffffff19161480610746575061074582612783565b5b9050919050565b60606000805461075c90614296565b80601f016020809104026020016040519081016040528092919081815260200182805461078890614296565b80156107d55780601f106107aa576101008083540402835291602001916107d5565b820191906000526020600020905b8154815290600101906020018083116107b857829003601f168201915b5050505050905090565b60006107ea82612865565b6004600083815260200190815260200160002060009054906101000a900473ffffffffffffffffffffffffffffffffffffffff169050919050565b6000610830826112d0565b90508073ffffffffffffffffffffffffffffffffffffffff168373ffffffffffffffffffffffffffffffffffffffff16036108a0576040517f08c379a000000000000000000000000000000000000000000000000000000000815260040161089790614339565b60405180910390fd5b8073ffffffffffffffffffffffffffffffffffffffff166108bf6128b0565b73ffffffffffffffffffffffffffffffffffffffff1614806108ee57506108ed816108e86128b0565b6122f6565b5b61092d576040517f08c379a0000000000000000000000000000000000000000000000000000000008152600401610924906143cb565b60405180910390fd5b61093783836128b8565b505050565b600063150b7a0260e01b9050949350505050565b61096161095b6128b0565b82612971565b6109a0576040517f08c379a00000000000000000000000000000000000000000000000000000000081526004016109979061445d565b60405180910390fd5b6109ab838383612a06565b505050565b6000600a600083815260200190815260200160002090506002808111156109da576109d9613e93565b5b6009600084815260200190815260200160002060050160009054906101000a900460ff166002811115610a1057610a0f613e93565b5b14610a50576040517f08c379a0000000000000000000000000000000000000000000000000000000008152600401610a47906144c9565b60405180910390fd5b80600201544210610a96576040517f08c379a0000000000000000000000000000000000000000000000000000000008152600401610a8d90614535565b60405180910390fd5b8060000160009054906101000a900473ffffffffffffffffffffffffffffffffffffffff1673ffffffffffffffffffffffffffffffffffffffff163373ffffffffffffffffffffffffffffffffffffffff1603610b28576040517f08c379a0000000000000000000000000000000000000000000000000000000008152600401610b1f906145a1565b60405180910390fd5b6000816004015403610b80578060010154341015610b7b576040517f08c379a0000000000000000000000000000000000000000000000000000000008152600401610b7290614633565b60405180910390fd5b610bc7565b80600401543411610bc6576040517f08c379a0000000000000000000000000000000000000000000000000000000008152600401610bbd906146c5565b60405180910390fd5b5b600073ffffffffffffffffffffffffffffffffffffffff168160030160009054906101000a900473ffffffffffffffffffffffffffffffffffffffff1673ffffffffffffffffffffffffffffffffffffffff1614610c8f578060030160009054906101000a900473ffffffffffffffffffffffffffffffffffffffff1673ffffffffffffffffffffffffffffffffffffffff166108fc82600401549081150290604051600060405180830381858888f19350505050158015610c8d573d6000803e3d6000fd5b505b338160030160006101000a81548173ffffffffffffffffffffffffffffffffffffffff021916908373ffffffffffffffffffffffffffffffffffffffff160217905550348160040181905550817f0e54eff26401bf69b81b26f60bd85ef47f5d85275c1d268d84f68d6897431c473334604051610d0d9291906146e5565b60405180910390a25050565b610d3483838360405180602001604052806000815250611ce8565b505050565b3373ffffffffffffffffffffffffffffffffffffffff16610d59846112d0565b73ffffffffffffffffffffffffffffffffffffffff1614610daf576040517f08c379a0000000000000000000000000000000000000000000000000000000008152600401610da69061475a565b60405180910390fd5b60006002811115610dc357610dc2613e93565b5b6009600085815260200190815260200160002060050160009054906101000a900460ff166002811115610df957610df8613e93565b5b14610e39576040517f08c379a0000000000000000000000000000000000000000000000000000000008152600401610e30906147ec565b60405180910390fd5b60008211610e7c576040517f08c379a0000000000000000000000000000000000000000000000000000000008152600401610e739061487e565b60405180910390fd5b60008111610ebf576040517f08c379a0000000000000000000000000000000000000000000000000000000008152600401610eb690614910565b60405180910390fd5b610eca333085612a06565b6040518060c001604052803373ffffffffffffffffffffffffffffffffffffffff1681526020018381526020018242610f03919061495f565b8152602001600073ffffffffffffffffffffffffffffffffffffffff1681526020016000815260200160001515815250600a600085815260200190815260200160002060008201518160000160006101000a81548173ffffffffffffffffffffffffffffffffffffffff021916908373ffffffffffffffffffffffffffffffffffffffff160217905550602082015181600101556040820151816002015560608201518160030160006101000a81548173ffffffffffffffffffffffffffffffffffffffff021916908373ffffffffffffffffffffffffffffffffffffffff1602179055506080820151816004015560a08201518160050160006101000a81548160ff02191690831515021790555090505060026009600085815260200190815260200160002060050160006101000a81548160ff0219169083600281111561104f5761104e613e93565b5b0217905550827fccfa7cc7f8f378214f532b94e2da6553eb70516757207c1762beca33cd946d6b8383604051611086929190614993565b60405180910390a2505050565b6000600960008381526020019081526020016000209050600160028111156110be576110bd613e93565b5b8160050160009054906101000a900460ff1660028111156110e2576110e1613e93565b5b14611122576040517f08c379a000000000000000000000000000000000000000000000000000000000815260040161111990614a2e565b60405180910390fd5b8060040154341015611169576040517f08c379a000000000000000000000000000000000000000000000000000000000815260040161116090614a9a565b60405180910390fd5b6000611174836112d0565b9050611181813385612a06565b8073ffffffffffffffffffffffffffffffffffffffff166108fc349081150290604051600060405180830381858888f193505050501580156111c7573d6000803e3d6000fd5b5060008260050160006101000a81548160ff021916908360028111156111f0576111ef613e93565b5b0217905550827f8562eb94748e30bb0071e932744ce902b460c683474fcb3bfd567ffa16b1afb282333460405161122993929190614aba565b60405180910390a2505050565b600a6020528060005260406000206000915090508060000160009054906101000a900473ffffffffffffffffffffffffffffffffffffffff16908060010154908060020154908060030160009054906101000a900473ffffffffffffffffffffffffffffffffffffffff16908060040154908060050160009054906101000a900460ff16905086565b60006112cb6008612cff565b905090565b6000806112dc83612d0d565b9050600073ffffffffffffffffffffffffffffffffffffffff168173ffffffffffffffffffffffffffffffffffffffff160361134d576040517f08c379a000000000000000000000000000000000000000000000000000000000815260040161134490614b3d565b60405180910390fd5b80915050919050565b60008073ffffffffffffffffffffffffffffffffffffffff168273ffffffffffffffffffffffffffffffffffffffff16036113c6576040517f08c379a00000000000000000000000000000000000000000000000000000000081526004016113bd90614bcf565b60405180910390fd5b600360008373ffffffffffffffffffffffffffffffffffffffff1673ffffffffffffffffffffffffffffffffffffffff168152602001908152602001600020549050919050565b611415612d4a565b61141f6000612dc8565b565b600960205280600052604060002060009150905080600001549080600101805461144a90614296565b80601f016020809104026020016040519081016040528092919081815260200182805461147690614296565b80156114c35780601f10611498576101008083540402835291602001916114c3565b820191906000526020600020905b8154815290600101906020018083116114a657829003601f168201915b5050505050908060020180546114d890614296565b80601f016020809104026020016040519081016040528092919081815260200182805461150490614296565b80156115515780601f1061152657610100808354040283529160200191611551565b820191906000526020600020905b81548152906001019060200180831161153457829003601f168201915b50505050509080600301805461156690614296565b80601f016020809104026020016040519081016040528092919081815260200182805461159290614296565b80156115df5780601f106115b4576101008083540402835291602001916115df565b820191906000526020600020905b8154815290600101906020018083116115c257829003601f168201915b5050505050908060040154908060050160009054906101000a900460ff16905086565b6000600760009054906101000a900473ffffffffffffffffffffffffffffffffffffffff16905090565b60606001805461163b90614296565b80601f016020809104026020016040519081016040528092919081815260200182805461166790614296565b80156116b45780601f10611689576101008083540402835291602001916116b4565b820191906000526020600020905b81548152906001019060200180831161169757829003601f168201915b5050505050905090565b6000600a600083815260200190815260200160002090506002808111156116e8576116e7613e93565b5b6009600084815260200190815260200160002060050160009054906101000a900460ff16600281111561171e5761171d613e93565b5b1461175e576040517f08c379a0000000000000000000000000000000000000000000000000000000008152600401611755906144c9565b60405180910390fd5b8060000160009054906101000a900473ffffffffffffffffffffffffffffffffffffffff1673ffffffffffffffffffffffffffffffffffffffff163373ffffffffffffffffffffffffffffffffffffffff16146117f0576040517f08c379a00000000000000000000000000000000000000000000000000000000081526004016117e790614c3b565b60405180910390fd5b600073ffffffffffffffffffffffffffffffffffffffff168160030160009054906101000a900473ffffffffffffffffffffffffffffffffffffffff1673ffffffffffffffffffffffffffffffffffffffff1614611883576040517f08c379a000000000000000000000000000000000000000000000000000000000815260040161187a90614ca7565b60405180910390fd5b8060050160009054906101000a900460ff16156118d5576040517f08c379a00000000000000000000000000000000000000000000000000000000081526004016118cc90614d13565b60405180910390fd5b60018160050160006101000a81548160ff021916908315150217905550611921308260000160009054906101000a900473ffffffffffffffffffffffffffffffffffffffff1684612a06565b60006009600084815260200190815260200160002060050160006101000a81548160ff0219169083600281111561195b5761195a613e93565b5b0217905550817f2809c7e17bf978fbc7194c0a694b638c4215e9140cacc6c38ca36010b45697df60405160405180910390a25050565b61199b6008612e8e565b60006119a76008612cff565b90506119b33382612ea4565b6119bd8187612ec2565b6040518060c00160405280828152602001868152602001858152602001848152602001838152602001600060028111156119fa576119f9613e93565b5b81525060096000838152602001908152602001600020600082015181600001556020820151816001019081611a2f9190614edf565b506040820151816002019081611a459190614edf565b506060820151816003019081611a5b9190614edf565b506080820151816004015560a08201518160050160006101000a81548160ff02191690836002811115611a9157611a90613e93565b5b02179055509050503373ffffffffffffffffffffffffffffffffffffffff167fc5c424bdfb680fa6482e374431f48f5f20bc8f088fcdc140415a5cb0c9e95c67828888888888604051611ae996959493929190614fb1565b60405180910390a2505050505050565b611b0b611b046128b0565b8383612f66565b5050565b3373ffffffffffffffffffffffffffffffffffffffff16611b2f836112d0565b73ffffffffffffffffffffffffffffffffffffffff1614611b85576040517f08c379a0000000000000000000000000000000000000000000000000000000008152600401611b7c9061475a565b60405180910390fd5b60006002811115611b9957611b98613e93565b5b6009600084815260200190815260200160002060050160009054906101000a900460ff166002811115611bcf57611bce613e93565b5b14611c0f576040517f08c379a0000000000000000000000000000000000000000000000000000000008152600401611c06906147ec565b60405180910390fd5b60008111611c52576040517f08c379a0000000000000000000000000000000000000000000000000000000008152600401611c499061507a565b60405180910390fd5b80600960008481526020019081526020016000206004018190555060016009600084815260200190815260200160002060050160006101000a81548160ff02191690836002811115611ca757611ca6613e93565b5b0217905550817fa6cd73580a273eec6c1026108f6b63479fbaef5356dde4ff43e4b38dd187485f82604051611cdc9190613e4b565b60405180910390a25050565b611cf9611cf36128b0565b83612971565b611d38576040517f08c379a0000000000000000000000000000000000000000000000000000000008152600401611d2f9061445d565b60405180910390fd5b611d44848484846130d2565b50505050565b6000600a60008381526020019081526020016000209050600280811115611d7457611d73613e93565b5b6009600084815260200190815260200160002060050160009054906101000a900460ff166002811115611daa57611da9613e93565b5b14611dea576040517f08c379a0000000000000000000000000000000000000000000000000000000008152600401611de1906144c9565b60405180910390fd5b8060020154421015611e31576040517f08c379a0000000000000000000000000000000000000000000000000000000008152600401611e28906150e6565b60405180910390fd5b8060050160009054906101000a900460ff1615611e83576040517f08c379a0000000000000000000000000000000000000000000000000000000008152600401611e7a90614d13565b60405180910390fd5b8060000160009054906101000a900473ffffffffffffffffffffffffffffffffffffffff1673ffffffffffffffffffffffffffffffffffffffff163373ffffffffffffffffffffffffffffffffffffffff161480611f3057508060030160009054906101000a900473ffffffffffffffffffffffffffffffffffffffff1673ffffffffffffffffffffffffffffffffffffffff163373ffffffffffffffffffffffffffffffffffffffff16145b611f6f576040517f08c379a0000000000000000000000000000000000000000000000000000000008152600401611f6690615178565b60405180910390fd5b60018160050160006101000a81548160ff021916908315150217905550600073ffffffffffffffffffffffffffffffffffffffff168160030160009054906101000a900473ffffffffffffffffffffffffffffffffffffffff1673ffffffffffffffffffffffffffffffffffffffff161461210f57612013308260030160009054906101000a900473ffffffffffffffffffffffffffffffffffffffff1684612a06565b8060000160009054906101000a900473ffffffffffffffffffffffffffffffffffffffff1673ffffffffffffffffffffffffffffffffffffffff166108fc82600401549081150290604051600060405180830381858888f19350505050158015612081573d6000803e3d6000fd5b50817f8562eb94748e30bb0071e932744ce902b460c683474fcb3bfd567ffa16b1afb28260000160009054906101000a900473ffffffffffffffffffffffffffffffffffffffff168360030160009054906101000a900473ffffffffffffffffffffffffffffffffffffffff16846004015460405161210293929190614aba565b60405180910390a261213f565b61213e308260000160009054906101000a900473ffffffffffffffffffffffffffffffffffffffff1684612a06565b5b60006009600084815260200190815260200160002060050160006101000a81548160ff0219169083600281111561217957612178613e93565b5b0217905550817fd2aa34a4fdbbc6dff6a3e56f46e0f3ae2a31d7785ff3487aa5c95c642acea5018260030160009054906101000a900473ffffffffffffffffffffffffffffffffffffffff1683600401546040516121d89291906146e5565b60405180910390a25050565b60606121ef82612865565b600060066000848152602001908152602001600020805461220f90614296565b80601f016020809104026020016040519081016040528092919081815260200182805461223b90614296565b80156122885780601f1061225d57610100808354040283529160200191612288565b820191906000526020600020905b81548152906001019060200180831161226b57829003601f168201915b50505050509050600061229961312e565b905060008151036122ae5781925050506122f1565b6000825111156122e35780826040516020016122cb9291906151d4565b604051602081830303815290604052925050506122f1565b6122ec84613145565b925050505b919050565b6000600560008473ffffffffffffffffffffffffffffffffffffffff1673ffffffffffffffffffffffffffffffffffffffff16815260200190815260200160002060008373ffffffffffffffffffffffffffffffffffffffff1673ffffffffffffffffffffffffffffffffffffffff16815260200190815260200160002060009054906101000a900460ff16905092915050565b600080600080600080600080600a60008a81526020019081526020016000206040518060c00160405290816000820160009054906101000a900473ffffffffffffffffffffffffffffffffffffffff1673ffffffffffffffffffffffffffffffffffffffff1673ffffffffffffffffffffffffffffffffffffffff16815260200160018201548152602001600282015481526020016003820160009054906101000a900473ffffffffffffffffffffffffffffffffffffffff1673ffffffffffffffffffffffffffffffffffffffff1673ffffffffffffffffffffffffffffffffffffffff168152602001600482015481526020016005820160009054906101000a900460ff16151515158152505090506000600960008b81526020019081526020016000206040518060c0016040529081600082015481526020016001820180546124d590614296565b80601f016020809104026020016040519081016040528092919081815260200182805461250190614296565b801561254e5780601f106125235761010080835404028352916020019161254e565b820191906000526020600020905b81548152906001019060200180831161253157829003601f168201915b5050505050815260200160028201805461256790614296565b80601f016020809104026020016040519081016040528092919081815260200182805461259390614296565b80156125e05780601f106125b5576101008083540402835291602001916125e0565b820191906000526020600020905b8154815290600101906020018083116125c357829003601f168201915b505050505081526020016003820180546125f990614296565b80601f016020809104026020016040519081016040528092919081815260200182805461262590614296565b80156126725780601f1061264757610100808354040283529160200191612672565b820191906000526020600020905b81548152906001019060200180831161265557829003601f168201915b50505050508152602001600482015481526020016005820160009054906101000a900460ff1660028111156126aa576126a9613e93565b5b60028111156126bc576126bb613e93565b5b815250509050816000015182602001518360800151846060015185604001518660a001518660a0015198509850985098509850985098505050919395979092949650565b612708612d4a565b600073ffffffffffffffffffffffffffffffffffffffff168173ffffffffffffffffffffffffffffffffffffffff1603612777576040517f08c379a000000000000000000000000000000000000000000000000000000000815260040161276e9061526a565b60405180910390fd5b61278081612dc8565b50565b60007f80ac58cd000000000000000000000000000000000000000000000000000000007bffffffffffffffffffffffffffffffffffffffffffffffffffffffff1916827bffffffffffffffffffffffffffffffffffffffffffffffffffffffff1916148061284e57507f5b5e139f000000000000000000000000000000000000000000000000000000007bffffffffffffffffffffffffffffffffffffffffffffffffffffffff1916827bffffffffffffffffffffffffffffffffffffffffffffffffffffffff1916145b8061285e575061285d826131ad565b5b9050919050565b61286e81613217565b6128ad576040517f08c379a00000000000000000000000000000000000000000000000000000000081526004016128a490614b3d565b60405180910390fd5b50565b600033905090565b816004600083815260200190815260200160002060006101000a81548173ffffffffffffffffffffffffffffffffffffffff021916908373ffffffffffffffffffffffffffffffffffffffff160217905550808273ffffffffffffffffffffffffffffffffffffffff1661292b836112d0565b73ffffffffffffffffffffffffffffffffffffffff167f8c5be1e5ebec7d5bd14f71427d1e84f3dd0314c0f7b2291e5b200ac8c7c3b92560405160405180910390a45050565b60008061297d836112d0565b90508073ffffffffffffffffffffffffffffffffffffffff168473ffffffffffffffffffffffffffffffffffffffff1614806129bf57506129be81856122f6565b5b806129fd57508373ffffffffffffffffffffffffffffffffffffffff166129e5846107df565b73ffffffffffffffffffffffffffffffffffffffff16145b91505092915050565b8273ffffffffffffffffffffffffffffffffffffffff16612a26826112d0565b73ffffffffffffffffffffffffffffffffffffffff1614612a7c576040517f08c379a0000000000000000000000000000000000000000000000000000000008152600401612a73906152fc565b60405180910390fd5b600073ffffffffffffffffffffffffffffffffffffffff168273ffffffffffffffffffffffffffffffffffffffff1603612aeb576040517f08c379a0000000000000000000000000000000000000000000000000000000008152600401612ae29061538e565b60405180910390fd5b612af88383836001613258565b8273ffffffffffffffffffffffffffffffffffffffff16612b18826112d0565b73ffffffffffffffffffffffffffffffffffffffff1614612b6e576040517f08c379a0000000000000000000000000000000000000000000000000000000008152600401612b65906152fc565b60405180910390fd5b6004600082815260200190815260200160002060006101000a81549073ffffffffffffffffffffffffffffffffffffffff02191690556001600360008573ffffffffffffffffffffffffffffffffffffffff1673ffffffffffffffffffffffffffffffffffffffff168152602001908152602001600020600082825403925050819055506001600360008473ffffffffffffffffffffffffffffffffffffffff1673ffffffffffffffffffffffffffffffffffffffff16815260200190815260200160002060008282540192505081905550816002600083815260200190815260200160002060006101000a81548173ffffffffffffffffffffffffffffffffffffffff021916908373ffffffffffffffffffffffffffffffffffffffff160217905550808273ffffffffffffffffffffffffffffffffffffffff168473ffffffffffffffffffffffffffffffffffffffff167fddf252ad1be2c89b69c2b068fc378daa952ba7f163c4a11628f55a4df523b3ef60405160405180910390a4612cfa838383600161325e565b505050565b600081600001549050919050565b60006002600083815260200190815260200160002060009054906101000a900473ffffffffffffffffffffffffffffffffffffffff169050919050565b612d526128b0565b73ffffffffffffffffffffffffffffffffffffffff16612d70611602565b73ffffffffffffffffffffffffffffffffffffffff1614612dc6576040517f08c379a0000000000000000000000000000000000000000000000000000000008152600401612dbd906153fa565b60405180910390fd5b565b6000600760009054906101000a900473ffffffffffffffffffffffffffffffffffffffff16905081600760006101000a81548173ffffffffffffffffffffffffffffffffffffffff021916908373ffffffffffffffffffffffffffffffffffffffff1602179055508173ffffffffffffffffffffffffffffffffffffffff168173ffffffffffffffffffffffffffffffffffffffff167f8be0079c531659141344cd1fd0a4f28419497f9722a3daafe3b4186f6b6457e060405160405180910390a35050565b6001816000016000828254019250508190555050565b612ebe828260405180602001604052806000815250613264565b5050565b612ecb82613217565b612f0a576040517f08c379a0000000000000000000000000000000000000000000000000000000008152600401612f019061548c565b60405180910390fd5b80600660008481526020019081526020016000209081612f2a9190614edf565b507ff8e1a15aba9398e019f0b49df1a4fde98ee17ae345cb5f6b5e2c27f5033e8ce782604051612f5a9190613e4b565b60405180910390a15050565b8173ffffffffffffffffffffffffffffffffffffffff168373ffffffffffffffffffffffffffffffffffffffff1603612fd4576040517f08c379a0000000000000000000000000000000000000000000000000000000008152600401612fcb906154f8565b60405180910390fd5b80600560008573ffffffffffffffffffffffffffffffffffffffff1673ffffffffffffffffffffffffffffffffffffffff16815260200190815260200160002060008473ffffffffffffffffffffffffffffffffffffffff1673ffffffffffffffffffffffffffffffffffffffff16815260200190815260200160002060006101000a81548160ff0219169083151502179055508173ffffffffffffffffffffffffffffffffffffffff168373ffffffffffffffffffffffffffffffffffffffff167f17307eab39ab6107e8899845ad3d59bd9653f200f220920489ca2b5937696c31836040516130c5919061395b565b60405180910390a3505050565b6130dd848484612a06565b6130e9848484846132bf565b613128576040517f08c379a000000000000000000000000000000000000000000000000000000000815260040161311f9061558a565b60405180910390fd5b50505050565b606060405180602001604052806000815250905090565b606061315082612865565b600061315a61312e565b9050600081511161317a57604051806020016040528060008152506131a5565b8061318484613446565b6040516020016131959291906151d4565b6040516020818303038152906040525b915050919050565b60007f01ffc9a7000000000000000000000000000000000000000000000000000000007bffffffffffffffffffffffffffffffffffffffffffffffffffffffff1916827bffffffffffffffffffffffffffffffffffffffffffffffffffffffff1916149050919050565b60008073ffffffffffffffffffffffffffffffffffffffff1661323983612d0d565b73ffffffffffffffffffffffffffffffffffffffff1614159050919050565b50505050565b50505050565b61326e8383613514565b61327b60008484846132bf565b6132ba576040517f08c379a00000000000000000000000000000000000000000000000000000000081526004016132b19061558a565b60405180910390fd5b505050565b60006132e08473ffffffffffffffffffffffffffffffffffffffff16613731565b15613439578373ffffffffffffffffffffffffffffffffffffffff1663150b7a026133096128b0565b8786866040518563ffffffff1660e01b815260040161332b94939291906155ff565b6020604051808303816000875af192505050801561336757506040513d601f19601f820116820180604052508101906133649190615660565b60015b6133e9573d8060008114613397576040519150601f19603f3d011682016040523d82523d6000602084013e61339c565b606091505b5060008151036133e1576040517f08c379a00000000000000000000000000000000000000000000000000000000081526004016133d89061558a565b60405180910390fd5b805181602001fd5b63150b7a0260e01b7bffffffffffffffffffffffffffffffffffffffffffffffffffffffff1916817bffffffffffffffffffffffffffffffffffffffffffffffffffffffff19161491505061343e565b600190505b949350505050565b60606000600161345584613754565b01905060008167ffffffffffffffff81111561347457613473613b5d565b5b6040519080825280601f01601f1916602001820160405280156134a65781602001600182028036833780820191505090505b509050600082602001820190505b600115613509578080600190039150507f3031323334353637383961626364656600000000000000000000000000000000600a86061a8153600a85816134fd576134fc61568d565b5b049450600085036134b4575b819350505050919050565b600073ffffffffffffffffffffffffffffffffffffffff168273ffffffffffffffffffffffffffffffffffffffff1603613583576040517f08c379a000000000000000000000000000000000000000000000000000000000815260040161357a90615708565b60405180910390fd5b61358c81613217565b156135cc576040517f08c379a00000000000000000000000000000000000000000000000000000000081526004016135c390615774565b60405180910390fd5b6135da600083836001613258565b6135e381613217565b15613623576040517f08c379a000000000000000000000000000000000000000000000000000000000815260040161361a90615774565b60405180910390fd5b6001600360008473ffffffffffffffffffffffffffffffffffffffff1673ffffffffffffffffffffffffffffffffffffffff16815260200190815260200160002060008282540192505081905550816002600083815260200190815260200160002060006101000a81548173ffffffffffffffffffffffffffffffffffffffff021916908373ffffffffffffffffffffffffffffffffffffffff160217905550808273ffffffffffffffffffffffffffffffffffffffff16600073ffffffffffffffffffffffffffffffffffffffff167fddf252ad1be2c89b69c2b068fc378daa952ba7f163c4a11628f55a4df523b3ef60405160405180910390a461372d60008383600161325e565b5050565b6000808273ffffffffffffffffffffffffffffffffffffffff163b119050919050565b600080600090507a184f03e93ff9f4daa797ed6e38ed64bf6a1f01000000000000000083106137b2577a184f03e93ff9f4daa797ed6e38ed64bf6a1f01000000000000000083816137a8576137a761568d565b5b0492506040810190505b6d04ee2d6d415b85acef810000000083106137ef576d04ee2d6d415b85acef810000000083816137e5576137e461568d565b5b0492506020810190505b662386f26fc10000831061381e57662386f26fc1000083816138145761381361568d565b5b0492506010810190505b6305f5e1008310613847576305f5e100838161383d5761383c61568d565b5b0492506008810190505b612710831061386c5761271083816138625761386161568d565b5b0492506004810190505b6064831061388f57606483816138855761388461568d565b5b0492506002810190505b600a831061389e576001810190505b80915050919050565b6000604051905090565b600080fd5b600080fd5b60007fffffffff0000000000000000000000000000000000000000000000000000000082169050919050565b6138f0816138bb565b81146138fb57600080fd5b50565b60008135905061390d816138e7565b92915050565b600060208284031215613929576139286138b1565b5b6000613937848285016138fe565b91505092915050565b60008115159050919050565b61395581613940565b82525050565b6000602082019050613970600083018461394c565b92915050565b600081519050919050565b600082825260208201905092915050565b60005b838110156139b0578082015181840152602081019050613995565b60008484015250505050565b6000601f19601f8301169050919050565b60006139d882613976565b6139e28185613981565b93506139f2818560208601613992565b6139fb816139bc565b840191505092915050565b60006020820190508181036000830152613a2081846139cd565b905092915050565b6000819050919050565b613a3b81613a28565b8114613a4657600080fd5b50565b600081359050613a5881613a32565b92915050565b600060208284031215613a7457613a736138b1565b5b6000613a8284828501613a49565b91505092915050565b600073ffffffffffffffffffffffffffffffffffffffff82169050919050565b6000613ab682613a8b565b9050919050565b613ac681613aab565b82525050565b6000602082019050613ae16000830184613abd565b92915050565b613af081613aab565b8114613afb57600080fd5b50565b600081359050613b0d81613ae7565b92915050565b60008060408385031215613b2a57613b296138b1565b5b6000613b3885828601613afe565b9250506020613b4985828601613a49565b9150509250929050565b600080fd5b600080fd5b7f4e487b7100000000000000000000000000000000000000000000000000000000600052604160045260246000fd5b613b95826139bc565b810181811067ffffffffffffffff82111715613bb457613bb3613b5d565b5b80604052505050565b6000613bc76138a7565b9050613bd38282613b8c565b919050565b600067ffffffffffffffff821115613bf357613bf2613b5d565b5b613bfc826139bc565b9050602081019050919050565b82818337600083830152505050565b6000613c2b613c2684613bd8565b613bbd565b905082815260208101848484011115613c4757613c46613b58565b5b613c52848285613c09565b509392505050565b600082601f830112613c6f57613c6e613b53565b5b8135613c7f848260208601613c18565b91505092915050565b60008060008060808587031215613ca257613ca16138b1565b5b6000613cb087828801613afe565b9450506020613cc187828801613afe565b9350506040613cd287828801613a49565b925050606085013567ffffffffffffffff811115613cf357613cf26138b6565b5b613cff87828801613c5a565b91505092959194509250565b613d14816138bb565b82525050565b6000602082019050613d2f6000830184613d0b565b92915050565b600080600060608486031215613d4e57613d4d6138b1565b5b6000613d5c86828701613afe565b9350506020613d6d86828701613afe565b9250506040613d7e86828701613a49565b9150509250925092565b600080600060608486031215613da157613da06138b1565b5b6000613daf86828701613a49565b9350506020613dc086828701613a49565b9250506040613dd186828701613a49565b9150509250925092565b613de481613a28565b82525050565b600060c082019050613dff6000830189613abd565b613e0c6020830188613ddb565b613e196040830187613ddb565b613e266060830186613abd565b613e336080830185613ddb565b613e4060a083018461394c565b979650505050505050565b6000602082019050613e606000830184613ddb565b92915050565b600060208284031215613e7c57613e7b6138b1565b5b6000613e8a84828501613afe565b91505092915050565b7f4e487b7100000000000000000000000000000000000000000000000000000000600052602160045260246000fd5b60038110613ed357613ed2613e93565b5b50565b6000819050613ee482613ec2565b919050565b6000613ef482613ed6565b9050919050565b613f0481613ee9565b82525050565b600060c082019050613f1f6000830189613ddb565b8181036020830152613f3181886139cd565b90508181036040830152613f4581876139cd565b90508181036060830152613f5981866139cd565b9050613f686080830185613ddb565b613f7560a0830184613efb565b979650505050505050565b600067ffffffffffffffff821115613f9b57613f9a613b5d565b5b613fa4826139bc565b9050602081019050919050565b6000613fc4613fbf84613f80565b613bbd565b905082815260208101848484011115613fe057613fdf613b58565b5b613feb848285613c09565b509392505050565b600082601f83011261400857614007613b53565b5b8135614018848260208601613fb1565b91505092915050565b600080600080600060a0868803121561403d5761403c6138b1565b5b600086013567ffffffffffffffff81111561405b5761405a6138b6565b5b61406788828901613ff3565b955050602086013567ffffffffffffffff811115614088576140876138b6565b5b61409488828901613ff3565b945050604086013567ffffffffffffffff8111156140b5576140b46138b6565b5b6140c188828901613ff3565b935050606086013567ffffffffffffffff8111156140e2576140e16138b6565b5b6140ee88828901613ff3565b92505060806140ff88828901613a49565b9150509295509295909350565b61411581613940565b811461412057600080fd5b50565b6000813590506141328161410c565b92915050565b6000806040838503121561414f5761414e6138b1565b5b600061415d85828601613afe565b925050602061416e85828601614123565b9150509250929050565b6000806040838503121561418f5761418e6138b1565b5b600061419d85828601613a49565b92505060206141ae85828601613a49565b9150509250929050565b600080604083850312156141cf576141ce6138b1565b5b60006141dd85828601613afe565b92505060206141ee85828601613afe565b9150509250929050565b600060e08201905061420d600083018a613abd565b61421a6020830189613ddb565b6142276040830188613ddb565b6142346060830187613abd565b6142416080830186613ddb565b61424e60a083018561394c565b61425b60c0830184613efb565b98975050505050505050565b7f4e487b7100000000000000000000000000000000000000000000000000000000600052602260045260246000fd5b600060028204905060018216806142ae57607f821691505b6020821081036142c1576142c0614267565b5b50919050565b7f4552433732313a20617070726f76616c20746f2063757272656e74206f776e6560008201527f7200000000000000000000000000000000000000000000000000000000000000602082015250565b6000614323602183613981565b915061432e826142c7565b604082019050919050565b6000602082019050818103600083015261435281614316565b9050919050565b7f4552433732313a20617070726f76652063616c6c6572206973206e6f7420746f60008201527f6b656e206f776e6572206f7220617070726f76656420666f7220616c6c000000602082015250565b60006143b5603d83613981565b91506143c082614359565b604082019050919050565b600060208201905081810360008301526143e4816143a8565b9050919050565b7f4552433732313a2063616c6c6572206973206e6f7420746f6b656e206f776e6560008201527f72206f7220617070726f76656400000000000000000000000000000000000000602082015250565b6000614447602d83613981565b9150614452826143eb565b604082019050919050565b600060208201905081810360008301526144768161443a565b9050919050565b7f4e4654206973206e6f7420696e2061756374696f6e0000000000000000000000600082015250565b60006144b3601583613981565b91506144be8261447d565b602082019050919050565b600060208201905081810360008301526144e2816144a6565b9050919050565b7f41756374696f6e2068617320656e646564000000000000000000000000000000600082015250565b600061451f601183613981565b915061452a826144e9565b602082019050919050565b6000602082019050818103600083015261454e81614512565b9050919050565b7f53656c6c65722063616e6e6f7420626964000000000000000000000000000000600082015250565b600061458b601183613981565b915061459682614555565b602082019050919050565b600060208201905081810360008301526145ba8161457e565b9050919050565b7f426964206d757374206265206174206c6561737420746865207374617274696e60008201527f6720626964000000000000000000000000000000000000000000000000000000602082015250565b600061461d602583613981565b9150614628826145c1565b604082019050919050565b6000602082019050818103600083015261464c81614610565b9050919050565b7f426964206d757374206578636565642063757272656e7420686967686573742060008201527f6269640000000000000000000000000000000000000000000000000000000000602082015250565b60006146af602383613981565b91506146ba82614653565b604082019050919050565b600060208201905081810360008301526146de816146a2565b9050919050565b60006040820190506146fa6000830185613abd565b6147076020830184613ddb565b9392505050565b7f596f7520646f206e6f74206f776e2074686973204e4654000000000000000000600082015250565b6000614744601783613981565b915061474f8261470e565b602082019050919050565b6000602082019050818103600083015261477381614737565b9050919050565b7f4e465420697320616c7265616479206c6973746564206f7220696e206175637460008201527f696f6e0000000000000000000000000000000000000000000000000000000000602082015250565b60006147d6602383613981565b91506147e18261477a565b604082019050919050565b60006020820190508181036000830152614805816147c9565b9050919050565b7f5374617274696e6720626964206d75737420626520677265617465722074686160008201527f6e207a65726f0000000000000000000000000000000000000000000000000000602082015250565b6000614868602683613981565b91506148738261480c565b604082019050919050565b600060208201905081810360008301526148978161485b565b9050919050565b7f4475726174696f6e206d7573742062652067726561746572207468616e207a6560008201527f726f000000000000000000000000000000000000000000000000000000000000602082015250565b60006148fa602283613981565b91506149058261489e565b604082019050919050565b60006020820190508181036000830152614929816148ed565b9050919050565b7f4e487b7100000000000000000000000000000000000000000000000000000000600052601160045260246000fd5b600061496a82613a28565b915061497583613a28565b925082820190508082111561498d5761498c614930565b5b92915050565b60006040820190506149a86000830185613ddb565b6149b56020830184613ddb565b9392505050565b7f4e4654206973206e6f7420666f722073616c652061742061206669786564207060008201527f7269636500000000000000000000000000000000000000000000000000000000602082015250565b6000614a18602483613981565b9150614a23826149bc565b604082019050919050565b60006020820190508181036000830152614a4781614a0b565b9050919050565b7f4e6f7420656e6f75676820457468657220746f20627579204e46540000000000600082015250565b6000614a84601b83613981565b9150614a8f82614a4e565b602082019050919050565b60006020820190508181036000830152614ab381614a77565b9050919050565b6000606082019050614acf6000830186613abd565b614adc6020830185613abd565b614ae96040830184613ddb565b949350505050565b7f4552433732313a20696e76616c696420746f6b656e2049440000000000000000600082015250565b6000614b27601883613981565b9150614b3282614af1565b602082019050919050565b60006020820190508181036000830152614b5681614b1a565b9050919050565b7f4552433732313a2061646472657373207a65726f206973206e6f74206120766160008201527f6c6964206f776e65720000000000000000000000000000000000000000000000602082015250565b6000614bb9602983613981565b9150614bc482614b5d565b604082019050919050565b60006020820190508181036000830152614be881614bac565b9050919050565b7f4f6e6c79207468652073656c6c65722063616e2063616e63656c000000000000600082015250565b6000614c25601a83613981565b9150614c3082614bef565b602082019050919050565b60006020820190508181036000830152614c5481614c18565b9050919050565b7f43616e6e6f742063616e63656c20776974682062696473000000000000000000600082015250565b6000614c91601783613981565b9150614c9c82614c5b565b602082019050919050565b60006020820190508181036000830152614cc081614c84565b9050919050565b7f41756374696f6e20616c726561647920656e6465640000000000000000000000600082015250565b6000614cfd601583613981565b9150614d0882614cc7565b602082019050919050565b60006020820190508181036000830152614d2c81614cf0565b9050919050565b60008190508160005260206000209050919050565b60006020601f8301049050919050565b600082821b905092915050565b600060088302614d957fffffffffffffffffffffffffffffffffffffffffffffffffffffffffffffffff82614d58565b614d9f8683614d58565b95508019841693508086168417925050509392505050565b6000819050919050565b6000614ddc614dd7614dd284613a28565b614db7565b613a28565b9050919050565b6000819050919050565b614df683614dc1565b614e0a614e0282614de3565b848454614d65565b825550505050565b600090565b614e1f614e12565b614e2a818484614ded565b505050565b5b81811015614e4e57614e43600082614e17565b600181019050614e30565b5050565b601f821115614e9357614e6481614d33565b614e6d84614d48565b81016020851015614e7c578190505b614e90614e8885614d48565b830182614e2f565b50505b505050565b600082821c905092915050565b6000614eb660001984600802614e98565b1980831691505092915050565b6000614ecf8383614ea5565b9150826002028217905092915050565b614ee882613976565b67ffffffffffffffff811115614f0157614f00613b5d565b5b614f0b8254614296565b614f16828285614e52565b600060209050601f831160018114614f495760008415614f37578287015190505b614f418582614ec3565b865550614fa9565b601f198416614f5786614d33565b60005b82811015614f7f57848901518255600182019150602085019450602081019050614f5a565b86831015614f9c5784890151614f98601f891682614ea5565b8355505b6001600288020188555050505b505050505050565b600060c082019050614fc66000830189613ddb565b8181036020830152614fd881886139cd565b90508181036040830152614fec81876139cd565b9050818103606083015261500081866139cd565b9050818103608083015261501481856139cd565b905061502360a0830184613ddb565b979650505050505050565b7f5072696365206d7573742062652067726561746572207468616e207a65726f00600082015250565b6000615064601f83613981565b915061506f8261502e565b602082019050919050565b6000602082019050818103600083015261509381615057565b9050919050565b7f41756374696f6e20686173206e6f7420656e6465642079657400000000000000600082015250565b60006150d0601983613981565b91506150db8261509a565b602082019050919050565b600060208201905081810360008301526150ff816150c3565b9050919050565b7f4f6e6c792073656c6c6572206f7220686967686573742062696464657220636160008201527f6e20656e64207468652061756374696f6e000000000000000000000000000000602082015250565b6000615162603183613981565b915061516d82615106565b604082019050919050565b6000602082019050818103600083015261519181615155565b9050919050565b600081905092915050565b60006151ae82613976565b6151b88185615198565b93506151c8818560208601613992565b80840191505092915050565b60006151e082856151a3565b91506151ec82846151a3565b91508190509392505050565b7f4f776e61626c653a206e6577206f776e657220697320746865207a65726f206160008201527f6464726573730000000000000000000000000000000000000000000000000000602082015250565b6000615254602683613981565b915061525f826151f8565b604082019050919050565b6000602082019050818103600083015261528381615247565b9050919050565b7f4552433732313a207472616e736665722066726f6d20696e636f72726563742060008201527f6f776e6572000000000000000000000000000000000000000000000000000000602082015250565b60006152e6602583613981565b91506152f18261528a565b604082019050919050565b60006020820190508181036000830152615315816152d9565b9050919050565b7f4552433732313a207472616e7366657220746f20746865207a65726f2061646460008201527f7265737300000000000000000000000000000000000000000000000000000000602082015250565b6000615378602483613981565b91506153838261531c565b604082019050919050565b600060208201905081810360008301526153a78161536b565b9050919050565b7f4f776e61626c653a2063616c6c6572206973206e6f7420746865206f776e6572600082015250565b60006153e4602083613981565b91506153ef826153ae565b602082019050919050565b60006020820190508181036000830152615413816153d7565b9050919050565b7f45524337323155524953746f726167653a2055524920736574206f66206e6f6e60008201527f6578697374656e7420746f6b656e000000000000000000000000000000000000602082015250565b6000615476602e83613981565b91506154818261541a565b604082019050919050565b600060208201905081810360008301526154a581615469565b9050919050565b7f4552433732313a20617070726f766520746f2063616c6c657200000000000000600082015250565b60006154e2601983613981565b91506154ed826154ac565b602082019050919050565b60006020820190508181036000830152615511816154d5565b9050919050565b7f4552433732313a207472616e7366657220746f206e6f6e20455243373231526560008201527f63656976657220696d706c656d656e7465720000000000000000000000000000602082015250565b6000615574603283613981565b915061557f82615518565b604082019050919050565b600060208201905081810360008301526155a381615567565b9050919050565b600081519050919050565b600082825260208201905092915050565b60006155d1826155aa565b6155db81856155b5565b93506155eb818560208601613992565b6155f4816139bc565b840191505092915050565b60006080820190506156146000830187613abd565b6156216020830186613abd565b61562e6040830185613ddb565b818103606083015261564081846155c6565b905095945050505050565b60008151905061565a816138e7565b92915050565b600060208284031215615676576156756138b1565b5b60006156848482850161564b565b91505092915050565b7f4e487b7100000000000000000000000000000000000000000000000000000000600052601260045260246000fd5b7f4552433732313a206d696e7420746f20746865207a65726f2061646472657373600082015250565b60006156f2602083613981565b91506156fd826156bc565b602082019050919050565b60006020820190508181036000830152615721816156e5565b9050919050565b7f4552433732313a20746f6b656e20616c7265616479206d696e74656400000000600082015250565b600061575e601c83613981565b915061576982615728565b602082019050919050565b6000602082019050818103600083015261578d81615751565b905091905056fea26469706673582212202962c04afd431d56867e08c04fdc0bcd377a452a87f84e5043d56f8b27fe1f0d64736f6c63430008130033",
  "linkReferences": {},
  "deployedLinkReferences": {}
}